{
  "_format": "hh-sol-artifact-1",
  "contractName": "TreasureNFT",
  "sourceName": "contracts/TreasureNFT.sol",
  "abi": [
    {
      "inputs": [],
      "stateMutability": "nonpayable",
      "type": "constructor"
    },
    {
      "anonymous": false,
      "inputs": [
        {
          "indexed": true,
          "internalType": "address",
          "name": "owner",
          "type": "address"
        },
        {
          "indexed": true,
          "internalType": "address",
          "name": "approved",
          "type": "address"
        },
        {
          "indexed": true,
          "internalType": "uint256",
          "name": "tokenId",
          "type": "uint256"
        }
      ],
      "name": "Approval",
      "type": "event"
    },
    {
      "anonymous": false,
      "inputs": [
        {
          "indexed": true,
          "internalType": "address",
          "name": "owner",
          "type": "address"
        },
        {
          "indexed": true,
          "internalType": "address",
          "name": "operator",
          "type": "address"
        },
        {
          "indexed": false,
          "internalType": "bool",
          "name": "approved",
          "type": "bool"
        }
      ],
      "name": "ApprovalForAll",
      "type": "event"
    },
    {
      "anonymous": false,
      "inputs": [
        {
          "indexed": true,
          "internalType": "address",
          "name": "from",
          "type": "address"
        },
        {
          "indexed": true,
          "internalType": "address",
          "name": "to",
          "type": "address"
        },
        {
          "indexed": true,
          "internalType": "uint256",
          "name": "tokenId",
          "type": "uint256"
        }
      ],
      "name": "Transfer",
      "type": "event"
    },
    {
      "inputs": [
        {
          "internalType": "address",
          "name": "to",
          "type": "address"
        },
        {
          "internalType": "uint256",
          "name": "tokenId",
          "type": "uint256"
        }
      ],
      "name": "approve",
      "outputs": [],
      "stateMutability": "nonpayable",
      "type": "function"
    },
    {
      "inputs": [
        {
          "internalType": "address",
          "name": "owner",
          "type": "address"
        }
      ],
      "name": "balanceOf",
      "outputs": [
        {
          "internalType": "uint256",
          "name": "",
          "type": "uint256"
        }
      ],
      "stateMutability": "view",
      "type": "function"
    },
    {
      "inputs": [
        {
          "internalType": "uint256",
          "name": "tokenId",
          "type": "uint256"
        }
      ],
      "name": "getApproved",
      "outputs": [
        {
          "internalType": "address",
          "name": "",
          "type": "address"
        }
      ],
      "stateMutability": "view",
      "type": "function"
    },
    {
      "inputs": [
        {
          "internalType": "address",
          "name": "owner",
          "type": "address"
        },
        {
          "internalType": "address",
          "name": "operator",
          "type": "address"
        }
      ],
      "name": "isApprovedForAll",
      "outputs": [
        {
          "internalType": "bool",
          "name": "",
          "type": "bool"
        }
      ],
      "stateMutability": "view",
      "type": "function"
    },
    {
      "inputs": [
        {
          "internalType": "address",
          "name": "owner",
          "type": "address"
        },
        {
          "internalType": "string",
          "name": "tokenUri",
          "type": "string"
        }
      ],
      "name": "mintTresure",
      "outputs": [
        {
          "internalType": "uint256",
          "name": "tokenId",
          "type": "uint256"
        }
      ],
      "stateMutability": "nonpayable",
      "type": "function"
    },
    {
      "inputs": [],
      "name": "name",
      "outputs": [
        {
          "internalType": "string",
          "name": "",
          "type": "string"
        }
      ],
      "stateMutability": "view",
      "type": "function"
    },
    {
      "inputs": [
        {
          "internalType": "uint256",
          "name": "tokenId",
          "type": "uint256"
        }
      ],
      "name": "ownerOf",
      "outputs": [
        {
          "internalType": "address",
          "name": "",
          "type": "address"
        }
      ],
      "stateMutability": "view",
      "type": "function"
    },
    {
      "inputs": [
        {
          "internalType": "address",
          "name": "from",
          "type": "address"
        },
        {
          "internalType": "address",
          "name": "to",
          "type": "address"
        },
        {
          "internalType": "uint256",
          "name": "tokenId",
          "type": "uint256"
        }
      ],
      "name": "safeTransferFrom",
      "outputs": [],
      "stateMutability": "nonpayable",
      "type": "function"
    },
    {
      "inputs": [
        {
          "internalType": "address",
          "name": "from",
          "type": "address"
        },
        {
          "internalType": "address",
          "name": "to",
          "type": "address"
        },
        {
          "internalType": "uint256",
          "name": "tokenId",
          "type": "uint256"
        },
        {
          "internalType": "bytes",
          "name": "_data",
          "type": "bytes"
        }
      ],
      "name": "safeTransferFrom",
      "outputs": [],
      "stateMutability": "nonpayable",
      "type": "function"
    },
    {
      "inputs": [
        {
          "internalType": "address",
          "name": "operator",
          "type": "address"
        },
        {
          "internalType": "bool",
          "name": "approved",
          "type": "bool"
        }
      ],
      "name": "setApprovalForAll",
      "outputs": [],
      "stateMutability": "nonpayable",
      "type": "function"
    },
    {
      "inputs": [
        {
          "internalType": "bytes4",
          "name": "interfaceId",
          "type": "bytes4"
        }
      ],
      "name": "supportsInterface",
      "outputs": [
        {
          "internalType": "bool",
          "name": "",
          "type": "bool"
        }
      ],
      "stateMutability": "view",
      "type": "function"
    },
    {
      "inputs": [],
      "name": "symbol",
      "outputs": [
        {
          "internalType": "string",
          "name": "",
          "type": "string"
        }
      ],
      "stateMutability": "view",
      "type": "function"
    },
    {
      "inputs": [
        {
          "internalType": "uint256",
          "name": "index",
          "type": "uint256"
        }
      ],
      "name": "tokenByIndex",
      "outputs": [
        {
          "internalType": "uint256",
          "name": "",
          "type": "uint256"
        }
      ],
      "stateMutability": "view",
      "type": "function"
    },
    {
      "inputs": [
        {
          "internalType": "address",
          "name": "owner",
          "type": "address"
        },
        {
          "internalType": "uint256",
          "name": "index",
          "type": "uint256"
        }
      ],
      "name": "tokenOfOwnerByIndex",
      "outputs": [
        {
          "internalType": "uint256",
          "name": "",
          "type": "uint256"
        }
      ],
      "stateMutability": "view",
      "type": "function"
    },
    {
      "inputs": [
        {
          "internalType": "uint256",
          "name": "tokenId",
          "type": "uint256"
        }
      ],
      "name": "tokenURI",
      "outputs": [
        {
          "internalType": "string",
          "name": "",
          "type": "string"
        }
      ],
      "stateMutability": "view",
      "type": "function"
    },
    {
      "inputs": [],
      "name": "totalSupply",
      "outputs": [
        {
          "internalType": "uint256",
          "name": "",
          "type": "uint256"
        }
      ],
      "stateMutability": "view",
      "type": "function"
    },
    {
      "inputs": [
        {
          "internalType": "address",
          "name": "from",
          "type": "address"
        },
        {
          "internalType": "address",
          "name": "to",
          "type": "address"
        },
        {
          "internalType": "uint256",
          "name": "tokenId",
          "type": "uint256"
        }
      ],
      "name": "transferFrom",
      "outputs": [],
      "stateMutability": "nonpayable",
      "type": "function"
    }
  ],
  "bytecode": "0x60806040523480156200001157600080fd5b506040518060400160405280600881526020017f54726561737572650000000000000000000000000000000000000000000000008152506040518060400160405280600381526020017f5452530000000000000000000000000000000000000000000000000000000000815250816000908051906020019062000096929190620000b8565b508060019080519060200190620000af929190620000b8565b505050620001cd565b828054620000c69062000168565b90600052602060002090601f016020900481019282620000ea576000855562000136565b82601f106200010557805160ff191683800117855562000136565b8280016001018555821562000136579182015b828111156200013557825182559160200191906001019062000118565b5b50905062000145919062000149565b5090565b5b80821115620001645760008160009055506001016200014a565b5090565b600060028204905060018216806200018157607f821691505b602082108114156200019857620001976200019e565b5b50919050565b7f4e487b7100000000000000000000000000000000000000000000000000000000600052602260045260246000fd5b6132af80620001dd6000396000f3fe608060405234801561001057600080fd5b506004361061010b5760003560e01c806342842e0e116100a257806395d89b411161007157806395d89b41146102f0578063a22cb4651461030e578063b88d4fde1461032a578063c87b56dd14610346578063e985e9c5146103765761010b565b806342842e0e146102445780634f6ccce7146102605780636352211e1461029057806370a08231146102c05761010b565b806318160ddd116100de57806318160ddd146101aa5780631dc4fc62146101c857806323b872dd146101f85780632f745c59146102145761010b565b806301ffc9a71461011057806306fdde0314610140578063081812fc1461015e578063095ea7b31461018e575b600080fd5b61012a60048036038101906101259190612337565b6103a6565b6040516101379190612bc7565b60405180910390f35b6101486103b8565b6040516101559190612be2565b60405180910390f35b61017860048036038101906101739190612389565b61044a565b6040516101859190612b60565b60405180910390f35b6101a860048036038101906101a391906122fb565b6104cf565b005b6101b26105e7565b6040516101bf9190612e44565b60405180910390f35b6101e260048036038101906101dd91906122a7565b6105f4565b6040516101ef9190612e44565b60405180910390f35b610212600480360381019061020d91906121a1565b610626565b005b61022e600480360381019061022991906122fb565b610686565b60405161023b9190612e44565b60405180910390f35b61025e600480360381019061025991906121a1565b61072b565b005b61027a60048036038101906102759190612389565b61074b565b6040516102879190612e44565b60405180910390f35b6102aa60048036038101906102a59190612389565b6107e2565b6040516102b79190612b60565b60405180910390f35b6102da60048036038101906102d5919061213c565b610894565b6040516102e79190612e44565b60405180910390f35b6102f861094c565b6040516103059190612be2565b60405180910390f35b6103286004803603810190610323919061226b565b6109de565b005b610344600480360381019061033f91906121f0565b6109f4565b005b610360600480360381019061035b9190612389565b610a56565b60405161036d9190612be2565b60405180910390f35b610390600480360381019061038b9190612165565b610a68565b60405161039d9190612bc7565b60405180910390f35b60006103b182610afc565b9050919050565b6060600080546103c7906130a4565b80601f01602080910402602001604051908101604052809291908181526020018280546103f3906130a4565b80156104405780601f1061041557610100808354040283529160200191610440565b820191906000526020600020905b81548152906001019060200180831161042357829003601f168201915b5050505050905090565b600061045582610b76565b610494576040517f08c379a000000000000000000000000000000000000000000000000000000000815260040161048b90612d84565b60405180910390fd5b6004600083815260200190815260200160002060009054906101000a900473ffffffffffffffffffffffffffffffffffffffff169050919050565b60006104da826107e2565b90508073ffffffffffffffffffffffffffffffffffffffff168373ffffffffffffffffffffffffffffffffffffffff16141561054b576040517f08c379a000000000000000000000000000000000000000000000000000000000815260040161054290612de4565b60405180910390fd5b8073ffffffffffffffffffffffffffffffffffffffff1661056a610be2565b73ffffffffffffffffffffffffffffffffffffffff161480610599575061059881610593610be2565b610a68565b5b6105d8576040517f08c379a00000000000000000000000000000000000000000000000000000000081526004016105cf90612cc4565b60405180910390fd5b6105e28383610bea565b505050565b6000600880549050905090565b6000610600600b610ca3565b61060a600b610cb9565b90506106168382610cc7565b6106208183610e95565b92915050565b610637610631610be2565b82610f09565b610676576040517f08c379a000000000000000000000000000000000000000000000000000000000815260040161066d90612e04565b60405180910390fd5b610681838383610fe7565b505050565b600061069183610894565b82106106d2576040517f08c379a00000000000000000000000000000000000000000000000000000000081526004016106c990612c04565b60405180910390fd5b600660008473ffffffffffffffffffffffffffffffffffffffff1673ffffffffffffffffffffffffffffffffffffffff168152602001908152602001600020600083815260200190815260200160002054905092915050565b610746838383604051806020016040528060008152506109f4565b505050565b60006107556105e7565b8210610796576040517f08c379a000000000000000000000000000000000000000000000000000000000815260040161078d90612e24565b60405180910390fd5b600882815481106107d0577f4e487b7100000000000000000000000000000000000000000000000000000000600052603260045260246000fd5b90600052602060002001549050919050565b6000806002600084815260200190815260200160002060009054906101000a900473ffffffffffffffffffffffffffffffffffffffff169050600073ffffffffffffffffffffffffffffffffffffffff168173ffffffffffffffffffffffffffffffffffffffff16141561088b576040517f08c379a000000000000000000000000000000000000000000000000000000000815260040161088290612d04565b60405180910390fd5b80915050919050565b60008073ffffffffffffffffffffffffffffffffffffffff168273ffffffffffffffffffffffffffffffffffffffff161415610905576040517f08c379a00000000000000000000000000000000000000000000000000000000081526004016108fc90612ce4565b60405180910390fd5b600360008373ffffffffffffffffffffffffffffffffffffffff1673ffffffffffffffffffffffffffffffffffffffff168152602001908152602001600020549050919050565b60606001805461095b906130a4565b80601f0160208091040260200160405190810160405280929190818152602001828054610987906130a4565b80156109d45780601f106109a9576101008083540402835291602001916109d4565b820191906000526020600020905b8154815290600101906020018083116109b757829003601f168201915b5050505050905090565b6109f06109e9610be2565b8383611243565b5050565b610a056109ff610be2565b83610f09565b610a44576040517f08c379a0000000000000000000000000000000000000000000000000000000008152600401610a3b90612e04565b60405180910390fd5b610a50848484846113b0565b50505050565b6060610a618261140c565b9050919050565b6000600560008473ffffffffffffffffffffffffffffffffffffffff1673ffffffffffffffffffffffffffffffffffffffff16815260200190815260200160002060008373ffffffffffffffffffffffffffffffffffffffff1673ffffffffffffffffffffffffffffffffffffffff16815260200190815260200160002060009054906101000a900460ff16905092915050565b60007f780e9d63000000000000000000000000000000000000000000000000000000007bffffffffffffffffffffffffffffffffffffffffffffffffffffffff1916827bffffffffffffffffffffffffffffffffffffffffffffffffffffffff19161480610b6f5750610b6e8261155e565b5b9050919050565b60008073ffffffffffffffffffffffffffffffffffffffff166002600084815260200190815260200160002060009054906101000a900473ffffffffffffffffffffffffffffffffffffffff1673ffffffffffffffffffffffffffffffffffffffff1614159050919050565b600033905090565b816004600083815260200190815260200160002060006101000a81548173ffffffffffffffffffffffffffffffffffffffff021916908373ffffffffffffffffffffffffffffffffffffffff160217905550808273ffffffffffffffffffffffffffffffffffffffff16610c5d836107e2565b73ffffffffffffffffffffffffffffffffffffffff167f8c5be1e5ebec7d5bd14f71427d1e84f3dd0314c0f7b2291e5b200ac8c7c3b92560405160405180910390a45050565b6001816000016000828254019250508190555050565b600081600001549050919050565b600073ffffffffffffffffffffffffffffffffffffffff168273ffffffffffffffffffffffffffffffffffffffff161415610d37576040517f08c379a0000000000000000000000000000000000000000000000000000000008152600401610d2e90612d44565b60405180910390fd5b610d4081610b76565b15610d80576040517f08c379a0000000000000000000000000000000000000000000000000000000008152600401610d7790612c44565b60405180910390fd5b610d8c60008383611640565b6001600360008473ffffffffffffffffffffffffffffffffffffffff1673ffffffffffffffffffffffffffffffffffffffff1681526020019081526020016000206000828254610ddc9190612f33565b92505081905550816002600083815260200190815260200160002060006101000a81548173ffffffffffffffffffffffffffffffffffffffff021916908373ffffffffffffffffffffffffffffffffffffffff160217905550808273ffffffffffffffffffffffffffffffffffffffff16600073ffffffffffffffffffffffffffffffffffffffff167fddf252ad1be2c89b69c2b068fc378daa952ba7f163c4a11628f55a4df523b3ef60405160405180910390a45050565b610e9e82610b76565b610edd576040517f08c379a0000000000000000000000000000000000000000000000000000000008152600401610ed490612d24565b60405180910390fd5b80600a60008481526020019081526020016000209080519060200190610f04929190611f60565b505050565b6000610f1482610b76565b610f53576040517f08c379a0000000000000000000000000000000000000000000000000000000008152600401610f4a90612ca4565b60405180910390fd5b6000610f5e836107e2565b90508073ffffffffffffffffffffffffffffffffffffffff168473ffffffffffffffffffffffffffffffffffffffff161480610fcd57508373ffffffffffffffffffffffffffffffffffffffff16610fb58461044a565b73ffffffffffffffffffffffffffffffffffffffff16145b80610fde5750610fdd8185610a68565b5b91505092915050565b8273ffffffffffffffffffffffffffffffffffffffff16611007826107e2565b73ffffffffffffffffffffffffffffffffffffffff161461105d576040517f08c379a000000000000000000000000000000000000000000000000000000000815260040161105490612da4565b60405180910390fd5b600073ffffffffffffffffffffffffffffffffffffffff168273ffffffffffffffffffffffffffffffffffffffff1614156110cd576040517f08c379a00000000000000000000000000000000000000000000000000000000081526004016110c490612c64565b60405180910390fd5b6110d8838383611640565b6110e3600082610bea565b6001600360008573ffffffffffffffffffffffffffffffffffffffff1673ffffffffffffffffffffffffffffffffffffffff16815260200190815260200160002060008282546111339190612fba565b925050819055506001600360008473ffffffffffffffffffffffffffffffffffffffff1673ffffffffffffffffffffffffffffffffffffffff168152602001908152602001600020600082825461118a9190612f33565b92505081905550816002600083815260200190815260200160002060006101000a81548173ffffffffffffffffffffffffffffffffffffffff021916908373ffffffffffffffffffffffffffffffffffffffff160217905550808273ffffffffffffffffffffffffffffffffffffffff168473ffffffffffffffffffffffffffffffffffffffff167fddf252ad1be2c89b69c2b068fc378daa952ba7f163c4a11628f55a4df523b3ef60405160405180910390a4505050565b8173ffffffffffffffffffffffffffffffffffffffff168373ffffffffffffffffffffffffffffffffffffffff1614156112b2576040517f08c379a00000000000000000000000000000000000000000000000000000000081526004016112a990612c84565b60405180910390fd5b80600560008573ffffffffffffffffffffffffffffffffffffffff1673ffffffffffffffffffffffffffffffffffffffff16815260200190815260200160002060008473ffffffffffffffffffffffffffffffffffffffff1673ffffffffffffffffffffffffffffffffffffffff16815260200190815260200160002060006101000a81548160ff0219169083151502179055508173ffffffffffffffffffffffffffffffffffffffff168373ffffffffffffffffffffffffffffffffffffffff167f17307eab39ab6107e8899845ad3d59bd9653f200f220920489ca2b5937696c31836040516113a39190612bc7565b60405180910390a3505050565b6113bb848484610fe7565b6113c784848484611650565b611406576040517f08c379a00000000000000000000000000000000000000000000000000000000081526004016113fd90612c24565b60405180910390fd5b50505050565b606061141782610b76565b611456576040517f08c379a000000000000000000000000000000000000000000000000000000000815260040161144d90612d64565b60405180910390fd5b6000600a60008481526020019081526020016000208054611476906130a4565b80601f01602080910402602001604051908101604052809291908181526020018280546114a2906130a4565b80156114ef5780601f106114c4576101008083540402835291602001916114ef565b820191906000526020600020905b8154815290600101906020018083116114d257829003601f168201915b5050505050905060006115006117e7565b9050600081511415611516578192505050611559565b60008251111561154b578082604051602001611533929190612b3c565b60405160208183030381529060405292505050611559565b611554846117fe565b925050505b919050565b60007f80ac58cd000000000000000000000000000000000000000000000000000000007bffffffffffffffffffffffffffffffffffffffffffffffffffffffff1916827bffffffffffffffffffffffffffffffffffffffffffffffffffffffff1916148061162957507f5b5e139f000000000000000000000000000000000000000000000000000000007bffffffffffffffffffffffffffffffffffffffffffffffffffffffff1916827bffffffffffffffffffffffffffffffffffffffffffffffffffffffff1916145b806116395750611638826118a5565b5b9050919050565b61164b83838361190f565b505050565b60006116718473ffffffffffffffffffffffffffffffffffffffff16611a23565b156117da578373ffffffffffffffffffffffffffffffffffffffff1663150b7a0261169a610be2565b8786866040518563ffffffff1660e01b81526004016116bc9493929190612b7b565b602060405180830381600087803b1580156116d657600080fd5b505af192505050801561170757506040513d601f19601f820116820180604052508101906117049190612360565b60015b61178a573d8060008114611737576040519150601f19603f3d011682016040523d82523d6000602084013e61173c565b606091505b50600081511415611782576040517f08c379a000000000000000000000000000000000000000000000000000000000815260040161177990612c24565b60405180910390fd5b805181602001fd5b63150b7a0260e01b7bffffffffffffffffffffffffffffffffffffffffffffffffffffffff1916817bffffffffffffffffffffffffffffffffffffffffffffffffffffffff1916149150506117df565b600190505b949350505050565b606060405180602001604052806000815250905090565b606061180982610b76565b611848576040517f08c379a000000000000000000000000000000000000000000000000000000000815260040161183f90612dc4565b60405180910390fd5b60006118526117e7565b90506000815111611872576040518060200160405280600081525061189d565b8061187c84611a36565b60405160200161188d929190612b3c565b6040516020818303038152906040525b915050919050565b60007f01ffc9a7000000000000000000000000000000000000000000000000000000007bffffffffffffffffffffffffffffffffffffffffffffffffffffffff1916827bffffffffffffffffffffffffffffffffffffffffffffffffffffffff1916149050919050565b61191a838383611be3565b600073ffffffffffffffffffffffffffffffffffffffff168373ffffffffffffffffffffffffffffffffffffffff16141561195d5761195881611be8565b61199c565b8173ffffffffffffffffffffffffffffffffffffffff168373ffffffffffffffffffffffffffffffffffffffff161461199b5761199a8382611c31565b5b5b600073ffffffffffffffffffffffffffffffffffffffff168273ffffffffffffffffffffffffffffffffffffffff1614156119df576119da81611d9e565b611a1e565b8273ffffffffffffffffffffffffffffffffffffffff168273ffffffffffffffffffffffffffffffffffffffff1614611a1d57611a1c8282611ee1565b5b5b505050565b600080823b905060008111915050919050565b60606000821415611a7e576040518060400160405280600181526020017f30000000000000000000000000000000000000000000000000000000000000008152509050611bde565b600082905060005b60008214611ab0578080611a99906130d6565b915050600a82611aa99190612f89565b9150611a86565b60008167ffffffffffffffff811115611af2577f4e487b7100000000000000000000000000000000000000000000000000000000600052604160045260246000fd5b6040519080825280601f01601f191660200182016040528015611b245781602001600182028036833780820191505090505b5090505b60008514611bd757600182611b3d9190612fba565b9150600a85611b4c919061311f565b6030611b589190612f33565b60f81b818381518110611b94577f4e487b7100000000000000000000000000000000000000000000000000000000600052603260045260246000fd5b60200101907effffffffffffffffffffffffffffffffffffffffffffffffffffffffffffff1916908160001a905350600a85611bd09190612f89565b9450611b28565b8093505050505b919050565b505050565b6008805490506009600083815260200190815260200160002081905550600881908060018154018082558091505060019003906000526020600020016000909190919091505550565b60006001611c3e84610894565b611c489190612fba565b9050600060076000848152602001908152602001600020549050818114611d2d576000600660008673ffffffffffffffffffffffffffffffffffffffff1673ffffffffffffffffffffffffffffffffffffffff168152602001908152602001600020600084815260200190815260200160002054905080600660008773ffffffffffffffffffffffffffffffffffffffff1673ffffffffffffffffffffffffffffffffffffffff168152602001908152602001600020600084815260200190815260200160002081905550816007600083815260200190815260200160002081905550505b6007600084815260200190815260200160002060009055600660008573ffffffffffffffffffffffffffffffffffffffff1673ffffffffffffffffffffffffffffffffffffffff16815260200190815260200160002060008381526020019081526020016000206000905550505050565b60006001600880549050611db29190612fba565b9050600060096000848152602001908152602001600020549050600060088381548110611e08577f4e487b7100000000000000000000000000000000000000000000000000000000600052603260045260246000fd5b906000526020600020015490508060088381548110611e50577f4e487b7100000000000000000000000000000000000000000000000000000000600052603260045260246000fd5b906000526020600020018190555081600960008381526020019081526020016000208190555060096000858152602001908152602001600020600090556008805480611ec5577f4e487b7100000000000000000000000000000000000000000000000000000000600052603160045260246000fd5b6001900381819060005260206000200160009055905550505050565b6000611eec83610894565b905081600660008573ffffffffffffffffffffffffffffffffffffffff1673ffffffffffffffffffffffffffffffffffffffff168152602001908152602001600020600083815260200190815260200160002081905550806007600084815260200190815260200160002081905550505050565b828054611f6c906130a4565b90600052602060002090601f016020900481019282611f8e5760008555611fd5565b82601f10611fa757805160ff1916838001178555611fd5565b82800160010185558215611fd5579182015b82811115611fd4578251825591602001919060010190611fb9565b5b509050611fe29190611fe6565b5090565b5b80821115611fff576000816000905550600101611fe7565b5090565b600061201661201184612e90565b612e5f565b90508281526020810184848401111561202e57600080fd5b612039848285613062565b509392505050565b600061205461204f84612ec0565b612e5f565b90508281526020810184848401111561206c57600080fd5b612077848285613062565b509392505050565b60008135905061208e8161321d565b92915050565b6000813590506120a381613234565b92915050565b6000813590506120b88161324b565b92915050565b6000815190506120cd8161324b565b92915050565b600082601f8301126120e457600080fd5b81356120f4848260208601612003565b91505092915050565b600082601f83011261210e57600080fd5b813561211e848260208601612041565b91505092915050565b60008135905061213681613262565b92915050565b60006020828403121561214e57600080fd5b600061215c8482850161207f565b91505092915050565b6000806040838503121561217857600080fd5b60006121868582860161207f565b92505060206121978582860161207f565b9150509250929050565b6000806000606084860312156121b657600080fd5b60006121c48682870161207f565b93505060206121d58682870161207f565b92505060406121e686828701612127565b9150509250925092565b6000806000806080858703121561220657600080fd5b60006122148782880161207f565b94505060206122258782880161207f565b935050604061223687828801612127565b925050606085013567ffffffffffffffff81111561225357600080fd5b61225f878288016120d3565b91505092959194509250565b6000806040838503121561227e57600080fd5b600061228c8582860161207f565b925050602061229d85828601612094565b9150509250929050565b600080604083850312156122ba57600080fd5b60006122c88582860161207f565b925050602083013567ffffffffffffffff8111156122e557600080fd5b6122f1858286016120fd565b9150509250929050565b6000806040838503121561230e57600080fd5b600061231c8582860161207f565b925050602061232d85828601612127565b9150509250929050565b60006020828403121561234957600080fd5b6000612357848285016120a9565b91505092915050565b60006020828403121561237257600080fd5b6000612380848285016120be565b91505092915050565b60006020828403121561239b57600080fd5b60006123a984828501612127565b91505092915050565b6123bb81612fee565b82525050565b6123ca81613000565b82525050565b60006123db82612ef0565b6123e58185612f06565b93506123f5818560208601613071565b6123fe8161320c565b840191505092915050565b600061241482612efb565b61241e8185612f17565b935061242e818560208601613071565b6124378161320c565b840191505092915050565b600061244d82612efb565b6124578185612f28565b9350612467818560208601613071565b80840191505092915050565b6000612480602b83612f17565b91507f455243373231456e756d657261626c653a206f776e657220696e646578206f7560008301527f74206f6620626f756e64730000000000000000000000000000000000000000006020830152604082019050919050565b60006124e6603283612f17565b91507f4552433732313a207472616e7366657220746f206e6f6e20455243373231526560008301527f63656976657220696d706c656d656e74657200000000000000000000000000006020830152604082019050919050565b600061254c601c83612f17565b91507f4552433732313a20746f6b656e20616c7265616479206d696e746564000000006000830152602082019050919050565b600061258c602483612f17565b91507f4552433732313a207472616e7366657220746f20746865207a65726f2061646460008301527f72657373000000000000000000000000000000000000000000000000000000006020830152604082019050919050565b60006125f2601983612f17565b91507f4552433732313a20617070726f766520746f2063616c6c6572000000000000006000830152602082019050919050565b6000612632602c83612f17565b91507f4552433732313a206f70657261746f7220717565727920666f72206e6f6e657860008301527f697374656e7420746f6b656e00000000000000000000000000000000000000006020830152604082019050919050565b6000612698603883612f17565b91507f4552433732313a20617070726f76652063616c6c6572206973206e6f74206f7760008301527f6e6572206e6f7220617070726f76656420666f7220616c6c00000000000000006020830152604082019050919050565b60006126fe602a83612f17565b91507f4552433732313a2062616c616e636520717565727920666f7220746865207a6560008301527f726f2061646472657373000000000000000000000000000000000000000000006020830152604082019050919050565b6000612764602983612f17565b91507f4552433732313a206f776e657220717565727920666f72206e6f6e657869737460008301527f656e7420746f6b656e00000000000000000000000000000000000000000000006020830152604082019050919050565b60006127ca602e83612f17565b91507f45524337323155524953746f726167653a2055524920736574206f66206e6f6e60008301527f6578697374656e7420746f6b656e0000000000000000000000000000000000006020830152604082019050919050565b6000612830602083612f17565b91507f4552433732313a206d696e7420746f20746865207a65726f20616464726573736000830152602082019050919050565b6000612870603183612f17565b91507f45524337323155524953746f726167653a2055524920717565727920666f722060008301527f6e6f6e6578697374656e7420746f6b656e0000000000000000000000000000006020830152604082019050919050565b60006128d6602c83612f17565b91507f4552433732313a20617070726f76656420717565727920666f72206e6f6e657860008301527f697374656e7420746f6b656e00000000000000000000000000000000000000006020830152604082019050919050565b600061293c602983612f17565b91507f4552433732313a207472616e73666572206f6620746f6b656e2074686174206960008301527f73206e6f74206f776e00000000000000000000000000000000000000000000006020830152604082019050919050565b60006129a2602f83612f17565b91507f4552433732314d657461646174613a2055524920717565727920666f72206e6f60008301527f6e6578697374656e7420746f6b656e00000000000000000000000000000000006020830152604082019050919050565b6000612a08602183612f17565b91507f4552433732313a20617070726f76616c20746f2063757272656e74206f776e6560008301527f72000000000000000000000000000000000000000000000000000000000000006020830152604082019050919050565b6000612a6e603183612f17565b91507f4552433732313a207472616e736665722063616c6c6572206973206e6f74206f60008301527f776e6572206e6f7220617070726f7665640000000000000000000000000000006020830152604082019050919050565b6000612ad4602c83612f17565b91507f455243373231456e756d657261626c653a20676c6f62616c20696e646578206f60008301527f7574206f6620626f756e647300000000000000000000000000000000000000006020830152604082019050919050565b612b3681613058565b82525050565b6000612b488285612442565b9150612b548284612442565b91508190509392505050565b6000602082019050612b7560008301846123b2565b92915050565b6000608082019050612b9060008301876123b2565b612b9d60208301866123b2565b612baa6040830185612b2d565b8181036060830152612bbc81846123d0565b905095945050505050565b6000602082019050612bdc60008301846123c1565b92915050565b60006020820190508181036000830152612bfc8184612409565b905092915050565b60006020820190508181036000830152612c1d81612473565b9050919050565b60006020820190508181036000830152612c3d816124d9565b9050919050565b60006020820190508181036000830152612c5d8161253f565b9050919050565b60006020820190508181036000830152612c7d8161257f565b9050919050565b60006020820190508181036000830152612c9d816125e5565b9050919050565b60006020820190508181036000830152612cbd81612625565b9050919050565b60006020820190508181036000830152612cdd8161268b565b9050919050565b60006020820190508181036000830152612cfd816126f1565b9050919050565b60006020820190508181036000830152612d1d81612757565b9050919050565b60006020820190508181036000830152612d3d816127bd565b9050919050565b60006020820190508181036000830152612d5d81612823565b9050919050565b60006020820190508181036000830152612d7d81612863565b9050919050565b60006020820190508181036000830152612d9d816128c9565b9050919050565b60006020820190508181036000830152612dbd8161292f565b9050919050565b60006020820190508181036000830152612ddd81612995565b9050919050565b60006020820190508181036000830152612dfd816129fb565b9050919050565b60006020820190508181036000830152612e1d81612a61565b9050919050565b60006020820190508181036000830152612e3d81612ac7565b9050919050565b6000602082019050612e596000830184612b2d565b92915050565b6000604051905081810181811067ffffffffffffffff82111715612e8657612e856131dd565b5b8060405250919050565b600067ffffffffffffffff821115612eab57612eaa6131dd565b5b601f19601f8301169050602081019050919050565b600067ffffffffffffffff821115612edb57612eda6131dd565b5b601f19601f8301169050602081019050919050565b600081519050919050565b600081519050919050565b600082825260208201905092915050565b600082825260208201905092915050565b600081905092915050565b6000612f3e82613058565b9150612f4983613058565b9250827fffffffffffffffffffffffffffffffffffffffffffffffffffffffffffffffff03821115612f7e57612f7d613150565b5b828201905092915050565b6000612f9482613058565b9150612f9f83613058565b925082612faf57612fae61317f565b5b828204905092915050565b6000612fc582613058565b9150612fd083613058565b925082821015612fe357612fe2613150565b5b828203905092915050565b6000612ff982613038565b9050919050565b60008115159050919050565b60007fffffffff0000000000000000000000000000000000000000000000000000000082169050919050565b600073ffffffffffffffffffffffffffffffffffffffff82169050919050565b6000819050919050565b82818337600083830152505050565b60005b8381101561308f578082015181840152602081019050613074565b8381111561309e576000848401525b50505050565b600060028204905060018216806130bc57607f821691505b602082108114156130d0576130cf6131ae565b5b50919050565b60006130e182613058565b91507fffffffffffffffffffffffffffffffffffffffffffffffffffffffffffffffff82141561311457613113613150565b5b600182019050919050565b600061312a82613058565b915061313583613058565b9250826131455761314461317f565b5b828206905092915050565b7f4e487b7100000000000000000000000000000000000000000000000000000000600052601160045260246000fd5b7f4e487b7100000000000000000000000000000000000000000000000000000000600052601260045260246000fd5b7f4e487b7100000000000000000000000000000000000000000000000000000000600052602260045260246000fd5b7f4e487b7100000000000000000000000000000000000000000000000000000000600052604160045260246000fd5b6000601f19601f8301169050919050565b61322681612fee565b811461323157600080fd5b50565b61323d81613000565b811461324857600080fd5b50565b6132548161300c565b811461325f57600080fd5b50565b61326b81613058565b811461327657600080fd5b5056fea26469706673582212204d40f8f96c85202dcef617f3f9391c906bc6a4695214d12a32c28c16ae09844564736f6c63430008000033",
  "linkReferences": {},
  "deployedLinkReferences": {}
}