{
  "_format": "hh-sol-artifact-1",
  "contractName": "TreasureNFT",
  "sourceName": "contracts/TreasureNFT.sol",
  "abi": [
    {
      "inputs": [],
      "stateMutability": "nonpayable",
      "type": "constructor"
    },
    {
      "anonymous": false,
      "inputs": [
        {
          "indexed": true,
          "internalType": "address",
          "name": "owner",
          "type": "address"
        },
        {
          "indexed": true,
          "internalType": "address",
          "name": "approved",
          "type": "address"
        },
        {
          "indexed": true,
          "internalType": "uint256",
          "name": "tokenId",
          "type": "uint256"
        }
      ],
      "name": "Approval",
      "type": "event"
    },
    {
      "anonymous": false,
      "inputs": [
        {
          "indexed": true,
          "internalType": "address",
          "name": "owner",
          "type": "address"
        },
        {
          "indexed": true,
          "internalType": "address",
          "name": "operator",
          "type": "address"
        },
        {
          "indexed": false,
          "internalType": "bool",
          "name": "approved",
          "type": "bool"
        }
      ],
      "name": "ApprovalForAll",
      "type": "event"
    },
    {
      "anonymous": false,
      "inputs": [
        {
          "indexed": true,
          "internalType": "address",
          "name": "from",
          "type": "address"
        },
        {
          "indexed": true,
          "internalType": "address",
          "name": "to",
          "type": "address"
        },
        {
          "indexed": true,
          "internalType": "uint256",
          "name": "tokenId",
          "type": "uint256"
        }
      ],
      "name": "Transfer",
      "type": "event"
    },
    {
      "inputs": [
        {
          "internalType": "address",
          "name": "to",
          "type": "address"
        },
        {
          "internalType": "uint256",
          "name": "tokenId",
          "type": "uint256"
        }
      ],
      "name": "approve",
      "outputs": [],
      "stateMutability": "nonpayable",
      "type": "function"
    },
    {
      "inputs": [
        {
          "internalType": "address",
          "name": "owner",
          "type": "address"
        }
      ],
      "name": "balanceOf",
      "outputs": [
        {
          "internalType": "uint256",
          "name": "",
          "type": "uint256"
        }
      ],
      "stateMutability": "view",
      "type": "function"
    },
    {
      "inputs": [
        {
          "internalType": "uint256",
          "name": "",
          "type": "uint256"
        }
      ],
      "name": "creator",
      "outputs": [
        {
          "internalType": "address",
          "name": "",
          "type": "address"
        }
      ],
      "stateMutability": "view",
      "type": "function"
    },
    {
      "inputs": [
        {
          "internalType": "uint256",
          "name": "tokenId",
          "type": "uint256"
        }
      ],
      "name": "getApproved",
      "outputs": [
        {
          "internalType": "address",
          "name": "",
          "type": "address"
        }
      ],
      "stateMutability": "view",
      "type": "function"
    },
    {
      "inputs": [
        {
          "internalType": "address",
          "name": "owner",
          "type": "address"
        },
        {
          "internalType": "address",
          "name": "operator",
          "type": "address"
        }
      ],
      "name": "isApprovedForAll",
      "outputs": [
        {
          "internalType": "bool",
          "name": "",
          "type": "bool"
        }
      ],
      "stateMutability": "view",
      "type": "function"
    },
    {
      "inputs": [
        {
          "internalType": "address",
          "name": "_creator",
          "type": "address"
        },
        {
          "internalType": "string",
          "name": "tokenUri",
          "type": "string"
        }
      ],
      "name": "mint",
      "outputs": [
        {
          "internalType": "uint256",
          "name": "tokenId",
          "type": "uint256"
        }
      ],
      "stateMutability": "nonpayable",
      "type": "function"
    },
    {
      "inputs": [],
      "name": "name",
      "outputs": [
        {
          "internalType": "string",
          "name": "",
          "type": "string"
        }
      ],
      "stateMutability": "view",
      "type": "function"
    },
    {
      "inputs": [
        {
          "internalType": "uint256",
          "name": "tokenId",
          "type": "uint256"
        }
      ],
      "name": "ownerOf",
      "outputs": [
        {
          "internalType": "address",
          "name": "",
          "type": "address"
        }
      ],
      "stateMutability": "view",
      "type": "function"
    },
    {
      "inputs": [
        {
          "internalType": "address",
          "name": "from",
          "type": "address"
        },
        {
          "internalType": "address",
          "name": "to",
          "type": "address"
        },
        {
          "internalType": "uint256",
          "name": "tokenId",
          "type": "uint256"
        }
      ],
      "name": "safeTransferFrom",
      "outputs": [],
      "stateMutability": "nonpayable",
      "type": "function"
    },
    {
      "inputs": [
        {
          "internalType": "address",
          "name": "from",
          "type": "address"
        },
        {
          "internalType": "address",
          "name": "to",
          "type": "address"
        },
        {
          "internalType": "uint256",
          "name": "tokenId",
          "type": "uint256"
        },
        {
          "internalType": "bytes",
          "name": "_data",
          "type": "bytes"
        }
      ],
      "name": "safeTransferFrom",
      "outputs": [],
      "stateMutability": "nonpayable",
      "type": "function"
    },
    {
      "inputs": [
        {
          "internalType": "address",
          "name": "operator",
          "type": "address"
        },
        {
          "internalType": "bool",
          "name": "approved",
          "type": "bool"
        }
      ],
      "name": "setApprovalForAll",
      "outputs": [],
      "stateMutability": "nonpayable",
      "type": "function"
    },
    {
      "inputs": [
        {
          "internalType": "bytes4",
          "name": "interfaceId",
          "type": "bytes4"
        }
      ],
      "name": "supportsInterface",
      "outputs": [
        {
          "internalType": "bool",
          "name": "",
          "type": "bool"
        }
      ],
      "stateMutability": "view",
      "type": "function"
    },
    {
      "inputs": [],
      "name": "symbol",
      "outputs": [
        {
          "internalType": "string",
          "name": "",
          "type": "string"
        }
      ],
      "stateMutability": "view",
      "type": "function"
    },
    {
      "inputs": [
        {
          "internalType": "uint256",
          "name": "index",
          "type": "uint256"
        }
      ],
      "name": "tokenByIndex",
      "outputs": [
        {
          "internalType": "uint256",
          "name": "",
          "type": "uint256"
        }
      ],
      "stateMutability": "view",
      "type": "function"
    },
    {
      "inputs": [
        {
          "internalType": "address",
          "name": "owner",
          "type": "address"
        },
        {
          "internalType": "uint256",
          "name": "index",
          "type": "uint256"
        }
      ],
      "name": "tokenOfOwnerByIndex",
      "outputs": [
        {
          "internalType": "uint256",
          "name": "",
          "type": "uint256"
        }
      ],
      "stateMutability": "view",
      "type": "function"
    },
    {
      "inputs": [
        {
          "internalType": "uint256",
          "name": "tokenId",
          "type": "uint256"
        }
      ],
      "name": "tokenURI",
      "outputs": [
        {
          "internalType": "string",
          "name": "",
          "type": "string"
        }
      ],
      "stateMutability": "view",
      "type": "function"
    },
    {
      "inputs": [],
      "name": "totalSupply",
      "outputs": [
        {
          "internalType": "uint256",
          "name": "",
          "type": "uint256"
        }
      ],
      "stateMutability": "view",
      "type": "function"
    },
    {
      "inputs": [
        {
          "internalType": "address",
          "name": "from",
          "type": "address"
        },
        {
          "internalType": "address",
          "name": "to",
          "type": "address"
        },
        {
          "internalType": "uint256",
          "name": "tokenId",
          "type": "uint256"
        }
      ],
      "name": "transferFrom",
      "outputs": [],
      "stateMutability": "nonpayable",
      "type": "function"
    }
  ],
  "bytecode": "0x60806040523480156200001157600080fd5b506040518060400160405280600881526020017f54726561737572650000000000000000000000000000000000000000000000008152506040518060400160405280600381526020017f5452530000000000000000000000000000000000000000000000000000000000815250816000908051906020019062000096929190620000b8565b508060019080519060200190620000af929190620000b8565b505050620001cd565b828054620000c69062000168565b90600052602060002090601f016020900481019282620000ea576000855562000136565b82601f106200010557805160ff191683800117855562000136565b8280016001018555821562000136579182015b828111156200013557825182559160200191906001019062000118565b5b50905062000145919062000149565b5090565b5b80821115620001645760008160009055506001016200014a565b5090565b600060028204905060018216806200018157607f821691505b602082108114156200019857620001976200019e565b5b50919050565b7f4e487b7100000000000000000000000000000000000000000000000000000000600052602260045260246000fd5b61336f80620001dd6000396000f3fe608060405234801561001057600080fd5b50600436106101165760003560e01c8063510b5158116100a2578063a22cb46511610071578063a22cb46514610319578063b88d4fde14610335578063c87b56dd14610351578063d0def52114610381578063e985e9c5146103b157610116565b8063510b51581461026b5780636352211e1461029b57806370a08231146102cb57806395d89b41146102fb57610116565b806318160ddd116100e957806318160ddd146101b557806323b872dd146101d35780632f745c59146101ef57806342842e0e1461021f5780634f6ccce71461023b57610116565b806301ffc9a71461011b57806306fdde031461014b578063081812fc14610169578063095ea7b314610199575b600080fd5b610135600480360381019061013091906123f7565b6103e1565b6040516101429190612c87565b60405180910390f35b6101536103f3565b6040516101609190612ca2565b60405180910390f35b610183600480360381019061017e9190612449565b610485565b6040516101909190612c20565b60405180910390f35b6101b360048036038101906101ae91906123bb565b61050a565b005b6101bd610622565b6040516101ca9190612f04565b60405180910390f35b6101ed60048036038101906101e89190612261565b61062f565b005b610209600480360381019061020491906123bb565b61068f565b6040516102169190612f04565b60405180910390f35b61023960048036038101906102349190612261565b610734565b005b61025560048036038101906102509190612449565b610754565b6040516102629190612f04565b60405180910390f35b61028560048036038101906102809190612449565b6107eb565b6040516102929190612c20565b60405180910390f35b6102b560048036038101906102b09190612449565b61081e565b6040516102c29190612c20565b60405180910390f35b6102e560048036038101906102e091906121fc565b6108d0565b6040516102f29190612f04565b60405180910390f35b610303610988565b6040516103109190612ca2565b60405180910390f35b610333600480360381019061032e919061232b565b610a1a565b005b61034f600480360381019061034a91906122b0565b610a30565b005b61036b60048036038101906103669190612449565b610a92565b6040516103789190612ca2565b60405180910390f35b61039b60048036038101906103969190612367565b610aa4565b6040516103a89190612f04565b60405180910390f35b6103cb60048036038101906103c69190612225565b610b28565b6040516103d89190612c87565b60405180910390f35b60006103ec82610bbc565b9050919050565b60606000805461040290613164565b80601f016020809104026020016040519081016040528092919081815260200182805461042e90613164565b801561047b5780601f106104505761010080835404028352916020019161047b565b820191906000526020600020905b81548152906001019060200180831161045e57829003601f168201915b5050505050905090565b600061049082610c36565b6104cf576040517f08c379a00000000000000000000000000000000000000000000000000000000081526004016104c690612e44565b60405180910390fd5b6004600083815260200190815260200160002060009054906101000a900473ffffffffffffffffffffffffffffffffffffffff169050919050565b60006105158261081e565b90508073ffffffffffffffffffffffffffffffffffffffff168373ffffffffffffffffffffffffffffffffffffffff161415610586576040517f08c379a000000000000000000000000000000000000000000000000000000000815260040161057d90612ea4565b60405180910390fd5b8073ffffffffffffffffffffffffffffffffffffffff166105a5610ca2565b73ffffffffffffffffffffffffffffffffffffffff1614806105d457506105d3816105ce610ca2565b610b28565b5b610613576040517f08c379a000000000000000000000000000000000000000000000000000000000815260040161060a90612d84565b60405180910390fd5b61061d8383610caa565b505050565b6000600880549050905090565b61064061063a610ca2565b82610d63565b61067f576040517f08c379a000000000000000000000000000000000000000000000000000000000815260040161067690612ec4565b60405180910390fd5b61068a838383610e41565b505050565b600061069a836108d0565b82106106db576040517f08c379a00000000000000000000000000000000000000000000000000000000081526004016106d290612cc4565b60405180910390fd5b600660008473ffffffffffffffffffffffffffffffffffffffff1673ffffffffffffffffffffffffffffffffffffffff168152602001908152602001600020600083815260200190815260200160002054905092915050565b61074f83838360405180602001604052806000815250610a30565b505050565b600061075e610622565b821061079f576040517f08c379a000000000000000000000000000000000000000000000000000000000815260040161079690612ee4565b60405180910390fd5b600882815481106107d9577f4e487b7100000000000000000000000000000000000000000000000000000000600052603260045260246000fd5b90600052602060002001549050919050565b600c6020528060005260406000206000915054906101000a900473ffffffffffffffffffffffffffffffffffffffff1681565b6000806002600084815260200190815260200160002060009054906101000a900473ffffffffffffffffffffffffffffffffffffffff169050600073ffffffffffffffffffffffffffffffffffffffff168173ffffffffffffffffffffffffffffffffffffffff1614156108c7576040517f08c379a00000000000000000000000000000000000000000000000000000000081526004016108be90612dc4565b60405180910390fd5b80915050919050565b60008073ffffffffffffffffffffffffffffffffffffffff168273ffffffffffffffffffffffffffffffffffffffff161415610941576040517f08c379a000000000000000000000000000000000000000000000000000000000815260040161093890612da4565b60405180910390fd5b600360008373ffffffffffffffffffffffffffffffffffffffff1673ffffffffffffffffffffffffffffffffffffffff168152602001908152602001600020549050919050565b60606001805461099790613164565b80601f01602080910402602001604051908101604052809291908181526020018280546109c390613164565b8015610a105780601f106109e557610100808354040283529160200191610a10565b820191906000526020600020905b8154815290600101906020018083116109f357829003601f168201915b5050505050905090565b610a2c610a25610ca2565b838361109d565b5050565b610a41610a3b610ca2565b83610d63565b610a80576040517f08c379a0000000000000000000000000000000000000000000000000000000008152600401610a7790612ec4565b60405180910390fd5b610a8c8484848461120a565b50505050565b6060610a9d82611266565b9050919050565b6000610ab0600b6113b8565b610aba600b6113ce565b9050610ac683826113dc565b610ad081836115aa565b82600c600083815260200190815260200160002060006101000a81548173ffffffffffffffffffffffffffffffffffffffff021916908373ffffffffffffffffffffffffffffffffffffffff16021790555092915050565b6000600560008473ffffffffffffffffffffffffffffffffffffffff1673ffffffffffffffffffffffffffffffffffffffff16815260200190815260200160002060008373ffffffffffffffffffffffffffffffffffffffff1673ffffffffffffffffffffffffffffffffffffffff16815260200190815260200160002060009054906101000a900460ff16905092915050565b60007f780e9d63000000000000000000000000000000000000000000000000000000007bffffffffffffffffffffffffffffffffffffffffffffffffffffffff1916827bffffffffffffffffffffffffffffffffffffffffffffffffffffffff19161480610c2f5750610c2e8261161e565b5b9050919050565b60008073ffffffffffffffffffffffffffffffffffffffff166002600084815260200190815260200160002060009054906101000a900473ffffffffffffffffffffffffffffffffffffffff1673ffffffffffffffffffffffffffffffffffffffff1614159050919050565b600033905090565b816004600083815260200190815260200160002060006101000a81548173ffffffffffffffffffffffffffffffffffffffff021916908373ffffffffffffffffffffffffffffffffffffffff160217905550808273ffffffffffffffffffffffffffffffffffffffff16610d1d8361081e565b73ffffffffffffffffffffffffffffffffffffffff167f8c5be1e5ebec7d5bd14f71427d1e84f3dd0314c0f7b2291e5b200ac8c7c3b92560405160405180910390a45050565b6000610d6e82610c36565b610dad576040517f08c379a0000000000000000000000000000000000000000000000000000000008152600401610da490612d64565b60405180910390fd5b6000610db88361081e565b90508073ffffffffffffffffffffffffffffffffffffffff168473ffffffffffffffffffffffffffffffffffffffff161480610e2757508373ffffffffffffffffffffffffffffffffffffffff16610e0f84610485565b73ffffffffffffffffffffffffffffffffffffffff16145b80610e385750610e378185610b28565b5b91505092915050565b8273ffffffffffffffffffffffffffffffffffffffff16610e618261081e565b73ffffffffffffffffffffffffffffffffffffffff1614610eb7576040517f08c379a0000000000000000000000000000000000000000000000000000000008152600401610eae90612e64565b60405180910390fd5b600073ffffffffffffffffffffffffffffffffffffffff168273ffffffffffffffffffffffffffffffffffffffff161415610f27576040517f08c379a0000000000000000000000000000000000000000000000000000000008152600401610f1e90612d24565b60405180910390fd5b610f32838383611700565b610f3d600082610caa565b6001600360008573ffffffffffffffffffffffffffffffffffffffff1673ffffffffffffffffffffffffffffffffffffffff1681526020019081526020016000206000828254610f8d919061307a565b925050819055506001600360008473ffffffffffffffffffffffffffffffffffffffff1673ffffffffffffffffffffffffffffffffffffffff1681526020019081526020016000206000828254610fe49190612ff3565b92505081905550816002600083815260200190815260200160002060006101000a81548173ffffffffffffffffffffffffffffffffffffffff021916908373ffffffffffffffffffffffffffffffffffffffff160217905550808273ffffffffffffffffffffffffffffffffffffffff168473ffffffffffffffffffffffffffffffffffffffff167fddf252ad1be2c89b69c2b068fc378daa952ba7f163c4a11628f55a4df523b3ef60405160405180910390a4505050565b8173ffffffffffffffffffffffffffffffffffffffff168373ffffffffffffffffffffffffffffffffffffffff16141561110c576040517f08c379a000000000000000000000000000000000000000000000000000000000815260040161110390612d44565b60405180910390fd5b80600560008573ffffffffffffffffffffffffffffffffffffffff1673ffffffffffffffffffffffffffffffffffffffff16815260200190815260200160002060008473ffffffffffffffffffffffffffffffffffffffff1673ffffffffffffffffffffffffffffffffffffffff16815260200190815260200160002060006101000a81548160ff0219169083151502179055508173ffffffffffffffffffffffffffffffffffffffff168373ffffffffffffffffffffffffffffffffffffffff167f17307eab39ab6107e8899845ad3d59bd9653f200f220920489ca2b5937696c31836040516111fd9190612c87565b60405180910390a3505050565b611215848484610e41565b61122184848484611710565b611260576040517f08c379a000000000000000000000000000000000000000000000000000000000815260040161125790612ce4565b60405180910390fd5b50505050565b606061127182610c36565b6112b0576040517f08c379a00000000000000000000000000000000000000000000000000000000081526004016112a790612e24565b60405180910390fd5b6000600a600084815260200190815260200160002080546112d090613164565b80601f01602080910402602001604051908101604052809291908181526020018280546112fc90613164565b80156113495780601f1061131e57610100808354040283529160200191611349565b820191906000526020600020905b81548152906001019060200180831161132c57829003601f168201915b50505050509050600061135a6118a7565b90506000815114156113705781925050506113b3565b6000825111156113a557808260405160200161138d929190612bfc565b604051602081830303815290604052925050506113b3565b6113ae846118be565b925050505b919050565b6001816000016000828254019250508190555050565b600081600001549050919050565b600073ffffffffffffffffffffffffffffffffffffffff168273ffffffffffffffffffffffffffffffffffffffff16141561144c576040517f08c379a000000000000000000000000000000000000000000000000000000000815260040161144390612e04565b60405180910390fd5b61145581610c36565b15611495576040517f08c379a000000000000000000000000000000000000000000000000000000000815260040161148c90612d04565b60405180910390fd5b6114a160008383611700565b6001600360008473ffffffffffffffffffffffffffffffffffffffff1673ffffffffffffffffffffffffffffffffffffffff16815260200190815260200160002060008282546114f19190612ff3565b92505081905550816002600083815260200190815260200160002060006101000a81548173ffffffffffffffffffffffffffffffffffffffff021916908373ffffffffffffffffffffffffffffffffffffffff160217905550808273ffffffffffffffffffffffffffffffffffffffff16600073ffffffffffffffffffffffffffffffffffffffff167fddf252ad1be2c89b69c2b068fc378daa952ba7f163c4a11628f55a4df523b3ef60405160405180910390a45050565b6115b382610c36565b6115f2576040517f08c379a00000000000000000000000000000000000000000000000000000000081526004016115e990612de4565b60405180910390fd5b80600a60008481526020019081526020016000209080519060200190611619929190612020565b505050565b60007f80ac58cd000000000000000000000000000000000000000000000000000000007bffffffffffffffffffffffffffffffffffffffffffffffffffffffff1916827bffffffffffffffffffffffffffffffffffffffffffffffffffffffff191614806116e957507f5b5e139f000000000000000000000000000000000000000000000000000000007bffffffffffffffffffffffffffffffffffffffffffffffffffffffff1916827bffffffffffffffffffffffffffffffffffffffffffffffffffffffff1916145b806116f957506116f882611965565b5b9050919050565b61170b8383836119cf565b505050565b60006117318473ffffffffffffffffffffffffffffffffffffffff16611ae3565b1561189a578373ffffffffffffffffffffffffffffffffffffffff1663150b7a0261175a610ca2565b8786866040518563ffffffff1660e01b815260040161177c9493929190612c3b565b602060405180830381600087803b15801561179657600080fd5b505af19250505080156117c757506040513d601f19601f820116820180604052508101906117c49190612420565b60015b61184a573d80600081146117f7576040519150601f19603f3d011682016040523d82523d6000602084013e6117fc565b606091505b50600081511415611842576040517f08c379a000000000000000000000000000000000000000000000000000000000815260040161183990612ce4565b60405180910390fd5b805181602001fd5b63150b7a0260e01b7bffffffffffffffffffffffffffffffffffffffffffffffffffffffff1916817bffffffffffffffffffffffffffffffffffffffffffffffffffffffff19161491505061189f565b600190505b949350505050565b606060405180602001604052806000815250905090565b60606118c982610c36565b611908576040517f08c379a00000000000000000000000000000000000000000000000000000000081526004016118ff90612e84565b60405180910390fd5b60006119126118a7565b90506000815111611932576040518060200160405280600081525061195d565b8061193c84611af6565b60405160200161194d929190612bfc565b6040516020818303038152906040525b915050919050565b60007f01ffc9a7000000000000000000000000000000000000000000000000000000007bffffffffffffffffffffffffffffffffffffffffffffffffffffffff1916827bffffffffffffffffffffffffffffffffffffffffffffffffffffffff1916149050919050565b6119da838383611ca3565b600073ffffffffffffffffffffffffffffffffffffffff168373ffffffffffffffffffffffffffffffffffffffff161415611a1d57611a1881611ca8565b611a5c565b8173ffffffffffffffffffffffffffffffffffffffff168373ffffffffffffffffffffffffffffffffffffffff1614611a5b57611a5a8382611cf1565b5b5b600073ffffffffffffffffffffffffffffffffffffffff168273ffffffffffffffffffffffffffffffffffffffff161415611a9f57611a9a81611e5e565b611ade565b8273ffffffffffffffffffffffffffffffffffffffff168273ffffffffffffffffffffffffffffffffffffffff1614611add57611adc8282611fa1565b5b5b505050565b600080823b905060008111915050919050565b60606000821415611b3e576040518060400160405280600181526020017f30000000000000000000000000000000000000000000000000000000000000008152509050611c9e565b600082905060005b60008214611b70578080611b5990613196565b915050600a82611b699190613049565b9150611b46565b60008167ffffffffffffffff811115611bb2577f4e487b7100000000000000000000000000000000000000000000000000000000600052604160045260246000fd5b6040519080825280601f01601f191660200182016040528015611be45781602001600182028036833780820191505090505b5090505b60008514611c9757600182611bfd919061307a565b9150600a85611c0c91906131df565b6030611c189190612ff3565b60f81b818381518110611c54577f4e487b7100000000000000000000000000000000000000000000000000000000600052603260045260246000fd5b60200101907effffffffffffffffffffffffffffffffffffffffffffffffffffffffffffff1916908160001a905350600a85611c909190613049565b9450611be8565b8093505050505b919050565b505050565b6008805490506009600083815260200190815260200160002081905550600881908060018154018082558091505060019003906000526020600020016000909190919091505550565b60006001611cfe846108d0565b611d08919061307a565b9050600060076000848152602001908152602001600020549050818114611ded576000600660008673ffffffffffffffffffffffffffffffffffffffff1673ffffffffffffffffffffffffffffffffffffffff168152602001908152602001600020600084815260200190815260200160002054905080600660008773ffffffffffffffffffffffffffffffffffffffff1673ffffffffffffffffffffffffffffffffffffffff168152602001908152602001600020600084815260200190815260200160002081905550816007600083815260200190815260200160002081905550505b6007600084815260200190815260200160002060009055600660008573ffffffffffffffffffffffffffffffffffffffff1673ffffffffffffffffffffffffffffffffffffffff16815260200190815260200160002060008381526020019081526020016000206000905550505050565b60006001600880549050611e72919061307a565b9050600060096000848152602001908152602001600020549050600060088381548110611ec8577f4e487b7100000000000000000000000000000000000000000000000000000000600052603260045260246000fd5b906000526020600020015490508060088381548110611f10577f4e487b7100000000000000000000000000000000000000000000000000000000600052603260045260246000fd5b906000526020600020018190555081600960008381526020019081526020016000208190555060096000858152602001908152602001600020600090556008805480611f85577f4e487b7100000000000000000000000000000000000000000000000000000000600052603160045260246000fd5b6001900381819060005260206000200160009055905550505050565b6000611fac836108d0565b905081600660008573ffffffffffffffffffffffffffffffffffffffff1673ffffffffffffffffffffffffffffffffffffffff168152602001908152602001600020600083815260200190815260200160002081905550806007600084815260200190815260200160002081905550505050565b82805461202c90613164565b90600052602060002090601f01602090048101928261204e5760008555612095565b82601f1061206757805160ff1916838001178555612095565b82800160010185558215612095579182015b82811115612094578251825591602001919060010190612079565b5b5090506120a291906120a6565b5090565b5b808211156120bf5760008160009055506001016120a7565b5090565b60006120d66120d184612f50565b612f1f565b9050828152602081018484840111156120ee57600080fd5b6120f9848285613122565b509392505050565b600061211461210f84612f80565b612f1f565b90508281526020810184848401111561212c57600080fd5b612137848285613122565b509392505050565b60008135905061214e816132dd565b92915050565b600081359050612163816132f4565b92915050565b6000813590506121788161330b565b92915050565b60008151905061218d8161330b565b92915050565b600082601f8301126121a457600080fd5b81356121b48482602086016120c3565b91505092915050565b600082601f8301126121ce57600080fd5b81356121de848260208601612101565b91505092915050565b6000813590506121f681613322565b92915050565b60006020828403121561220e57600080fd5b600061221c8482850161213f565b91505092915050565b6000806040838503121561223857600080fd5b60006122468582860161213f565b92505060206122578582860161213f565b9150509250929050565b60008060006060848603121561227657600080fd5b60006122848682870161213f565b93505060206122958682870161213f565b92505060406122a6868287016121e7565b9150509250925092565b600080600080608085870312156122c657600080fd5b60006122d48782880161213f565b94505060206122e58782880161213f565b93505060406122f6878288016121e7565b925050606085013567ffffffffffffffff81111561231357600080fd5b61231f87828801612193565b91505092959194509250565b6000806040838503121561233e57600080fd5b600061234c8582860161213f565b925050602061235d85828601612154565b9150509250929050565b6000806040838503121561237a57600080fd5b60006123888582860161213f565b925050602083013567ffffffffffffffff8111156123a557600080fd5b6123b1858286016121bd565b9150509250929050565b600080604083850312156123ce57600080fd5b60006123dc8582860161213f565b92505060206123ed858286016121e7565b9150509250929050565b60006020828403121561240957600080fd5b600061241784828501612169565b91505092915050565b60006020828403121561243257600080fd5b60006124408482850161217e565b91505092915050565b60006020828403121561245b57600080fd5b6000612469848285016121e7565b91505092915050565b61247b816130ae565b82525050565b61248a816130c0565b82525050565b600061249b82612fb0565b6124a58185612fc6565b93506124b5818560208601613131565b6124be816132cc565b840191505092915050565b60006124d482612fbb565b6124de8185612fd7565b93506124ee818560208601613131565b6124f7816132cc565b840191505092915050565b600061250d82612fbb565b6125178185612fe8565b9350612527818560208601613131565b80840191505092915050565b6000612540602b83612fd7565b91507f455243373231456e756d657261626c653a206f776e657220696e646578206f7560008301527f74206f6620626f756e64730000000000000000000000000000000000000000006020830152604082019050919050565b60006125a6603283612fd7565b91507f4552433732313a207472616e7366657220746f206e6f6e20455243373231526560008301527f63656976657220696d706c656d656e74657200000000000000000000000000006020830152604082019050919050565b600061260c601c83612fd7565b91507f4552433732313a20746f6b656e20616c7265616479206d696e746564000000006000830152602082019050919050565b600061264c602483612fd7565b91507f4552433732313a207472616e7366657220746f20746865207a65726f2061646460008301527f72657373000000000000000000000000000000000000000000000000000000006020830152604082019050919050565b60006126b2601983612fd7565b91507f4552433732313a20617070726f766520746f2063616c6c6572000000000000006000830152602082019050919050565b60006126f2602c83612fd7565b91507f4552433732313a206f70657261746f7220717565727920666f72206e6f6e657860008301527f697374656e7420746f6b656e00000000000000000000000000000000000000006020830152604082019050919050565b6000612758603883612fd7565b91507f4552433732313a20617070726f76652063616c6c6572206973206e6f74206f7760008301527f6e6572206e6f7220617070726f76656420666f7220616c6c00000000000000006020830152604082019050919050565b60006127be602a83612fd7565b91507f4552433732313a2062616c616e636520717565727920666f7220746865207a6560008301527f726f2061646472657373000000000000000000000000000000000000000000006020830152604082019050919050565b6000612824602983612fd7565b91507f4552433732313a206f776e657220717565727920666f72206e6f6e657869737460008301527f656e7420746f6b656e00000000000000000000000000000000000000000000006020830152604082019050919050565b600061288a602e83612fd7565b91507f45524337323155524953746f726167653a2055524920736574206f66206e6f6e60008301527f6578697374656e7420746f6b656e0000000000000000000000000000000000006020830152604082019050919050565b60006128f0602083612fd7565b91507f4552433732313a206d696e7420746f20746865207a65726f20616464726573736000830152602082019050919050565b6000612930603183612fd7565b91507f45524337323155524953746f726167653a2055524920717565727920666f722060008301527f6e6f6e6578697374656e7420746f6b656e0000000000000000000000000000006020830152604082019050919050565b6000612996602c83612fd7565b91507f4552433732313a20617070726f76656420717565727920666f72206e6f6e657860008301527f697374656e7420746f6b656e00000000000000000000000000000000000000006020830152604082019050919050565b60006129fc602983612fd7565b91507f4552433732313a207472616e73666572206f6620746f6b656e2074686174206960008301527f73206e6f74206f776e00000000000000000000000000000000000000000000006020830152604082019050919050565b6000612a62602f83612fd7565b91507f4552433732314d657461646174613a2055524920717565727920666f72206e6f60008301527f6e6578697374656e7420746f6b656e00000000000000000000000000000000006020830152604082019050919050565b6000612ac8602183612fd7565b91507f4552433732313a20617070726f76616c20746f2063757272656e74206f776e6560008301527f72000000000000000000000000000000000000000000000000000000000000006020830152604082019050919050565b6000612b2e603183612fd7565b91507f4552433732313a207472616e736665722063616c6c6572206973206e6f74206f60008301527f776e6572206e6f7220617070726f7665640000000000000000000000000000006020830152604082019050919050565b6000612b94602c83612fd7565b91507f455243373231456e756d657261626c653a20676c6f62616c20696e646578206f60008301527f7574206f6620626f756e647300000000000000000000000000000000000000006020830152604082019050919050565b612bf681613118565b82525050565b6000612c088285612502565b9150612c148284612502565b91508190509392505050565b6000602082019050612c356000830184612472565b92915050565b6000608082019050612c506000830187612472565b612c5d6020830186612472565b612c6a6040830185612bed565b8181036060830152612c7c8184612490565b905095945050505050565b6000602082019050612c9c6000830184612481565b92915050565b60006020820190508181036000830152612cbc81846124c9565b905092915050565b60006020820190508181036000830152612cdd81612533565b9050919050565b60006020820190508181036000830152612cfd81612599565b9050919050565b60006020820190508181036000830152612d1d816125ff565b9050919050565b60006020820190508181036000830152612d3d8161263f565b9050919050565b60006020820190508181036000830152612d5d816126a5565b9050919050565b60006020820190508181036000830152612d7d816126e5565b9050919050565b60006020820190508181036000830152612d9d8161274b565b9050919050565b60006020820190508181036000830152612dbd816127b1565b9050919050565b60006020820190508181036000830152612ddd81612817565b9050919050565b60006020820190508181036000830152612dfd8161287d565b9050919050565b60006020820190508181036000830152612e1d816128e3565b9050919050565b60006020820190508181036000830152612e3d81612923565b9050919050565b60006020820190508181036000830152612e5d81612989565b9050919050565b60006020820190508181036000830152612e7d816129ef565b9050919050565b60006020820190508181036000830152612e9d81612a55565b9050919050565b60006020820190508181036000830152612ebd81612abb565b9050919050565b60006020820190508181036000830152612edd81612b21565b9050919050565b60006020820190508181036000830152612efd81612b87565b9050919050565b6000602082019050612f196000830184612bed565b92915050565b6000604051905081810181811067ffffffffffffffff82111715612f4657612f4561329d565b5b8060405250919050565b600067ffffffffffffffff821115612f6b57612f6a61329d565b5b601f19601f8301169050602081019050919050565b600067ffffffffffffffff821115612f9b57612f9a61329d565b5b601f19601f8301169050602081019050919050565b600081519050919050565b600081519050919050565b600082825260208201905092915050565b600082825260208201905092915050565b600081905092915050565b6000612ffe82613118565b915061300983613118565b9250827fffffffffffffffffffffffffffffffffffffffffffffffffffffffffffffffff0382111561303e5761303d613210565b5b828201905092915050565b600061305482613118565b915061305f83613118565b92508261306f5761306e61323f565b5b828204905092915050565b600061308582613118565b915061309083613118565b9250828210156130a3576130a2613210565b5b828203905092915050565b60006130b9826130f8565b9050919050565b60008115159050919050565b60007fffffffff0000000000000000000000000000000000000000000000000000000082169050919050565b600073ffffffffffffffffffffffffffffffffffffffff82169050919050565b6000819050919050565b82818337600083830152505050565b60005b8381101561314f578082015181840152602081019050613134565b8381111561315e576000848401525b50505050565b6000600282049050600182168061317c57607f821691505b602082108114156131905761318f61326e565b5b50919050565b60006131a182613118565b91507fffffffffffffffffffffffffffffffffffffffffffffffffffffffffffffffff8214156131d4576131d3613210565b5b600182019050919050565b60006131ea82613118565b91506131f583613118565b9250826132055761320461323f565b5b828206905092915050565b7f4e487b7100000000000000000000000000000000000000000000000000000000600052601160045260246000fd5b7f4e487b7100000000000000000000000000000000000000000000000000000000600052601260045260246000fd5b7f4e487b7100000000000000000000000000000000000000000000000000000000600052602260045260246000fd5b7f4e487b7100000000000000000000000000000000000000000000000000000000600052604160045260246000fd5b6000601f19601f8301169050919050565b6132e6816130ae565b81146132f157600080fd5b50565b6132fd816130c0565b811461330857600080fd5b50565b613314816130cc565b811461331f57600080fd5b50565b61332b81613118565b811461333657600080fd5b5056fea2646970667358221220005585113b408db01d29211e8baff358aeb1875baddf172f0c3e3d8b502e0eab64736f6c63430008000033",
  "linkReferences": {},
  "deployedLinkReferences": {}
}