{
  "_format": "hh-sol-artifact-1",
  "contractName": "TreasureNFT",
  "sourceName": "contracts/TreasureNFT.sol",
  "abi": [
    {
      "inputs": [],
      "stateMutability": "nonpayable",
      "type": "constructor"
    },
    {
      "anonymous": false,
      "inputs": [
        {
          "indexed": true,
          "internalType": "address",
          "name": "owner",
          "type": "address"
        },
        {
          "indexed": true,
          "internalType": "address",
          "name": "approved",
          "type": "address"
        },
        {
          "indexed": true,
          "internalType": "uint256",
          "name": "tokenId",
          "type": "uint256"
        }
      ],
      "name": "Approval",
      "type": "event"
    },
    {
      "anonymous": false,
      "inputs": [
        {
          "indexed": true,
          "internalType": "address",
          "name": "owner",
          "type": "address"
        },
        {
          "indexed": true,
          "internalType": "address",
          "name": "operator",
          "type": "address"
        },
        {
          "indexed": false,
          "internalType": "bool",
          "name": "approved",
          "type": "bool"
        }
      ],
      "name": "ApprovalForAll",
      "type": "event"
    },
    {
      "anonymous": false,
      "inputs": [
        {
          "indexed": true,
          "internalType": "address",
          "name": "from",
          "type": "address"
        },
        {
          "indexed": true,
          "internalType": "address",
          "name": "to",
          "type": "address"
        },
        {
          "indexed": true,
          "internalType": "uint256",
          "name": "tokenId",
          "type": "uint256"
        }
      ],
      "name": "Transfer",
      "type": "event"
    },
    {
      "inputs": [
        {
          "internalType": "address",
          "name": "to",
          "type": "address"
        },
        {
          "internalType": "uint256",
          "name": "tokenId",
          "type": "uint256"
        }
      ],
      "name": "approve",
      "outputs": [],
      "stateMutability": "nonpayable",
      "type": "function"
    },
    {
      "inputs": [
        {
          "internalType": "address",
          "name": "owner",
          "type": "address"
        }
      ],
      "name": "balanceOf",
      "outputs": [
        {
          "internalType": "uint256",
          "name": "",
          "type": "uint256"
        }
      ],
      "stateMutability": "view",
      "type": "function"
    },
    {
      "inputs": [
        {
          "internalType": "uint256",
          "name": "tokenId",
          "type": "uint256"
        }
      ],
      "name": "getApproved",
      "outputs": [
        {
          "internalType": "address",
          "name": "",
          "type": "address"
        }
      ],
      "stateMutability": "view",
      "type": "function"
    },
    {
      "inputs": [
        {
          "internalType": "address",
          "name": "owner",
          "type": "address"
        },
        {
          "internalType": "address",
          "name": "operator",
          "type": "address"
        }
      ],
      "name": "isApprovedForAll",
      "outputs": [
        {
          "internalType": "bool",
          "name": "",
          "type": "bool"
        }
      ],
      "stateMutability": "view",
      "type": "function"
    },
    {
      "inputs": [
        {
          "internalType": "address",
          "name": "owner",
          "type": "address"
        },
        {
          "internalType": "string",
          "name": "tokenUri",
          "type": "string"
        }
      ],
      "name": "mintTresure",
      "outputs": [
        {
          "internalType": "uint256",
          "name": "",
          "type": "uint256"
        }
      ],
      "stateMutability": "nonpayable",
      "type": "function"
    },
    {
      "inputs": [],
      "name": "name",
      "outputs": [
        {
          "internalType": "string",
          "name": "",
          "type": "string"
        }
      ],
      "stateMutability": "view",
      "type": "function"
    },
    {
      "inputs": [
        {
          "internalType": "uint256",
          "name": "tokenId",
          "type": "uint256"
        }
      ],
      "name": "ownerOf",
      "outputs": [
        {
          "internalType": "address",
          "name": "",
          "type": "address"
        }
      ],
      "stateMutability": "view",
      "type": "function"
    },
    {
      "inputs": [
        {
          "internalType": "address",
          "name": "from",
          "type": "address"
        },
        {
          "internalType": "address",
          "name": "to",
          "type": "address"
        },
        {
          "internalType": "uint256",
          "name": "tokenId",
          "type": "uint256"
        }
      ],
      "name": "safeTransferFrom",
      "outputs": [],
      "stateMutability": "nonpayable",
      "type": "function"
    },
    {
      "inputs": [
        {
          "internalType": "address",
          "name": "from",
          "type": "address"
        },
        {
          "internalType": "address",
          "name": "to",
          "type": "address"
        },
        {
          "internalType": "uint256",
          "name": "tokenId",
          "type": "uint256"
        },
        {
          "internalType": "bytes",
          "name": "_data",
          "type": "bytes"
        }
      ],
      "name": "safeTransferFrom",
      "outputs": [],
      "stateMutability": "nonpayable",
      "type": "function"
    },
    {
      "inputs": [
        {
          "internalType": "address",
          "name": "operator",
          "type": "address"
        },
        {
          "internalType": "bool",
          "name": "approved",
          "type": "bool"
        }
      ],
      "name": "setApprovalForAll",
      "outputs": [],
      "stateMutability": "nonpayable",
      "type": "function"
    },
    {
      "inputs": [
        {
          "internalType": "bytes4",
          "name": "interfaceId",
          "type": "bytes4"
        }
      ],
      "name": "supportsInterface",
      "outputs": [
        {
          "internalType": "bool",
          "name": "",
          "type": "bool"
        }
      ],
      "stateMutability": "view",
      "type": "function"
    },
    {
      "inputs": [],
      "name": "symbol",
      "outputs": [
        {
          "internalType": "string",
          "name": "",
          "type": "string"
        }
      ],
      "stateMutability": "view",
      "type": "function"
    },
    {
      "inputs": [
        {
          "internalType": "uint256",
          "name": "index",
          "type": "uint256"
        }
      ],
      "name": "tokenByIndex",
      "outputs": [
        {
          "internalType": "uint256",
          "name": "",
          "type": "uint256"
        }
      ],
      "stateMutability": "view",
      "type": "function"
    },
    {
      "inputs": [
        {
          "internalType": "address",
          "name": "owner",
          "type": "address"
        },
        {
          "internalType": "uint256",
          "name": "index",
          "type": "uint256"
        }
      ],
      "name": "tokenOfOwnerByIndex",
      "outputs": [
        {
          "internalType": "uint256",
          "name": "",
          "type": "uint256"
        }
      ],
      "stateMutability": "view",
      "type": "function"
    },
    {
      "inputs": [
        {
          "internalType": "uint256",
          "name": "tokenId",
          "type": "uint256"
        }
      ],
      "name": "tokenURI",
      "outputs": [
        {
          "internalType": "string",
          "name": "",
          "type": "string"
        }
      ],
      "stateMutability": "view",
      "type": "function"
    },
    {
      "inputs": [],
      "name": "totalSupply",
      "outputs": [
        {
          "internalType": "uint256",
          "name": "",
          "type": "uint256"
        }
      ],
      "stateMutability": "view",
      "type": "function"
    },
    {
      "inputs": [
        {
          "internalType": "address",
          "name": "from",
          "type": "address"
        },
        {
          "internalType": "address",
          "name": "to",
          "type": "address"
        },
        {
          "internalType": "uint256",
          "name": "tokenId",
          "type": "uint256"
        }
      ],
      "name": "transferFrom",
      "outputs": [],
      "stateMutability": "nonpayable",
      "type": "function"
    }
  ],
  "bytecode": "0x60806040523480156200001157600080fd5b506040518060400160405280600881526020017f54726561737572650000000000000000000000000000000000000000000000008152506040518060400160405280600381526020017f5452530000000000000000000000000000000000000000000000000000000000815250816000908051906020019062000096929190620000b8565b508060019080519060200190620000af929190620000b8565b505050620001cd565b828054620000c69062000168565b90600052602060002090601f016020900481019282620000ea576000855562000136565b82601f106200010557805160ff191683800117855562000136565b8280016001018555821562000136579182015b828111156200013557825182559160200191906001019062000118565b5b50905062000145919062000149565b5090565b5b80821115620001645760008160009055506001016200014a565b5090565b600060028204905060018216806200018157607f821691505b602082108114156200019857620001976200019e565b5b50919050565b7f4e487b7100000000000000000000000000000000000000000000000000000000600052602260045260246000fd5b6132b580620001dd6000396000f3fe608060405234801561001057600080fd5b506004361061010b5760003560e01c806342842e0e116100a257806395d89b411161007157806395d89b41146102f0578063a22cb4651461030e578063b88d4fde1461032a578063c87b56dd14610346578063e985e9c5146103765761010b565b806342842e0e146102445780634f6ccce7146102605780636352211e1461029057806370a08231146102c05761010b565b806318160ddd116100de57806318160ddd146101aa5780631dc4fc62146101c857806323b872dd146101f85780632f745c59146102145761010b565b806301ffc9a71461011057806306fdde0314610140578063081812fc1461015e578063095ea7b31461018e575b600080fd5b61012a6004803603810190610125919061233d565b6103a6565b6040516101379190612bcd565b60405180910390f35b6101486103b8565b6040516101559190612be8565b60405180910390f35b6101786004803603810190610173919061238f565b61044a565b6040516101859190612b66565b60405180910390f35b6101a860048036038101906101a39190612301565b6104cf565b005b6101b26105e7565b6040516101bf9190612e4a565b60405180910390f35b6101e260048036038101906101dd91906122ad565b6105f4565b6040516101ef9190612e4a565b60405180910390f35b610212600480360381019061020d91906121a7565b61062c565b005b61022e60048036038101906102299190612301565b61068c565b60405161023b9190612e4a565b60405180910390f35b61025e600480360381019061025991906121a7565b610731565b005b61027a6004803603810190610275919061238f565b610751565b6040516102879190612e4a565b60405180910390f35b6102aa60048036038101906102a5919061238f565b6107e8565b6040516102b79190612b66565b60405180910390f35b6102da60048036038101906102d59190612142565b61089a565b6040516102e79190612e4a565b60405180910390f35b6102f8610952565b6040516103059190612be8565b60405180910390f35b61032860048036038101906103239190612271565b6109e4565b005b610344600480360381019061033f91906121f6565b6109fa565b005b610360600480360381019061035b919061238f565b610a5c565b60405161036d9190612be8565b60405180910390f35b610390600480360381019061038b919061216b565b610a6e565b60405161039d9190612bcd565b60405180910390f35b60006103b182610b02565b9050919050565b6060600080546103c7906130aa565b80601f01602080910402602001604051908101604052809291908181526020018280546103f3906130aa565b80156104405780601f1061041557610100808354040283529160200191610440565b820191906000526020600020905b81548152906001019060200180831161042357829003601f168201915b5050505050905090565b600061045582610b7c565b610494576040517f08c379a000000000000000000000000000000000000000000000000000000000815260040161048b90612d8a565b60405180910390fd5b6004600083815260200190815260200160002060009054906101000a900473ffffffffffffffffffffffffffffffffffffffff169050919050565b60006104da826107e8565b90508073ffffffffffffffffffffffffffffffffffffffff168373ffffffffffffffffffffffffffffffffffffffff16141561054b576040517f08c379a000000000000000000000000000000000000000000000000000000000815260040161054290612dea565b60405180910390fd5b8073ffffffffffffffffffffffffffffffffffffffff1661056a610be8565b73ffffffffffffffffffffffffffffffffffffffff161480610599575061059881610593610be8565b610a6e565b5b6105d8576040517f08c379a00000000000000000000000000000000000000000000000000000000081526004016105cf90612cca565b60405180910390fd5b6105e28383610bf0565b505050565b6000600880549050905090565b6000610600600b610ca9565b600061060c600b610cbf565b90506106188482610ccd565b6106228184610e9b565b8091505092915050565b61063d610637610be8565b82610f0f565b61067c576040517f08c379a000000000000000000000000000000000000000000000000000000000815260040161067390612e0a565b60405180910390fd5b610687838383610fed565b505050565b60006106978361089a565b82106106d8576040517f08c379a00000000000000000000000000000000000000000000000000000000081526004016106cf90612c0a565b60405180910390fd5b600660008473ffffffffffffffffffffffffffffffffffffffff1673ffffffffffffffffffffffffffffffffffffffff168152602001908152602001600020600083815260200190815260200160002054905092915050565b61074c838383604051806020016040528060008152506109fa565b505050565b600061075b6105e7565b821061079c576040517f08c379a000000000000000000000000000000000000000000000000000000000815260040161079390612e2a565b60405180910390fd5b600882815481106107d6577f4e487b7100000000000000000000000000000000000000000000000000000000600052603260045260246000fd5b90600052602060002001549050919050565b6000806002600084815260200190815260200160002060009054906101000a900473ffffffffffffffffffffffffffffffffffffffff169050600073ffffffffffffffffffffffffffffffffffffffff168173ffffffffffffffffffffffffffffffffffffffff161415610891576040517f08c379a000000000000000000000000000000000000000000000000000000000815260040161088890612d0a565b60405180910390fd5b80915050919050565b60008073ffffffffffffffffffffffffffffffffffffffff168273ffffffffffffffffffffffffffffffffffffffff16141561090b576040517f08c379a000000000000000000000000000000000000000000000000000000000815260040161090290612cea565b60405180910390fd5b600360008373ffffffffffffffffffffffffffffffffffffffff1673ffffffffffffffffffffffffffffffffffffffff168152602001908152602001600020549050919050565b606060018054610961906130aa565b80601f016020809104026020016040519081016040528092919081815260200182805461098d906130aa565b80156109da5780601f106109af576101008083540402835291602001916109da565b820191906000526020600020905b8154815290600101906020018083116109bd57829003601f168201915b5050505050905090565b6109f66109ef610be8565b8383611249565b5050565b610a0b610a05610be8565b83610f0f565b610a4a576040517f08c379a0000000000000000000000000000000000000000000000000000000008152600401610a4190612e0a565b60405180910390fd5b610a56848484846113b6565b50505050565b6060610a6782611412565b9050919050565b6000600560008473ffffffffffffffffffffffffffffffffffffffff1673ffffffffffffffffffffffffffffffffffffffff16815260200190815260200160002060008373ffffffffffffffffffffffffffffffffffffffff1673ffffffffffffffffffffffffffffffffffffffff16815260200190815260200160002060009054906101000a900460ff16905092915050565b60007f780e9d63000000000000000000000000000000000000000000000000000000007bffffffffffffffffffffffffffffffffffffffffffffffffffffffff1916827bffffffffffffffffffffffffffffffffffffffffffffffffffffffff19161480610b755750610b7482611564565b5b9050919050565b60008073ffffffffffffffffffffffffffffffffffffffff166002600084815260200190815260200160002060009054906101000a900473ffffffffffffffffffffffffffffffffffffffff1673ffffffffffffffffffffffffffffffffffffffff1614159050919050565b600033905090565b816004600083815260200190815260200160002060006101000a81548173ffffffffffffffffffffffffffffffffffffffff021916908373ffffffffffffffffffffffffffffffffffffffff160217905550808273ffffffffffffffffffffffffffffffffffffffff16610c63836107e8565b73ffffffffffffffffffffffffffffffffffffffff167f8c5be1e5ebec7d5bd14f71427d1e84f3dd0314c0f7b2291e5b200ac8c7c3b92560405160405180910390a45050565b6001816000016000828254019250508190555050565b600081600001549050919050565b600073ffffffffffffffffffffffffffffffffffffffff168273ffffffffffffffffffffffffffffffffffffffff161415610d3d576040517f08c379a0000000000000000000000000000000000000000000000000000000008152600401610d3490612d4a565b60405180910390fd5b610d4681610b7c565b15610d86576040517f08c379a0000000000000000000000000000000000000000000000000000000008152600401610d7d90612c4a565b60405180910390fd5b610d9260008383611646565b6001600360008473ffffffffffffffffffffffffffffffffffffffff1673ffffffffffffffffffffffffffffffffffffffff1681526020019081526020016000206000828254610de29190612f39565b92505081905550816002600083815260200190815260200160002060006101000a81548173ffffffffffffffffffffffffffffffffffffffff021916908373ffffffffffffffffffffffffffffffffffffffff160217905550808273ffffffffffffffffffffffffffffffffffffffff16600073ffffffffffffffffffffffffffffffffffffffff167fddf252ad1be2c89b69c2b068fc378daa952ba7f163c4a11628f55a4df523b3ef60405160405180910390a45050565b610ea482610b7c565b610ee3576040517f08c379a0000000000000000000000000000000000000000000000000000000008152600401610eda90612d2a565b60405180910390fd5b80600a60008481526020019081526020016000209080519060200190610f0a929190611f66565b505050565b6000610f1a82610b7c565b610f59576040517f08c379a0000000000000000000000000000000000000000000000000000000008152600401610f5090612caa565b60405180910390fd5b6000610f64836107e8565b90508073ffffffffffffffffffffffffffffffffffffffff168473ffffffffffffffffffffffffffffffffffffffff161480610fd357508373ffffffffffffffffffffffffffffffffffffffff16610fbb8461044a565b73ffffffffffffffffffffffffffffffffffffffff16145b80610fe45750610fe38185610a6e565b5b91505092915050565b8273ffffffffffffffffffffffffffffffffffffffff1661100d826107e8565b73ffffffffffffffffffffffffffffffffffffffff1614611063576040517f08c379a000000000000000000000000000000000000000000000000000000000815260040161105a90612daa565b60405180910390fd5b600073ffffffffffffffffffffffffffffffffffffffff168273ffffffffffffffffffffffffffffffffffffffff1614156110d3576040517f08c379a00000000000000000000000000000000000000000000000000000000081526004016110ca90612c6a565b60405180910390fd5b6110de838383611646565b6110e9600082610bf0565b6001600360008573ffffffffffffffffffffffffffffffffffffffff1673ffffffffffffffffffffffffffffffffffffffff16815260200190815260200160002060008282546111399190612fc0565b925050819055506001600360008473ffffffffffffffffffffffffffffffffffffffff1673ffffffffffffffffffffffffffffffffffffffff16815260200190815260200160002060008282546111909190612f39565b92505081905550816002600083815260200190815260200160002060006101000a81548173ffffffffffffffffffffffffffffffffffffffff021916908373ffffffffffffffffffffffffffffffffffffffff160217905550808273ffffffffffffffffffffffffffffffffffffffff168473ffffffffffffffffffffffffffffffffffffffff167fddf252ad1be2c89b69c2b068fc378daa952ba7f163c4a11628f55a4df523b3ef60405160405180910390a4505050565b8173ffffffffffffffffffffffffffffffffffffffff168373ffffffffffffffffffffffffffffffffffffffff1614156112b8576040517f08c379a00000000000000000000000000000000000000000000000000000000081526004016112af90612c8a565b60405180910390fd5b80600560008573ffffffffffffffffffffffffffffffffffffffff1673ffffffffffffffffffffffffffffffffffffffff16815260200190815260200160002060008473ffffffffffffffffffffffffffffffffffffffff1673ffffffffffffffffffffffffffffffffffffffff16815260200190815260200160002060006101000a81548160ff0219169083151502179055508173ffffffffffffffffffffffffffffffffffffffff168373ffffffffffffffffffffffffffffffffffffffff167f17307eab39ab6107e8899845ad3d59bd9653f200f220920489ca2b5937696c31836040516113a99190612bcd565b60405180910390a3505050565b6113c1848484610fed565b6113cd84848484611656565b61140c576040517f08c379a000000000000000000000000000000000000000000000000000000000815260040161140390612c2a565b60405180910390fd5b50505050565b606061141d82610b7c565b61145c576040517f08c379a000000000000000000000000000000000000000000000000000000000815260040161145390612d6a565b60405180910390fd5b6000600a6000848152602001908152602001600020805461147c906130aa565b80601f01602080910402602001604051908101604052809291908181526020018280546114a8906130aa565b80156114f55780601f106114ca576101008083540402835291602001916114f5565b820191906000526020600020905b8154815290600101906020018083116114d857829003601f168201915b5050505050905060006115066117ed565b905060008151141561151c57819250505061155f565b600082511115611551578082604051602001611539929190612b42565b6040516020818303038152906040529250505061155f565b61155a84611804565b925050505b919050565b60007f80ac58cd000000000000000000000000000000000000000000000000000000007bffffffffffffffffffffffffffffffffffffffffffffffffffffffff1916827bffffffffffffffffffffffffffffffffffffffffffffffffffffffff1916148061162f57507f5b5e139f000000000000000000000000000000000000000000000000000000007bffffffffffffffffffffffffffffffffffffffffffffffffffffffff1916827bffffffffffffffffffffffffffffffffffffffffffffffffffffffff1916145b8061163f575061163e826118ab565b5b9050919050565b611651838383611915565b505050565b60006116778473ffffffffffffffffffffffffffffffffffffffff16611a29565b156117e0578373ffffffffffffffffffffffffffffffffffffffff1663150b7a026116a0610be8565b8786866040518563ffffffff1660e01b81526004016116c29493929190612b81565b602060405180830381600087803b1580156116dc57600080fd5b505af192505050801561170d57506040513d601f19601f8201168201806040525081019061170a9190612366565b60015b611790573d806000811461173d576040519150601f19603f3d011682016040523d82523d6000602084013e611742565b606091505b50600081511415611788576040517f08c379a000000000000000000000000000000000000000000000000000000000815260040161177f90612c2a565b60405180910390fd5b805181602001fd5b63150b7a0260e01b7bffffffffffffffffffffffffffffffffffffffffffffffffffffffff1916817bffffffffffffffffffffffffffffffffffffffffffffffffffffffff1916149150506117e5565b600190505b949350505050565b606060405180602001604052806000815250905090565b606061180f82610b7c565b61184e576040517f08c379a000000000000000000000000000000000000000000000000000000000815260040161184590612dca565b60405180910390fd5b60006118586117ed565b9050600081511161187857604051806020016040528060008152506118a3565b8061188284611a3c565b604051602001611893929190612b42565b6040516020818303038152906040525b915050919050565b60007f01ffc9a7000000000000000000000000000000000000000000000000000000007bffffffffffffffffffffffffffffffffffffffffffffffffffffffff1916827bffffffffffffffffffffffffffffffffffffffffffffffffffffffff1916149050919050565b611920838383611be9565b600073ffffffffffffffffffffffffffffffffffffffff168373ffffffffffffffffffffffffffffffffffffffff1614156119635761195e81611bee565b6119a2565b8173ffffffffffffffffffffffffffffffffffffffff168373ffffffffffffffffffffffffffffffffffffffff16146119a1576119a08382611c37565b5b5b600073ffffffffffffffffffffffffffffffffffffffff168273ffffffffffffffffffffffffffffffffffffffff1614156119e5576119e081611da4565b611a24565b8273ffffffffffffffffffffffffffffffffffffffff168273ffffffffffffffffffffffffffffffffffffffff1614611a2357611a228282611ee7565b5b5b505050565b600080823b905060008111915050919050565b60606000821415611a84576040518060400160405280600181526020017f30000000000000000000000000000000000000000000000000000000000000008152509050611be4565b600082905060005b60008214611ab6578080611a9f906130dc565b915050600a82611aaf9190612f8f565b9150611a8c565b60008167ffffffffffffffff811115611af8577f4e487b7100000000000000000000000000000000000000000000000000000000600052604160045260246000fd5b6040519080825280601f01601f191660200182016040528015611b2a5781602001600182028036833780820191505090505b5090505b60008514611bdd57600182611b439190612fc0565b9150600a85611b529190613125565b6030611b5e9190612f39565b60f81b818381518110611b9a577f4e487b7100000000000000000000000000000000000000000000000000000000600052603260045260246000fd5b60200101907effffffffffffffffffffffffffffffffffffffffffffffffffffffffffffff1916908160001a905350600a85611bd69190612f8f565b9450611b2e565b8093505050505b919050565b505050565b6008805490506009600083815260200190815260200160002081905550600881908060018154018082558091505060019003906000526020600020016000909190919091505550565b60006001611c448461089a565b611c4e9190612fc0565b9050600060076000848152602001908152602001600020549050818114611d33576000600660008673ffffffffffffffffffffffffffffffffffffffff1673ffffffffffffffffffffffffffffffffffffffff168152602001908152602001600020600084815260200190815260200160002054905080600660008773ffffffffffffffffffffffffffffffffffffffff1673ffffffffffffffffffffffffffffffffffffffff168152602001908152602001600020600084815260200190815260200160002081905550816007600083815260200190815260200160002081905550505b6007600084815260200190815260200160002060009055600660008573ffffffffffffffffffffffffffffffffffffffff1673ffffffffffffffffffffffffffffffffffffffff16815260200190815260200160002060008381526020019081526020016000206000905550505050565b60006001600880549050611db89190612fc0565b9050600060096000848152602001908152602001600020549050600060088381548110611e0e577f4e487b7100000000000000000000000000000000000000000000000000000000600052603260045260246000fd5b906000526020600020015490508060088381548110611e56577f4e487b7100000000000000000000000000000000000000000000000000000000600052603260045260246000fd5b906000526020600020018190555081600960008381526020019081526020016000208190555060096000858152602001908152602001600020600090556008805480611ecb577f4e487b7100000000000000000000000000000000000000000000000000000000600052603160045260246000fd5b6001900381819060005260206000200160009055905550505050565b6000611ef28361089a565b905081600660008573ffffffffffffffffffffffffffffffffffffffff1673ffffffffffffffffffffffffffffffffffffffff168152602001908152602001600020600083815260200190815260200160002081905550806007600084815260200190815260200160002081905550505050565b828054611f72906130aa565b90600052602060002090601f016020900481019282611f945760008555611fdb565b82601f10611fad57805160ff1916838001178555611fdb565b82800160010185558215611fdb579182015b82811115611fda578251825591602001919060010190611fbf565b5b509050611fe89190611fec565b5090565b5b80821115612005576000816000905550600101611fed565b5090565b600061201c61201784612e96565b612e65565b90508281526020810184848401111561203457600080fd5b61203f848285613068565b509392505050565b600061205a61205584612ec6565b612e65565b90508281526020810184848401111561207257600080fd5b61207d848285613068565b509392505050565b60008135905061209481613223565b92915050565b6000813590506120a98161323a565b92915050565b6000813590506120be81613251565b92915050565b6000815190506120d381613251565b92915050565b600082601f8301126120ea57600080fd5b81356120fa848260208601612009565b91505092915050565b600082601f83011261211457600080fd5b8135612124848260208601612047565b91505092915050565b60008135905061213c81613268565b92915050565b60006020828403121561215457600080fd5b600061216284828501612085565b91505092915050565b6000806040838503121561217e57600080fd5b600061218c85828601612085565b925050602061219d85828601612085565b9150509250929050565b6000806000606084860312156121bc57600080fd5b60006121ca86828701612085565b93505060206121db86828701612085565b92505060406121ec8682870161212d565b9150509250925092565b6000806000806080858703121561220c57600080fd5b600061221a87828801612085565b945050602061222b87828801612085565b935050604061223c8782880161212d565b925050606085013567ffffffffffffffff81111561225957600080fd5b612265878288016120d9565b91505092959194509250565b6000806040838503121561228457600080fd5b600061229285828601612085565b92505060206122a38582860161209a565b9150509250929050565b600080604083850312156122c057600080fd5b60006122ce85828601612085565b925050602083013567ffffffffffffffff8111156122eb57600080fd5b6122f785828601612103565b9150509250929050565b6000806040838503121561231457600080fd5b600061232285828601612085565b92505060206123338582860161212d565b9150509250929050565b60006020828403121561234f57600080fd5b600061235d848285016120af565b91505092915050565b60006020828403121561237857600080fd5b6000612386848285016120c4565b91505092915050565b6000602082840312156123a157600080fd5b60006123af8482850161212d565b91505092915050565b6123c181612ff4565b82525050565b6123d081613006565b82525050565b60006123e182612ef6565b6123eb8185612f0c565b93506123fb818560208601613077565b61240481613212565b840191505092915050565b600061241a82612f01565b6124248185612f1d565b9350612434818560208601613077565b61243d81613212565b840191505092915050565b600061245382612f01565b61245d8185612f2e565b935061246d818560208601613077565b80840191505092915050565b6000612486602b83612f1d565b91507f455243373231456e756d657261626c653a206f776e657220696e646578206f7560008301527f74206f6620626f756e64730000000000000000000000000000000000000000006020830152604082019050919050565b60006124ec603283612f1d565b91507f4552433732313a207472616e7366657220746f206e6f6e20455243373231526560008301527f63656976657220696d706c656d656e74657200000000000000000000000000006020830152604082019050919050565b6000612552601c83612f1d565b91507f4552433732313a20746f6b656e20616c7265616479206d696e746564000000006000830152602082019050919050565b6000612592602483612f1d565b91507f4552433732313a207472616e7366657220746f20746865207a65726f2061646460008301527f72657373000000000000000000000000000000000000000000000000000000006020830152604082019050919050565b60006125f8601983612f1d565b91507f4552433732313a20617070726f766520746f2063616c6c6572000000000000006000830152602082019050919050565b6000612638602c83612f1d565b91507f4552433732313a206f70657261746f7220717565727920666f72206e6f6e657860008301527f697374656e7420746f6b656e00000000000000000000000000000000000000006020830152604082019050919050565b600061269e603883612f1d565b91507f4552433732313a20617070726f76652063616c6c6572206973206e6f74206f7760008301527f6e6572206e6f7220617070726f76656420666f7220616c6c00000000000000006020830152604082019050919050565b6000612704602a83612f1d565b91507f4552433732313a2062616c616e636520717565727920666f7220746865207a6560008301527f726f2061646472657373000000000000000000000000000000000000000000006020830152604082019050919050565b600061276a602983612f1d565b91507f4552433732313a206f776e657220717565727920666f72206e6f6e657869737460008301527f656e7420746f6b656e00000000000000000000000000000000000000000000006020830152604082019050919050565b60006127d0602e83612f1d565b91507f45524337323155524953746f726167653a2055524920736574206f66206e6f6e60008301527f6578697374656e7420746f6b656e0000000000000000000000000000000000006020830152604082019050919050565b6000612836602083612f1d565b91507f4552433732313a206d696e7420746f20746865207a65726f20616464726573736000830152602082019050919050565b6000612876603183612f1d565b91507f45524337323155524953746f726167653a2055524920717565727920666f722060008301527f6e6f6e6578697374656e7420746f6b656e0000000000000000000000000000006020830152604082019050919050565b60006128dc602c83612f1d565b91507f4552433732313a20617070726f76656420717565727920666f72206e6f6e657860008301527f697374656e7420746f6b656e00000000000000000000000000000000000000006020830152604082019050919050565b6000612942602983612f1d565b91507f4552433732313a207472616e73666572206f6620746f6b656e2074686174206960008301527f73206e6f74206f776e00000000000000000000000000000000000000000000006020830152604082019050919050565b60006129a8602f83612f1d565b91507f4552433732314d657461646174613a2055524920717565727920666f72206e6f60008301527f6e6578697374656e7420746f6b656e00000000000000000000000000000000006020830152604082019050919050565b6000612a0e602183612f1d565b91507f4552433732313a20617070726f76616c20746f2063757272656e74206f776e6560008301527f72000000000000000000000000000000000000000000000000000000000000006020830152604082019050919050565b6000612a74603183612f1d565b91507f4552433732313a207472616e736665722063616c6c6572206973206e6f74206f60008301527f776e6572206e6f7220617070726f7665640000000000000000000000000000006020830152604082019050919050565b6000612ada602c83612f1d565b91507f455243373231456e756d657261626c653a20676c6f62616c20696e646578206f60008301527f7574206f6620626f756e647300000000000000000000000000000000000000006020830152604082019050919050565b612b3c8161305e565b82525050565b6000612b4e8285612448565b9150612b5a8284612448565b91508190509392505050565b6000602082019050612b7b60008301846123b8565b92915050565b6000608082019050612b9660008301876123b8565b612ba360208301866123b8565b612bb06040830185612b33565b8181036060830152612bc281846123d6565b905095945050505050565b6000602082019050612be260008301846123c7565b92915050565b60006020820190508181036000830152612c02818461240f565b905092915050565b60006020820190508181036000830152612c2381612479565b9050919050565b60006020820190508181036000830152612c43816124df565b9050919050565b60006020820190508181036000830152612c6381612545565b9050919050565b60006020820190508181036000830152612c8381612585565b9050919050565b60006020820190508181036000830152612ca3816125eb565b9050919050565b60006020820190508181036000830152612cc38161262b565b9050919050565b60006020820190508181036000830152612ce381612691565b9050919050565b60006020820190508181036000830152612d03816126f7565b9050919050565b60006020820190508181036000830152612d238161275d565b9050919050565b60006020820190508181036000830152612d43816127c3565b9050919050565b60006020820190508181036000830152612d6381612829565b9050919050565b60006020820190508181036000830152612d8381612869565b9050919050565b60006020820190508181036000830152612da3816128cf565b9050919050565b60006020820190508181036000830152612dc381612935565b9050919050565b60006020820190508181036000830152612de38161299b565b9050919050565b60006020820190508181036000830152612e0381612a01565b9050919050565b60006020820190508181036000830152612e2381612a67565b9050919050565b60006020820190508181036000830152612e4381612acd565b9050919050565b6000602082019050612e5f6000830184612b33565b92915050565b6000604051905081810181811067ffffffffffffffff82111715612e8c57612e8b6131e3565b5b8060405250919050565b600067ffffffffffffffff821115612eb157612eb06131e3565b5b601f19601f8301169050602081019050919050565b600067ffffffffffffffff821115612ee157612ee06131e3565b5b601f19601f8301169050602081019050919050565b600081519050919050565b600081519050919050565b600082825260208201905092915050565b600082825260208201905092915050565b600081905092915050565b6000612f448261305e565b9150612f4f8361305e565b9250827fffffffffffffffffffffffffffffffffffffffffffffffffffffffffffffffff03821115612f8457612f83613156565b5b828201905092915050565b6000612f9a8261305e565b9150612fa58361305e565b925082612fb557612fb4613185565b5b828204905092915050565b6000612fcb8261305e565b9150612fd68361305e565b925082821015612fe957612fe8613156565b5b828203905092915050565b6000612fff8261303e565b9050919050565b60008115159050919050565b60007fffffffff0000000000000000000000000000000000000000000000000000000082169050919050565b600073ffffffffffffffffffffffffffffffffffffffff82169050919050565b6000819050919050565b82818337600083830152505050565b60005b8381101561309557808201518184015260208101905061307a565b838111156130a4576000848401525b50505050565b600060028204905060018216806130c257607f821691505b602082108114156130d6576130d56131b4565b5b50919050565b60006130e78261305e565b91507fffffffffffffffffffffffffffffffffffffffffffffffffffffffffffffffff82141561311a57613119613156565b5b600182019050919050565b60006131308261305e565b915061313b8361305e565b92508261314b5761314a613185565b5b828206905092915050565b7f4e487b7100000000000000000000000000000000000000000000000000000000600052601160045260246000fd5b7f4e487b7100000000000000000000000000000000000000000000000000000000600052601260045260246000fd5b7f4e487b7100000000000000000000000000000000000000000000000000000000600052602260045260246000fd5b7f4e487b7100000000000000000000000000000000000000000000000000000000600052604160045260246000fd5b6000601f19601f8301169050919050565b61322c81612ff4565b811461323757600080fd5b50565b61324381613006565b811461324e57600080fd5b50565b61325a81613012565b811461326557600080fd5b50565b6132718161305e565b811461327c57600080fd5b5056fea26469706673582212204440644f7a0b183b8ec80e1e198916a5250c98b3e4e9fa921eee2f971a8d778f64736f6c63430008000033",
  "linkReferences": {},
  "deployedLinkReferences": {}
}