{
  "_format": "hh-sol-artifact-1",
  "contractName": "Merchant",
  "sourceName": "contracts/Merchant.sol",
  "abi": [
    {
      "inputs": [
        {
          "internalType": "contract WispToken",
          "name": "wispcontract",
          "type": "address"
        },
        {
          "internalType": "contract TreasureNFT",
          "name": "trsContract",
          "type": "address"
        }
      ],
      "stateMutability": "nonpayable",
      "type": "constructor"
    },
    {
      "anonymous": false,
      "inputs": [
        {
          "indexed": false,
          "internalType": "address",
          "name": "from",
          "type": "address"
        },
        {
          "indexed": false,
          "internalType": "address",
          "name": "to",
          "type": "address"
        },
        {
          "indexed": false,
          "internalType": "uint256",
          "name": "tokenId",
          "type": "uint256"
        }
      ],
      "name": "ItemSold",
      "type": "event"
    },
    {
      "anonymous": false,
      "inputs": [
        {
          "indexed": false,
          "internalType": "address",
          "name": "from",
          "type": "address"
        },
        {
          "indexed": false,
          "internalType": "uint256",
          "name": "tokenId",
          "type": "uint256"
        }
      ],
      "name": "SaleCanceled",
      "type": "event"
    },
    {
      "anonymous": false,
      "inputs": [
        {
          "indexed": false,
          "internalType": "address",
          "name": "from",
          "type": "address"
        },
        {
          "indexed": false,
          "internalType": "uint256",
          "name": "tokenId",
          "type": "uint256"
        }
      ],
      "name": "SaleCreated",
      "type": "event"
    },
    {
      "inputs": [
        {
          "internalType": "address",
          "name": "owner",
          "type": "address"
        },
        {
          "internalType": "uint256",
          "name": "index",
          "type": "uint256"
        }
      ],
      "name": "buyItemOfOwnerByIndex",
      "outputs": [],
      "stateMutability": "nonpayable",
      "type": "function"
    },
    {
      "inputs": [
        {
          "internalType": "uint256",
          "name": "index",
          "type": "uint256"
        }
      ],
      "name": "cancelSaleByIndex",
      "outputs": [],
      "stateMutability": "nonpayable",
      "type": "function"
    },
    {
      "inputs": [
        {
          "internalType": "address",
          "name": "owner",
          "type": "address"
        },
        {
          "internalType": "uint256",
          "name": "index",
          "type": "uint256"
        }
      ],
      "name": "saleOfOwnerByIndex",
      "outputs": [
        {
          "internalType": "uint256",
          "name": "tokenId",
          "type": "uint256"
        },
        {
          "internalType": "uint256",
          "name": "price",
          "type": "uint256"
        }
      ],
      "stateMutability": "view",
      "type": "function"
    },
    {
      "inputs": [
        {
          "internalType": "address",
          "name": "owner",
          "type": "address"
        }
      ],
      "name": "salesOf",
      "outputs": [
        {
          "internalType": "uint256",
          "name": "salesNum",
          "type": "uint256"
        }
      ],
      "stateMutability": "view",
      "type": "function"
    },
    {
      "inputs": [
        {
          "internalType": "uint256",
          "name": "tokenId",
          "type": "uint256"
        },
        {
          "internalType": "uint256",
          "name": "price",
          "type": "uint256"
        }
      ],
      "name": "sellItem",
      "outputs": [],
      "stateMutability": "nonpayable",
      "type": "function"
    },
    {
      "inputs": [],
      "name": "trs",
      "outputs": [
        {
          "internalType": "contract TreasureNFT",
          "name": "",
          "type": "address"
        }
      ],
      "stateMutability": "view",
      "type": "function"
    },
    {
      "inputs": [],
      "name": "wisp",
      "outputs": [
        {
          "internalType": "contract WispToken",
          "name": "",
          "type": "address"
        }
      ],
      "stateMutability": "view",
      "type": "function"
    }
  ],
  "bytecode": "0x60806040523480156200001157600080fd5b5060405162001afe38038062001afe8339818101604052810190620000379190620000f2565b8082806000806101000a81548173ffffffffffffffffffffffffffffffffffffffff021916908373ffffffffffffffffffffffffffffffffffffffff1602179055505080600160006101000a81548173ffffffffffffffffffffffffffffffffffffffff021916908373ffffffffffffffffffffffffffffffffffffffff160217905550505050620001c3565b600081519050620000d5816200018f565b92915050565b600081519050620000ec81620001a9565b92915050565b600080604083850312156200010657600080fd5b60006200011685828601620000db565b92505060206200012985828601620000c4565b9150509250929050565b600062000140826200016f565b9050919050565b6000620001548262000133565b9050919050565b6000620001688262000133565b9050919050565b600073ffffffffffffffffffffffffffffffffffffffff82169050919050565b6200019a8162000147565b8114620001a657600080fd5b50565b620001b4816200015b565b8114620001c057600080fd5b50565b61192b80620001d36000396000f3fe608060405234801561001057600080fd5b506004361061007c5760003560e01c80632d9235611161005b5780632d923561146100d9578063c96559cd146100f5578063d03f7fbf14610126578063dd880609146101425761007c565b8062ca15ae14610081578063045f04d61461009f5780631aa4801c146100bb575b600080fd5b610089610172565b60405161009691906116b2565b60405180910390f35b6100b960048036038101906100b491906113d4565b610198565b005b6100c36108cb565b6040516100d091906116cd565b60405180910390f35b6100f360048036038101906100ee919061148b565b6108ef565b005b61010f600480360381019061010a91906113d4565b610c27565b60405161011d929190611783565b60405180910390f35b610140600480360381019061013b9190611439565b610e56565b005b61015c60048036038101906101579190611382565b6112cd565b6040516101699190611768565b60405180910390f35b600160009054906101000a900473ffffffffffffffffffffffffffffffffffffffff1681565b816000600260008373ffffffffffffffffffffffffffffffffffffffff1673ffffffffffffffffffffffffffffffffffffffff168152602001908152602001600020805490501161021e576040517f08c379a000000000000000000000000000000000000000000000000000000000815260040161021590611748565b60405180910390fd5b8282600260008373ffffffffffffffffffffffffffffffffffffffff1673ffffffffffffffffffffffffffffffffffffffff1681526020019081526020016000208054905081106102a4576040517f08c379a000000000000000000000000000000000000000000000000000000000815260040161029b90611728565b60405180910390fd5b338585600260008373ffffffffffffffffffffffffffffffffffffffff1673ffffffffffffffffffffffffffffffffffffffff168152602001908152602001600020818154811061031e577f4e487b7100000000000000000000000000000000000000000000000000000000600052603260045260246000fd5b90600052602060002090600202016001015460008054906101000a900473ffffffffffffffffffffffffffffffffffffffff1673ffffffffffffffffffffffffffffffffffffffff1663dd62ed3e85306040518363ffffffff1660e01b815260040161038b929190611629565b60206040518083038186803b1580156103a357600080fd5b505afa1580156103b7573d6000803e3d6000fd5b505050506040513d601f19601f820116820180604052508101906103db9190611462565b101561041c576040517f08c379a0000000000000000000000000000000000000000000000000000000008152600401610413906116e8565b60405180910390fd5b6000600260008a73ffffffffffffffffffffffffffffffffffffffff1673ffffffffffffffffffffffffffffffffffffffff1681526020019081526020016000208881548110610495577f4e487b7100000000000000000000000000000000000000000000000000000000600052603260045260246000fd5b90600052602060002090600202016001015490506000600260008b73ffffffffffffffffffffffffffffffffffffffff1673ffffffffffffffffffffffffffffffffffffffff1681526020019081526020016000208981548110610522577f4e487b7100000000000000000000000000000000000000000000000000000000600052603260045260246000fd5b9060005260206000209060020201600001549050600260008b73ffffffffffffffffffffffffffffffffffffffff1673ffffffffffffffffffffffffffffffffffffffff1681526020019081526020016000206001600260008d73ffffffffffffffffffffffffffffffffffffffff1673ffffffffffffffffffffffffffffffffffffffff168152602001908152602001600020805490506105c491906117bd565b815481106105fb577f4e487b7100000000000000000000000000000000000000000000000000000000600052603260045260246000fd5b9060005260206000209060020201600260008c73ffffffffffffffffffffffffffffffffffffffff1673ffffffffffffffffffffffffffffffffffffffff1681526020019081526020016000208a81548110610680577f4e487b7100000000000000000000000000000000000000000000000000000000600052603260045260246000fd5b90600052602060002090600202016000820154816000015560018201548160010155905050600260008b73ffffffffffffffffffffffffffffffffffffffff1673ffffffffffffffffffffffffffffffffffffffff16815260200190815260200160002080548061071a577f4e487b7100000000000000000000000000000000000000000000000000000000600052603160045260246000fd5b600190038181906000526020600020906002020160008082016000905560018201600090555050905560008054906101000a900473ffffffffffffffffffffffffffffffffffffffff1673ffffffffffffffffffffffffffffffffffffffff166323b872dd338c856040518463ffffffff1660e01b81526004016107a093929190611652565b602060405180830381600087803b1580156107ba57600080fd5b505af11580156107ce573d6000803e3d6000fd5b505050506040513d601f19601f820116820180604052508101906107f29190611410565b50600160009054906101000a900473ffffffffffffffffffffffffffffffffffffffff1673ffffffffffffffffffffffffffffffffffffffff166323b872dd3033846040518463ffffffff1660e01b815260040161085293929190611652565b600060405180830381600087803b15801561086c57600080fd5b505af1158015610880573d6000803e3d6000fd5b505050507f46782f0e6d78441c8eb94ae065d50ff717ce627040111c23f781e52b94b79d838a33836040516108b793929190611652565b60405180910390a150505050505050505050565b60008054906101000a900473ffffffffffffffffffffffffffffffffffffffff1681565b338260011515600160009054906101000a900473ffffffffffffffffffffffffffffffffffffffff1673ffffffffffffffffffffffffffffffffffffffff1663e985e9c584306040518363ffffffff1660e01b8152600401610952929190611629565b60206040518083038186803b15801561096a57600080fd5b505afa15801561097e573d6000803e3d6000fd5b505050506040513d601f19601f820116820180604052508101906109a29190611410565b15151480610a8557503073ffffffffffffffffffffffffffffffffffffffff16600160009054906101000a900473ffffffffffffffffffffffffffffffffffffffff1673ffffffffffffffffffffffffffffffffffffffff1663081812fc836040518263ffffffff1660e01b8152600401610a1d9190611768565b60206040518083038186803b158015610a3557600080fd5b505afa158015610a49573d6000803e3d6000fd5b505050506040513d601f19601f82011682018060405250810190610a6d91906113ab565b73ffffffffffffffffffffffffffffffffffffffff16145b610ac4576040517f08c379a0000000000000000000000000000000000000000000000000000000008152600401610abb90611708565b60405180910390fd5b600160009054906101000a900473ffffffffffffffffffffffffffffffffffffffff1673ffffffffffffffffffffffffffffffffffffffff166323b872dd3330876040518463ffffffff1660e01b8152600401610b2393929190611652565b600060405180830381600087803b158015610b3d57600080fd5b505af1158015610b51573d6000803e3d6000fd5b50505050600260003373ffffffffffffffffffffffffffffffffffffffff1673ffffffffffffffffffffffffffffffffffffffff1681526020019081526020016000206040518060400160405280868152602001858152509080600181540180825580915050600190039060005260206000209060020201600090919091909150600082015181600001556020820151816001015550507f371910e598072529180b28c60f34fc7445d99bd870936559016ce9e1282df5153385604051610c19929190611689565b60405180910390a150505050565b600080836000600260008373ffffffffffffffffffffffffffffffffffffffff1673ffffffffffffffffffffffffffffffffffffffff1681526020019081526020016000208054905011610cb0576040517f08c379a0000000000000000000000000000000000000000000000000000000008152600401610ca790611748565b60405180910390fd5b8484600260008373ffffffffffffffffffffffffffffffffffffffff1673ffffffffffffffffffffffffffffffffffffffff168152602001908152602001600020805490508110610d36576040517f08c379a0000000000000000000000000000000000000000000000000000000008152600401610d2d90611728565b60405180910390fd5b600260008873ffffffffffffffffffffffffffffffffffffffff1673ffffffffffffffffffffffffffffffffffffffff1681526020019081526020016000208681548110610dad577f4e487b7100000000000000000000000000000000000000000000000000000000600052603260045260246000fd5b9060005260206000209060020201600001549450600260008873ffffffffffffffffffffffffffffffffffffffff1673ffffffffffffffffffffffffffffffffffffffff1681526020019081526020016000208681548110610e38577f4e487b7100000000000000000000000000000000000000000000000000000000600052603260045260246000fd5b90600052602060002090600202016001015493505050509250929050565b336000600260008373ffffffffffffffffffffffffffffffffffffffff1673ffffffffffffffffffffffffffffffffffffffff1681526020019081526020016000208054905011610edc576040517f08c379a0000000000000000000000000000000000000000000000000000000008152600401610ed390611748565b60405180910390fd5b3382600260008373ffffffffffffffffffffffffffffffffffffffff1673ffffffffffffffffffffffffffffffffffffffff168152602001908152602001600020805490508110610f62576040517f08c379a0000000000000000000000000000000000000000000000000000000008152600401610f5990611728565b60405180910390fd5b6000600260003373ffffffffffffffffffffffffffffffffffffffff1673ffffffffffffffffffffffffffffffffffffffff1681526020019081526020016000208581548110610fdb577f4e487b7100000000000000000000000000000000000000000000000000000000600052603260045260246000fd5b9060005260206000209060020201600001549050600260003373ffffffffffffffffffffffffffffffffffffffff1673ffffffffffffffffffffffffffffffffffffffff1681526020019081526020016000206001600260003373ffffffffffffffffffffffffffffffffffffffff1673ffffffffffffffffffffffffffffffffffffffff1681526020019081526020016000208054905061107d91906117bd565b815481106110b4577f4e487b7100000000000000000000000000000000000000000000000000000000600052603260045260246000fd5b9060005260206000209060020201600260003373ffffffffffffffffffffffffffffffffffffffff1673ffffffffffffffffffffffffffffffffffffffff1681526020019081526020016000208681548110611139577f4e487b7100000000000000000000000000000000000000000000000000000000600052603260045260246000fd5b90600052602060002090600202016000820154816000015560018201548160010155905050600260003373ffffffffffffffffffffffffffffffffffffffff1673ffffffffffffffffffffffffffffffffffffffff1681526020019081526020016000208054806111d3577f4e487b7100000000000000000000000000000000000000000000000000000000600052603160045260246000fd5b6001900381819060005260206000209060020201600080820160009055600182016000905550509055600160009054906101000a900473ffffffffffffffffffffffffffffffffffffffff1673ffffffffffffffffffffffffffffffffffffffff166323b872dd3033846040518463ffffffff1660e01b815260040161125b93929190611652565b600060405180830381600087803b15801561127557600080fd5b505af1158015611289573d6000803e3d6000fd5b505050507f9aab328f565aee990ccdda0fad461403cefd35ef76e04e7c1df569a5dd633caf33826040516112be929190611689565b60405180910390a15050505050565b6000600260008373ffffffffffffffffffffffffffffffffffffffff1673ffffffffffffffffffffffffffffffffffffffff168152602001908152602001600020805490509050919050565b600081359050611328816118b0565b92915050565b60008151905061133d816118b0565b92915050565b600081519050611352816118c7565b92915050565b600081359050611367816118de565b92915050565b60008151905061137c816118de565b92915050565b60006020828403121561139457600080fd5b60006113a284828501611319565b91505092915050565b6000602082840312156113bd57600080fd5b60006113cb8482850161132e565b91505092915050565b600080604083850312156113e757600080fd5b60006113f585828601611319565b925050602061140685828601611358565b9150509250929050565b60006020828403121561142257600080fd5b600061143084828501611343565b91505092915050565b60006020828403121561144b57600080fd5b600061145984828501611358565b91505092915050565b60006020828403121561147457600080fd5b60006114828482850161136d565b91505092915050565b6000806040838503121561149e57600080fd5b60006114ac85828601611358565b92505060206114bd85828601611358565b9150509250929050565b6114d0816117f1565b82525050565b6114df81611839565b82525050565b6114ee8161185d565b82525050565b60006115016020836117ac565b91507f57697370546f6b656e3a20636f6e7472616374206e6f7420617070726f7665646000830152602082019050919050565b60006115416022836117ac565b91507f54726561737572654e46543a20636f6e7472616374206e6f7420617070726f7660008301527f65640000000000000000000000000000000000000000000000000000000000006020830152604082019050919050565b60006115a76012836117ac565b91507f496e646578206f7574206f662072616e676500000000000000000000000000006000830152602082019050919050565b60006115e76012836117ac565b91507f4e6f2073616c657320617661696c61626c6500000000000000000000000000006000830152602082019050919050565b6116238161182f565b82525050565b600060408201905061163e60008301856114c7565b61164b60208301846114c7565b9392505050565b600060608201905061166760008301866114c7565b61167460208301856114c7565b611681604083018461161a565b949350505050565b600060408201905061169e60008301856114c7565b6116ab602083018461161a565b9392505050565b60006020820190506116c760008301846114d6565b92915050565b60006020820190506116e260008301846114e5565b92915050565b60006020820190508181036000830152611701816114f4565b9050919050565b6000602082019050818103600083015261172181611534565b9050919050565b600060208201905081810360008301526117418161159a565b9050919050565b60006020820190508181036000830152611761816115da565b9050919050565b600060208201905061177d600083018461161a565b92915050565b6000604082019050611798600083018561161a565b6117a5602083018461161a565b9392505050565b600082825260208201905092915050565b60006117c88261182f565b91506117d38361182f565b9250828210156117e6576117e5611881565b5b828203905092915050565b60006117fc8261180f565b9050919050565b60008115159050919050565b600073ffffffffffffffffffffffffffffffffffffffff82169050919050565b6000819050919050565b60006118448261184b565b9050919050565b60006118568261180f565b9050919050565b60006118688261186f565b9050919050565b600061187a8261180f565b9050919050565b7f4e487b7100000000000000000000000000000000000000000000000000000000600052601160045260246000fd5b6118b9816117f1565b81146118c457600080fd5b50565b6118d081611803565b81146118db57600080fd5b50565b6118e78161182f565b81146118f257600080fd5b5056fea26469706673582212205abaddfd5f5b557e26707b3fd9c9075607acb50b9a4d5590816876f823a957c164736f6c63430008000033",
  "linkReferences": {},
  "deployedLinkReferences": {}
}