{
  "_format": "hh-sol-artifact-1",
  "contractName": "Merchant",
  "sourceName": "contracts/Merchant.sol",
  "abi": [
    {
      "inputs": [
        {
          "internalType": "contract WispToken",
          "name": "wispContract",
          "type": "address"
        },
        {
          "internalType": "contract TreasureNFT",
          "name": "trsContract",
          "type": "address"
        }
      ],
      "stateMutability": "nonpayable",
      "type": "constructor"
    },
    {
      "anonymous": false,
      "inputs": [
        {
          "indexed": false,
          "internalType": "address",
          "name": "from",
          "type": "address"
        },
        {
          "indexed": false,
          "internalType": "address",
          "name": "to",
          "type": "address"
        },
        {
          "indexed": false,
          "internalType": "uint256",
          "name": "tokenId",
          "type": "uint256"
        }
      ],
      "name": "ItemSold",
      "type": "event"
    },
    {
      "anonymous": false,
      "inputs": [
        {
          "indexed": false,
          "internalType": "address",
          "name": "from",
          "type": "address"
        },
        {
          "indexed": false,
          "internalType": "uint256",
          "name": "tokenId",
          "type": "uint256"
        }
      ],
      "name": "SaleCanceled",
      "type": "event"
    },
    {
      "anonymous": false,
      "inputs": [
        {
          "indexed": false,
          "internalType": "address",
          "name": "from",
          "type": "address"
        },
        {
          "indexed": false,
          "internalType": "uint256",
          "name": "tokenId",
          "type": "uint256"
        }
      ],
      "name": "SaleCreated",
      "type": "event"
    },
    {
      "inputs": [
        {
          "internalType": "address",
          "name": "owner",
          "type": "address"
        },
        {
          "internalType": "uint256",
          "name": "index",
          "type": "uint256"
        }
      ],
      "name": "buyItemOfOwnerByIndex",
      "outputs": [],
      "stateMutability": "nonpayable",
      "type": "function"
    },
    {
      "inputs": [
        {
          "internalType": "uint256",
          "name": "index",
          "type": "uint256"
        }
      ],
      "name": "cancelSaleByIndex",
      "outputs": [],
      "stateMutability": "nonpayable",
      "type": "function"
    },
    {
      "inputs": [
        {
          "internalType": "address",
          "name": "owner",
          "type": "address"
        },
        {
          "internalType": "uint256",
          "name": "index",
          "type": "uint256"
        }
      ],
      "name": "saleOfOwnerByIndex",
      "outputs": [
        {
          "internalType": "uint256",
          "name": "tokenId",
          "type": "uint256"
        },
        {
          "internalType": "uint256",
          "name": "price",
          "type": "uint256"
        }
      ],
      "stateMutability": "view",
      "type": "function"
    },
    {
      "inputs": [
        {
          "internalType": "address",
          "name": "owner",
          "type": "address"
        }
      ],
      "name": "salesOf",
      "outputs": [
        {
          "internalType": "uint256",
          "name": "salesNum",
          "type": "uint256"
        }
      ],
      "stateMutability": "view",
      "type": "function"
    },
    {
      "inputs": [
        {
          "internalType": "uint256",
          "name": "tokenId",
          "type": "uint256"
        },
        {
          "internalType": "uint256",
          "name": "price",
          "type": "uint256"
        }
      ],
      "name": "sellItem",
      "outputs": [],
      "stateMutability": "nonpayable",
      "type": "function"
    },
    {
      "inputs": [
        {
          "internalType": "uint256",
          "name": "index",
          "type": "uint256"
        }
      ],
      "name": "sellerByIndex",
      "outputs": [
        {
          "internalType": "address",
          "name": "seller",
          "type": "address"
        }
      ],
      "stateMutability": "view",
      "type": "function"
    },
    {
      "inputs": [],
      "name": "totalSellers",
      "outputs": [
        {
          "internalType": "uint256",
          "name": "sellersNum",
          "type": "uint256"
        }
      ],
      "stateMutability": "view",
      "type": "function"
    },
    {
      "inputs": [],
      "name": "trs",
      "outputs": [
        {
          "internalType": "contract TreasureNFT",
          "name": "",
          "type": "address"
        }
      ],
      "stateMutability": "view",
      "type": "function"
    },
    {
      "inputs": [],
      "name": "wisp",
      "outputs": [
        {
          "internalType": "contract WispToken",
          "name": "",
          "type": "address"
        }
      ],
      "stateMutability": "view",
      "type": "function"
    }
  ],
  "bytecode": "0x60806040523480156200001157600080fd5b50604051620021f4380380620021f48339818101604052810190620000379190620000f2565b8082806000806101000a81548173ffffffffffffffffffffffffffffffffffffffff021916908373ffffffffffffffffffffffffffffffffffffffff1602179055505080600160006101000a81548173ffffffffffffffffffffffffffffffffffffffff021916908373ffffffffffffffffffffffffffffffffffffffff160217905550505050620001c3565b600081519050620000d5816200018f565b92915050565b600081519050620000ec81620001a9565b92915050565b600080604083850312156200010657600080fd5b60006200011685828601620000db565b92505060206200012985828601620000c4565b9150509250929050565b600062000140826200016f565b9050919050565b6000620001548262000133565b9050919050565b6000620001688262000133565b9050919050565b600073ffffffffffffffffffffffffffffffffffffffff82169050919050565b6200019a8162000147565b8114620001a657600080fd5b50565b620001b4816200015b565b8114620001c057600080fd5b50565b61202180620001d36000396000f3fe608060405234801561001057600080fd5b50600436106100925760003560e01c80636d3f4b7a116100665780636d3f4b7a1461010b578063c96559cd14610129578063d03f7fbf1461015a578063dd88060914610176578063f8dfb9b4146101a657610092565b8062ca15ae14610097578063045f04d6146100b55780631aa4801c146100d15780632d923561146100ef575b600080fd5b61009f6101d6565b6040516100ac9190611c84565b60405180910390f35b6100cf60048036038101906100ca91906118a7565b6101fc565b005b6100d9610ad7565b6040516100e69190611c9f565b60405180910390f35b6101096004803603810190610104919061199f565b610afb565b005b610113610e22565b6040516101209190611e35565b60405180910390f35b610143600480360381019061013e91906118a7565b610eb3565b604051610151929190611e50565b60405180910390f35b610174600480360381019061016f919061194d565b611218565b005b610190600480360381019061018b9190611855565b6115da565b60405161019d9190611e35565b60405180910390f35b6101c060048036038101906101bb919061194d565b611675565b6040516101cd9190611be0565b60405180910390f35b600160009054906101000a900473ffffffffffffffffffffffffffffffffffffffff1681565b816000600273__$3c975adaefc32b3bf85fa83c5e7ea0686b$__63732a2ccf9091846040518363ffffffff1660e01b815260040161023b929190611d75565b60006040518083038186803b15801561025357600080fd5b505af4158015610267573d6000803e3d6000fd5b505050506040513d6000823e3d601f19601f8201168201806040525081019061029091906118e3565b51116102d1576040517f08c379a00000000000000000000000000000000000000000000000000000000081526004016102c890611d3a565b60405180910390fd5b8282600273__$3c975adaefc32b3bf85fa83c5e7ea0686b$__63732a2ccf9091846040518363ffffffff1660e01b815260040161030f929190611d75565b60006040518083038186803b15801561032757600080fd5b505af415801561033b573d6000803e3d6000fd5b505050506040513d6000823e3d601f19601f8201168201806040525081019061036491906118e3565b5181106103a6576040517f08c379a000000000000000000000000000000000000000000000000000000000815260040161039d90611d1a565b60405180910390fd5b338585600273__$3c975adaefc32b3bf85fa83c5e7ea0686b$__63732a2ccf9091846040518363ffffffff1660e01b81526004016103e5929190611d75565b60006040518083038186803b1580156103fd57600080fd5b505af4158015610411573d6000803e3d6000fd5b505050506040513d6000823e3d601f19601f8201168201806040525081019061043a91906118e3565b8181518110610472577f4e487b7100000000000000000000000000000000000000000000000000000000600052603260045260246000fd5b60200260200101516020015160008054906101000a900473ffffffffffffffffffffffffffffffffffffffff1673ffffffffffffffffffffffffffffffffffffffff1663dd62ed3e85306040518363ffffffff1660e01b81526004016104d9929190611bfb565b60206040518083038186803b1580156104f157600080fd5b505afa158015610505573d6000803e3d6000fd5b505050506040513d601f19601f820116820180604052508101906105299190611976565b101561056a576040517f08c379a000000000000000000000000000000000000000000000000000000000815260040161056190611cba565b60405180910390fd5b338888600273__$3c975adaefc32b3bf85fa83c5e7ea0686b$__63732a2ccf9091846040518363ffffffff1660e01b81526004016105a9929190611d75565b60006040518083038186803b1580156105c157600080fd5b505af41580156105d5573d6000803e3d6000fd5b505050506040513d6000823e3d601f19601f820116820180604052508101906105fe91906118e3565b8181518110610636577f4e487b7100000000000000000000000000000000000000000000000000000000600052603260045260246000fd5b60200260200101516020015160008054906101000a900473ffffffffffffffffffffffffffffffffffffffff1673ffffffffffffffffffffffffffffffffffffffff166370a08231856040518263ffffffff1660e01b815260040161069b9190611be0565b60206040518083038186803b1580156106b357600080fd5b505afa1580156106c7573d6000803e3d6000fd5b505050506040513d601f19601f820116820180604052508101906106eb9190611976565b101561072c576040517f08c379a000000000000000000000000000000000000000000000000000000000815260040161072390611cda565b60405180910390fd5b6000600273__$3c975adaefc32b3bf85fa83c5e7ea0686b$__63732a2ccf90918e6040518363ffffffff1660e01b815260040161076a929190611d75565b60006040518083038186803b15801561078257600080fd5b505af4158015610796573d6000803e3d6000fd5b505050506040513d6000823e3d601f19601f820116820180604052508101906107bf91906118e3565b8b815181106107f7577f4e487b7100000000000000000000000000000000000000000000000000000000600052603260045260246000fd5b60200260200101516020015190506000600273__$3c975adaefc32b3bf85fa83c5e7ea0686b$__63732a2ccf90918f6040518363ffffffff1660e01b8152600401610843929190611d75565b60006040518083038186803b15801561085b57600080fd5b505af415801561086f573d6000803e3d6000fd5b505050506040513d6000823e3d601f19601f8201168201806040525081019061089891906118e3565b8c815181106108d0577f4e487b7100000000000000000000000000000000000000000000000000000000600052603260045260246000fd5b6020026020010151600001519050600273__$3c975adaefc32b3bf85fa83c5e7ea0686b$__63d34c804a90918f8f6040518463ffffffff1660e01b815260040161091c93929190611dd5565b60006040518083038186803b15801561093457600080fd5b505af4158015610948573d6000803e3d6000fd5b5050505060008054906101000a900473ffffffffffffffffffffffffffffffffffffffff1673ffffffffffffffffffffffffffffffffffffffff166323b872dd338f856040518463ffffffff1660e01b81526004016109a993929190611c24565b602060405180830381600087803b1580156109c357600080fd5b505af11580156109d7573d6000803e3d6000fd5b505050506040513d601f19601f820116820180604052508101906109fb9190611924565b50600160009054906101000a900473ffffffffffffffffffffffffffffffffffffffff1673ffffffffffffffffffffffffffffffffffffffff166323b872dd3033846040518463ffffffff1660e01b8152600401610a5b93929190611c24565b600060405180830381600087803b158015610a7557600080fd5b505af1158015610a89573d6000803e3d6000fd5b505050507f46782f0e6d78441c8eb94ae065d50ff717ce627040111c23f781e52b94b79d838d3383604051610ac093929190611c24565b60405180910390a150505050505050505050505050565b60008054906101000a900473ffffffffffffffffffffffffffffffffffffffff1681565b338260011515600160009054906101000a900473ffffffffffffffffffffffffffffffffffffffff1673ffffffffffffffffffffffffffffffffffffffff1663e985e9c584306040518363ffffffff1660e01b8152600401610b5e929190611bfb565b60206040518083038186803b158015610b7657600080fd5b505afa158015610b8a573d6000803e3d6000fd5b505050506040513d601f19601f82011682018060405250810190610bae9190611924565b15151480610c9157503073ffffffffffffffffffffffffffffffffffffffff16600160009054906101000a900473ffffffffffffffffffffffffffffffffffffffff1673ffffffffffffffffffffffffffffffffffffffff1663081812fc836040518263ffffffff1660e01b8152600401610c299190611e35565b60206040518083038186803b158015610c4157600080fd5b505afa158015610c55573d6000803e3d6000fd5b505050506040513d601f19601f82011682018060405250810190610c79919061187e565b73ffffffffffffffffffffffffffffffffffffffff16145b610cd0576040517f08c379a0000000000000000000000000000000000000000000000000000000008152600401610cc790611cfa565b60405180910390fd5b600160009054906101000a900473ffffffffffffffffffffffffffffffffffffffff1673ffffffffffffffffffffffffffffffffffffffff166323b872dd3330876040518463ffffffff1660e01b8152600401610d2f93929190611c24565b600060405180830381600087803b158015610d4957600080fd5b505af1158015610d5d573d6000803e3d6000fd5b50505050600273__$3c975adaefc32b3bf85fa83c5e7ea0686b$__6385a49bd19091336040518060400160405280898152602001888152506040518463ffffffff1660e01b8152600401610db393929190611d9e565b60006040518083038186803b158015610dcb57600080fd5b505af4158015610ddf573d6000803e3d6000fd5b505050507f371910e598072529180b28c60f34fc7445d99bd870936559016ce9e1282df5153385604051610e14929190611c5b565b60405180910390a150505050565b6000600273__$3c975adaefc32b3bf85fa83c5e7ea0686b$__63deb3d89690916040518263ffffffff1660e01b8152600401610e5e9190611d5a565b60206040518083038186803b158015610e7657600080fd5b505af4158015610e8a573d6000803e3d6000fd5b505050506040513d601f19601f82011682018060405250810190610eae9190611976565b905090565b600080836000600273__$3c975adaefc32b3bf85fa83c5e7ea0686b$__63732a2ccf9091846040518363ffffffff1660e01b8152600401610ef5929190611d75565b60006040518083038186803b158015610f0d57600080fd5b505af4158015610f21573d6000803e3d6000fd5b505050506040513d6000823e3d601f19601f82011682018060405250810190610f4a91906118e3565b5111610f8b576040517f08c379a0000000000000000000000000000000000000000000000000000000008152600401610f8290611d3a565b60405180910390fd5b8484600273__$3c975adaefc32b3bf85fa83c5e7ea0686b$__63732a2ccf9091846040518363ffffffff1660e01b8152600401610fc9929190611d75565b60006040518083038186803b158015610fe157600080fd5b505af4158015610ff5573d6000803e3d6000fd5b505050506040513d6000823e3d601f19601f8201168201806040525081019061101e91906118e3565b518110611060576040517f08c379a000000000000000000000000000000000000000000000000000000000815260040161105790611d1a565b60405180910390fd5b600273__$3c975adaefc32b3bf85fa83c5e7ea0686b$__63732a2ccf9091896040518363ffffffff1660e01b815260040161109c929190611d75565b60006040518083038186803b1580156110b457600080fd5b505af41580156110c8573d6000803e3d6000fd5b505050506040513d6000823e3d601f19601f820116820180604052508101906110f191906118e3565b8681518110611129577f4e487b7100000000000000000000000000000000000000000000000000000000600052603260045260246000fd5b6020026020010151600001519450600273__$3c975adaefc32b3bf85fa83c5e7ea0686b$__63732a2ccf9091896040518363ffffffff1660e01b8152600401611173929190611d75565b60006040518083038186803b15801561118b57600080fd5b505af415801561119f573d6000803e3d6000fd5b505050506040513d6000823e3d601f19601f820116820180604052508101906111c891906118e3565b8681518110611200577f4e487b7100000000000000000000000000000000000000000000000000000000600052603260045260246000fd5b60200260200101516020015193505050509250929050565b336000600273__$3c975adaefc32b3bf85fa83c5e7ea0686b$__63732a2ccf9091846040518363ffffffff1660e01b8152600401611257929190611d75565b60006040518083038186803b15801561126f57600080fd5b505af4158015611283573d6000803e3d6000fd5b505050506040513d6000823e3d601f19601f820116820180604052508101906112ac91906118e3565b51116112ed576040517f08c379a00000000000000000000000000000000000000000000000000000000081526004016112e490611d3a565b60405180910390fd5b3382600273__$3c975adaefc32b3bf85fa83c5e7ea0686b$__63732a2ccf9091846040518363ffffffff1660e01b815260040161132b929190611d75565b60006040518083038186803b15801561134357600080fd5b505af4158015611357573d6000803e3d6000fd5b505050506040513d6000823e3d601f19601f8201168201806040525081019061138091906118e3565b5181106113c2576040517f08c379a00000000000000000000000000000000000000000000000000000000081526004016113b990611d1a565b60405180910390fd5b6000600273__$3c975adaefc32b3bf85fa83c5e7ea0686b$__63732a2ccf9091336040518363ffffffff1660e01b8152600401611400929190611d75565b60006040518083038186803b15801561141857600080fd5b505af415801561142c573d6000803e3d6000fd5b505050506040513d6000823e3d601f19601f8201168201806040525081019061145591906118e3565b858151811061148d577f4e487b7100000000000000000000000000000000000000000000000000000000600052603260045260246000fd5b6020026020010151600001519050600273__$3c975adaefc32b3bf85fa83c5e7ea0686b$__63d34c804a909133886040518463ffffffff1660e01b81526004016114d993929190611dd5565b60006040518083038186803b1580156114f157600080fd5b505af4158015611505573d6000803e3d6000fd5b50505050600160009054906101000a900473ffffffffffffffffffffffffffffffffffffffff1673ffffffffffffffffffffffffffffffffffffffff166323b872dd3033846040518463ffffffff1660e01b815260040161156893929190611c24565b600060405180830381600087803b15801561158257600080fd5b505af1158015611596573d6000803e3d6000fd5b505050507f9aab328f565aee990ccdda0fad461403cefd35ef76e04e7c1df569a5dd633caf33826040516115cb929190611c5b565b60405180910390a15050505050565b6000600273__$3c975adaefc32b3bf85fa83c5e7ea0686b$__63732a2ccf9091846040518363ffffffff1660e01b8152600401611618929190611d75565b60006040518083038186803b15801561163057600080fd5b505af4158015611644573d6000803e3d6000fd5b505050506040513d6000823e3d601f19601f8201168201806040525081019061166d91906118e3565b519050919050565b6000600273__$3c975adaefc32b3bf85fa83c5e7ea0686b$__63d1aa9e7e9091846040518363ffffffff1660e01b81526004016116b3929190611e0c565b60206040518083038186803b1580156116cb57600080fd5b505af41580156116df573d6000803e3d6000fd5b505050506040513d601f19601f82011682018060405250810190611703919061187e565b9050919050565b600061171d61171884611eaa565b611e79565b9050808382526020820190508285604086028201111561173c57600080fd5b60005b8581101561176c578161175288826117df565b84526020840193506040830192505060018101905061173f565b5050509392505050565b60008135905061178581611fa6565b92915050565b60008151905061179a81611fa6565b92915050565b600082601f8301126117b157600080fd5b81516117c184826020860161170a565b91505092915050565b6000815190506117d981611fbd565b92915050565b6000604082840312156117f157600080fd5b6117fb6040611e79565b9050600061180b84828501611840565b600083015250602061181f84828501611840565b60208301525092915050565b60008135905061183a81611fd4565b92915050565b60008151905061184f81611fd4565b92915050565b60006020828403121561186757600080fd5b600061187584828501611776565b91505092915050565b60006020828403121561189057600080fd5b600061189e8482850161178b565b91505092915050565b600080604083850312156118ba57600080fd5b60006118c885828601611776565b92505060206118d98582860161182b565b9150509250929050565b6000602082840312156118f557600080fd5b600082015167ffffffffffffffff81111561190f57600080fd5b61191b848285016117a0565b91505092915050565b60006020828403121561193657600080fd5b6000611944848285016117ca565b91505092915050565b60006020828403121561195f57600080fd5b600061196d8482850161182b565b91505092915050565b60006020828403121561198857600080fd5b600061199684828501611840565b91505092915050565b600080604083850312156119b257600080fd5b60006119c08582860161182b565b92505060206119d18582860161182b565b9150509250929050565b6119e481611ee7565b82525050565b6119f381611ee7565b82525050565b611a0281611f2f565b82525050565b611a1181611f53565b82525050565b6000611a24602083611ed6565b91507f57697370546f6b656e3a20636f6e7472616374206e6f7420617070726f7665646000830152602082019050919050565b6000611a64601f83611ed6565b91507f57697370546f6b656e3a20696e73756666696369656e742062616c616e6365006000830152602082019050919050565b6000611aa4602283611ed6565b91507f54726561737572654e46543a20636f6e7472616374206e6f7420617070726f7660008301527f65640000000000000000000000000000000000000000000000000000000000006020830152604082019050919050565b6000611b0a601283611ed6565b91507f496e646578206f7574206f662072616e676500000000000000000000000000006000830152602082019050919050565b6000611b4a601283611ed6565b91507f4e6f2073616c657320617661696c61626c6500000000000000000000000000006000830152602082019050919050565b8082525050565b604082016000820151611b9a6000850182611bd1565b506020820151611bad6020850182611bd1565b50505050565b611bbc81611f25565b82525050565b611bcb81611f25565b82525050565b611bda81611f25565b82525050565b6000602082019050611bf560008301846119db565b92915050565b6000604082019050611c1060008301856119db565b611c1d60208301846119db565b9392505050565b6000606082019050611c3960008301866119db565b611c4660208301856119db565b611c536040830184611bb3565b949350505050565b6000604082019050611c7060008301856119db565b611c7d6020830184611bb3565b9392505050565b6000602082019050611c9960008301846119f9565b92915050565b6000602082019050611cb46000830184611a08565b92915050565b60006020820190508181036000830152611cd381611a17565b9050919050565b60006020820190508181036000830152611cf381611a57565b9050919050565b60006020820190508181036000830152611d1381611a97565b9050919050565b60006020820190508181036000830152611d3381611afd565b9050919050565b60006020820190508181036000830152611d5381611b3d565b9050919050565b6000602082019050611d6f6000830184611b7d565b92915050565b6000604082019050611d8a6000830185611b7d565b611d9760208301846119ea565b9392505050565b6000608082019050611db36000830186611b7d565b611dc060208301856119ea565b611dcd6040830184611b84565b949350505050565b6000606082019050611dea6000830186611b7d565b611df760208301856119ea565b611e046040830184611bc2565b949350505050565b6000604082019050611e216000830185611b7d565b611e2e6020830184611bc2565b9392505050565b6000602082019050611e4a6000830184611bb3565b92915050565b6000604082019050611e656000830185611bb3565b611e726020830184611bb3565b9392505050565b6000604051905081810181811067ffffffffffffffff82111715611ea057611e9f611f77565b5b8060405250919050565b600067ffffffffffffffff821115611ec557611ec4611f77565b5b602082029050602081019050919050565b600082825260208201905092915050565b6000611ef282611f05565b9050919050565b60008115159050919050565b600073ffffffffffffffffffffffffffffffffffffffff82169050919050565b6000819050919050565b6000611f3a82611f41565b9050919050565b6000611f4c82611f05565b9050919050565b6000611f5e82611f65565b9050919050565b6000611f7082611f05565b9050919050565b7f4e487b7100000000000000000000000000000000000000000000000000000000600052604160045260246000fd5b611faf81611ee7565b8114611fba57600080fd5b50565b611fc681611ef9565b8114611fd157600080fd5b50565b611fdd81611f25565b8114611fe857600080fd5b5056fea2646970667358221220751ea7b64a5e0dcf73796709a44becdfbc01ec741cf2cce843a6deb9365476d664736f6c63430008000033",
  "linkReferences": {
    "contracts/Merchant.sol": {
      "IterableMapping": [
        {
          "length": 20,
          "start": 982
        },
        {
          "length": 20,
          "start": 1194
        },
        {
          "length": 20,
          "start": 1408
        },
        {
          "length": 20,
          "start": 1860
        },
        {
          "length": 20,
          "start": 2309
        },
        {
          "length": 20,
          "start": 2526
        },
        {
          "length": 20,
          "start": 2741
        },
        {
          "length": 20,
          "start": 3896
        },
        {
          "length": 20,
          "start": 4091
        },
        {
          "length": 20,
          "start": 4240
        },
        {
          "length": 20,
          "start": 4452
        },
        {
          "length": 20,
          "start": 4663
        },
        {
          "length": 20,
          "start": 4878
        },
        {
          "length": 20,
          "start": 5106
        },
        {
          "length": 20,
          "start": 5318
        },
        {
          "length": 20,
          "start": 5531
        },
        {
          "length": 20,
          "start": 5746
        },
        {
          "length": 20,
          "start": 6067
        },
        {
          "length": 20,
          "start": 6222
        }
      ]
    }
  },
  "deployedLinkReferences": {
    "contracts/Merchant.sol": {
      "IterableMapping": [
        {
          "length": 20,
          "start": 515
        },
        {
          "length": 20,
          "start": 727
        },
        {
          "length": 20,
          "start": 941
        },
        {
          "length": 20,
          "start": 1393
        },
        {
          "length": 20,
          "start": 1842
        },
        {
          "length": 20,
          "start": 2059
        },
        {
          "length": 20,
          "start": 2274
        },
        {
          "length": 20,
          "start": 3429
        },
        {
          "length": 20,
          "start": 3624
        },
        {
          "length": 20,
          "start": 3773
        },
        {
          "length": 20,
          "start": 3985
        },
        {
          "length": 20,
          "start": 4196
        },
        {
          "length": 20,
          "start": 4411
        },
        {
          "length": 20,
          "start": 4639
        },
        {
          "length": 20,
          "start": 4851
        },
        {
          "length": 20,
          "start": 5064
        },
        {
          "length": 20,
          "start": 5279
        },
        {
          "length": 20,
          "start": 5600
        },
        {
          "length": 20,
          "start": 5755
        }
      ]
    }
  }
}