{
  "_format": "hh-sol-artifact-1",
  "contractName": "Merchant",
  "sourceName": "contracts/Merchant.sol",
  "abi": [
    {
      "inputs": [
        {
          "internalType": "contract WispToken",
          "name": "_wispContract",
          "type": "address"
        },
        {
          "internalType": "contract TreasureNFT",
          "name": "_treasureContract",
          "type": "address"
        }
      ],
      "stateMutability": "nonpayable",
      "type": "constructor"
    },
    {
      "anonymous": false,
      "inputs": [
        {
          "indexed": false,
          "internalType": "address",
          "name": "by",
          "type": "address"
        },
        {
          "indexed": false,
          "internalType": "uint256",
          "name": "tokenId",
          "type": "uint256"
        }
      ],
      "name": "OrderCanceled",
      "type": "event"
    },
    {
      "anonymous": false,
      "inputs": [
        {
          "indexed": false,
          "internalType": "address",
          "name": "by",
          "type": "address"
        },
        {
          "indexed": false,
          "internalType": "uint256",
          "name": "tokenId",
          "type": "uint256"
        }
      ],
      "name": "OrderPlaced",
      "type": "event"
    },
    {
      "anonymous": false,
      "inputs": [
        {
          "indexed": false,
          "internalType": "address",
          "name": "to",
          "type": "address"
        },
        {
          "indexed": false,
          "internalType": "uint256",
          "name": "tokenId",
          "type": "uint256"
        }
      ],
      "name": "Sold",
      "type": "event"
    },
    {
      "inputs": [
        {
          "internalType": "address",
          "name": "seller",
          "type": "address"
        },
        {
          "internalType": "uint256",
          "name": "index",
          "type": "uint256"
        }
      ],
      "name": "buyTreasureOfOwnerByIndex",
      "outputs": [],
      "stateMutability": "nonpayable",
      "type": "function"
    },
    {
      "inputs": [
        {
          "internalType": "uint256",
          "name": "index",
          "type": "uint256"
        }
      ],
      "name": "cancelOrderByIndex",
      "outputs": [],
      "stateMutability": "nonpayable",
      "type": "function"
    },
    {
      "inputs": [
        {
          "internalType": "address",
          "name": "owner",
          "type": "address"
        },
        {
          "internalType": "uint256",
          "name": "index",
          "type": "uint256"
        }
      ],
      "name": "orderOfOwnerByIndex",
      "outputs": [
        {
          "internalType": "uint256",
          "name": "tokenId",
          "type": "uint256"
        },
        {
          "internalType": "uint256",
          "name": "price",
          "type": "uint256"
        }
      ],
      "stateMutability": "view",
      "type": "function"
    },
    {
      "inputs": [
        {
          "internalType": "address",
          "name": "",
          "type": "address"
        },
        {
          "internalType": "uint256",
          "name": "",
          "type": "uint256"
        }
      ],
      "name": "orders",
      "outputs": [
        {
          "internalType": "uint256",
          "name": "tokenId",
          "type": "uint256"
        },
        {
          "internalType": "uint256",
          "name": "price",
          "type": "uint256"
        }
      ],
      "stateMutability": "view",
      "type": "function"
    },
    {
      "inputs": [
        {
          "internalType": "address",
          "name": "owner",
          "type": "address"
        }
      ],
      "name": "ordersOf",
      "outputs": [
        {
          "internalType": "uint256",
          "name": "numberOfOrders",
          "type": "uint256"
        }
      ],
      "stateMutability": "view",
      "type": "function"
    },
    {
      "inputs": [
        {
          "internalType": "uint256",
          "name": "tokenId",
          "type": "uint256"
        },
        {
          "internalType": "uint256",
          "name": "price",
          "type": "uint256"
        }
      ],
      "name": "placeOrder",
      "outputs": [],
      "stateMutability": "nonpayable",
      "type": "function"
    },
    {
      "inputs": [],
      "name": "treasureContract",
      "outputs": [
        {
          "internalType": "contract TreasureNFT",
          "name": "",
          "type": "address"
        }
      ],
      "stateMutability": "view",
      "type": "function"
    },
    {
      "inputs": [],
      "name": "wispContract",
      "outputs": [
        {
          "internalType": "contract WispToken",
          "name": "",
          "type": "address"
        }
      ],
      "stateMutability": "view",
      "type": "function"
    }
  ],
  "bytecode": "0x60806040523480156200001157600080fd5b5060405162001a9338038062001a938339818101604052810190620000379190620000ee565b816000806101000a81548173ffffffffffffffffffffffffffffffffffffffff021916908373ffffffffffffffffffffffffffffffffffffffff16021790555080600160006101000a81548173ffffffffffffffffffffffffffffffffffffffff021916908373ffffffffffffffffffffffffffffffffffffffff1602179055505050620001bf565b600081519050620000d1816200018b565b92915050565b600081519050620000e881620001a5565b92915050565b600080604083850312156200010257600080fd5b60006200011285828601620000d7565b92505060206200012585828601620000c0565b9150509250929050565b60006200013c826200016b565b9050919050565b600062000150826200012f565b9050919050565b600062000164826200012f565b9050919050565b600073ffffffffffffffffffffffffffffffffffffffff82169050919050565b620001968162000143565b8114620001a257600080fd5b50565b620001b08162000157565b8114620001bc57600080fd5b50565b6118c480620001cf6000396000f3fe608060405234801561001057600080fd5b50600436106100885760003560e01c8063a66d69981161005b578063a66d699814610112578063aab7c0b114610143578063dbc5fd5914610161578063faae3a6c1461017f57610088565b8063081d38441461008d5780630c66c44b146100a9578063793b8c6d146100c5578063843f61e2146100f6575b600080fd5b6100a760048036038101906100a291906113f8565b6101af565b005b6100c360048036038101906100be9190611393565b610626565b005b6100df60048036038101906100da9190611393565b610d57565b6040516100ed92919061171c565b60405180910390f35b610110600480360381019061010b919061144a565b610d98565b005b61012c60048036038101906101279190611393565b611013565b60405161013a92919061171c565b60405180910390f35b61014b611242565b6040516101589190611666565b60405180910390f35b610169611266565b604051610176919061164b565b60405180910390f35b61019960048036038101906101949190611341565b61128c565b6040516101a69190611701565b60405180910390f35b336000600260008373ffffffffffffffffffffffffffffffffffffffff1673ffffffffffffffffffffffffffffffffffffffff1681526020019081526020016000208054905011610235576040517f08c379a000000000000000000000000000000000000000000000000000000000815260040161022c906116a1565b60405180910390fd5b3382600260008373ffffffffffffffffffffffffffffffffffffffff1673ffffffffffffffffffffffffffffffffffffffff1681526020019081526020016000208054905081106102bb576040517f08c379a00000000000000000000000000000000000000000000000000000000081526004016102b2906116c1565b60405180910390fd5b6000600260003373ffffffffffffffffffffffffffffffffffffffff1673ffffffffffffffffffffffffffffffffffffffff1681526020019081526020016000208581548110610334577f4e487b7100000000000000000000000000000000000000000000000000000000600052603260045260246000fd5b9060005260206000209060020201600001549050600260003373ffffffffffffffffffffffffffffffffffffffff1673ffffffffffffffffffffffffffffffffffffffff1681526020019081526020016000206001600260003373ffffffffffffffffffffffffffffffffffffffff1673ffffffffffffffffffffffffffffffffffffffff168152602001908152602001600020805490506103d69190611756565b8154811061040d577f4e487b7100000000000000000000000000000000000000000000000000000000600052603260045260246000fd5b9060005260206000209060020201600260003373ffffffffffffffffffffffffffffffffffffffff1673ffffffffffffffffffffffffffffffffffffffff1681526020019081526020016000208681548110610492577f4e487b7100000000000000000000000000000000000000000000000000000000600052603260045260246000fd5b90600052602060002090600202016000820154816000015560018201548160010155905050600260003373ffffffffffffffffffffffffffffffffffffffff1673ffffffffffffffffffffffffffffffffffffffff16815260200190815260200160002080548061052c577f4e487b7100000000000000000000000000000000000000000000000000000000600052603160045260246000fd5b6001900381819060005260206000209060020201600080820160009055600182016000905550509055600160009054906101000a900473ffffffffffffffffffffffffffffffffffffffff1673ffffffffffffffffffffffffffffffffffffffff166323b872dd3033846040518463ffffffff1660e01b81526004016105b4939291906115eb565b600060405180830381600087803b1580156105ce57600080fd5b505af11580156105e2573d6000803e3d6000fd5b505050507fafe5d45b77c7cea746dab67e30e6ca60c00cec51787feb121441c48ec20e3e573382604051610617929190611622565b60405180910390a15050505050565b816000600260008373ffffffffffffffffffffffffffffffffffffffff1673ffffffffffffffffffffffffffffffffffffffff16815260200190815260200160002080549050116106ac576040517f08c379a00000000000000000000000000000000000000000000000000000000081526004016106a3906116a1565b60405180910390fd5b8282600260008373ffffffffffffffffffffffffffffffffffffffff1673ffffffffffffffffffffffffffffffffffffffff168152602001908152602001600020805490508110610732576040517f08c379a0000000000000000000000000000000000000000000000000000000008152600401610729906116c1565b60405180910390fd5b338585600260008373ffffffffffffffffffffffffffffffffffffffff1673ffffffffffffffffffffffffffffffffffffffff16815260200190815260200160002081815481106107ac577f4e487b7100000000000000000000000000000000000000000000000000000000600052603260045260246000fd5b90600052602060002090600202016001015460008054906101000a900473ffffffffffffffffffffffffffffffffffffffff1673ffffffffffffffffffffffffffffffffffffffff1663dd62ed3e85306040518363ffffffff1660e01b81526004016108199291906115c2565b60206040518083038186803b15801561083157600080fd5b505afa158015610845573d6000803e3d6000fd5b505050506040513d601f19601f820116820180604052508101906108699190611421565b10156108aa576040517f08c379a00000000000000000000000000000000000000000000000000000000081526004016108a190611681565b60405180910390fd5b6000600260008a73ffffffffffffffffffffffffffffffffffffffff1673ffffffffffffffffffffffffffffffffffffffff1681526020019081526020016000208881548110610923577f4e487b7100000000000000000000000000000000000000000000000000000000600052603260045260246000fd5b90600052602060002090600202016001015490506000600260008b73ffffffffffffffffffffffffffffffffffffffff1673ffffffffffffffffffffffffffffffffffffffff16815260200190815260200160002089815481106109b0577f4e487b7100000000000000000000000000000000000000000000000000000000600052603260045260246000fd5b9060005260206000209060020201600001549050600260008b73ffffffffffffffffffffffffffffffffffffffff1673ffffffffffffffffffffffffffffffffffffffff1681526020019081526020016000206001600260008d73ffffffffffffffffffffffffffffffffffffffff1673ffffffffffffffffffffffffffffffffffffffff16815260200190815260200160002080549050610a529190611756565b81548110610a89577f4e487b7100000000000000000000000000000000000000000000000000000000600052603260045260246000fd5b9060005260206000209060020201600260008c73ffffffffffffffffffffffffffffffffffffffff1673ffffffffffffffffffffffffffffffffffffffff1681526020019081526020016000208a81548110610b0e577f4e487b7100000000000000000000000000000000000000000000000000000000600052603260045260246000fd5b90600052602060002090600202016000820154816000015560018201548160010155905050600260008b73ffffffffffffffffffffffffffffffffffffffff1673ffffffffffffffffffffffffffffffffffffffff168152602001908152602001600020805480610ba8577f4e487b7100000000000000000000000000000000000000000000000000000000600052603160045260246000fd5b600190038181906000526020600020906002020160008082016000905560018201600090555050905560008054906101000a900473ffffffffffffffffffffffffffffffffffffffff1673ffffffffffffffffffffffffffffffffffffffff166323b872dd338c856040518463ffffffff1660e01b8152600401610c2e939291906115eb565b602060405180830381600087803b158015610c4857600080fd5b505af1158015610c5c573d6000803e3d6000fd5b505050506040513d601f19601f82011682018060405250810190610c8091906113cf565b50600160009054906101000a900473ffffffffffffffffffffffffffffffffffffffff1673ffffffffffffffffffffffffffffffffffffffff166323b872dd3033846040518463ffffffff1660e01b8152600401610ce0939291906115eb565b600060405180830381600087803b158015610cfa57600080fd5b505af1158015610d0e573d6000803e3d6000fd5b505050507fae92ab4b6f8f401ead768d3273e6bb937a13e39827d19c6376e8fd4512a05d9a3382604051610d43929190611622565b60405180910390a150505050505050505050565b60026020528160005260406000208181548110610d7357600080fd5b9060005260206000209060020201600091509150508060000154908060010154905082565b813073ffffffffffffffffffffffffffffffffffffffff16600160009054906101000a900473ffffffffffffffffffffffffffffffffffffffff1673ffffffffffffffffffffffffffffffffffffffff1663081812fc836040518263ffffffff1660e01b8152600401610e0b9190611701565b60206040518083038186803b158015610e2357600080fd5b505afa158015610e37573d6000803e3d6000fd5b505050506040513d601f19601f82011682018060405250810190610e5b919061136a565b73ffffffffffffffffffffffffffffffffffffffff1614610eb1576040517f08c379a0000000000000000000000000000000000000000000000000000000008152600401610ea8906116e1565b60405180910390fd5b600160009054906101000a900473ffffffffffffffffffffffffffffffffffffffff1673ffffffffffffffffffffffffffffffffffffffff166323b872dd3330866040518463ffffffff1660e01b8152600401610f10939291906115eb565b600060405180830381600087803b158015610f2a57600080fd5b505af1158015610f3e573d6000803e3d6000fd5b50505050600260003373ffffffffffffffffffffffffffffffffffffffff1673ffffffffffffffffffffffffffffffffffffffff1681526020019081526020016000206040518060400160405280858152602001848152509080600181540180825580915050600190039060005260206000209060020201600090919091909150600082015181600001556020820151816001015550507ff6f21bda482268b6851cb7d134c9ef42acd2e610afc2ce82688cd2799adacca33384604051611006929190611622565b60405180910390a1505050565b600080836000600260008373ffffffffffffffffffffffffffffffffffffffff1673ffffffffffffffffffffffffffffffffffffffff168152602001908152602001600020805490501161109c576040517f08c379a0000000000000000000000000000000000000000000000000000000008152600401611093906116a1565b60405180910390fd5b8484600260008373ffffffffffffffffffffffffffffffffffffffff1673ffffffffffffffffffffffffffffffffffffffff168152602001908152602001600020805490508110611122576040517f08c379a0000000000000000000000000000000000000000000000000000000008152600401611119906116c1565b60405180910390fd5b600260008873ffffffffffffffffffffffffffffffffffffffff1673ffffffffffffffffffffffffffffffffffffffff1681526020019081526020016000208681548110611199577f4e487b7100000000000000000000000000000000000000000000000000000000600052603260045260246000fd5b9060005260206000209060020201600001549450600260008873ffffffffffffffffffffffffffffffffffffffff1673ffffffffffffffffffffffffffffffffffffffff1681526020019081526020016000208681548110611224577f4e487b7100000000000000000000000000000000000000000000000000000000600052603260045260246000fd5b90600052602060002090600202016001015493505050509250929050565b60008054906101000a900473ffffffffffffffffffffffffffffffffffffffff1681565b600160009054906101000a900473ffffffffffffffffffffffffffffffffffffffff1681565b6000600260008373ffffffffffffffffffffffffffffffffffffffff1673ffffffffffffffffffffffffffffffffffffffff168152602001908152602001600020805490509050919050565b6000813590506112e781611849565b92915050565b6000815190506112fc81611849565b92915050565b60008151905061131181611860565b92915050565b60008135905061132681611877565b92915050565b60008151905061133b81611877565b92915050565b60006020828403121561135357600080fd5b6000611361848285016112d8565b91505092915050565b60006020828403121561137c57600080fd5b600061138a848285016112ed565b91505092915050565b600080604083850312156113a657600080fd5b60006113b4858286016112d8565b92505060206113c585828601611317565b9150509250929050565b6000602082840312156113e157600080fd5b60006113ef84828501611302565b91505092915050565b60006020828403121561140a57600080fd5b600061141884828501611317565b91505092915050565b60006020828403121561143357600080fd5b60006114418482850161132c565b91505092915050565b6000806040838503121561145d57600080fd5b600061146b85828601611317565b925050602061147c85828601611317565b9150509250929050565b61148f8161178a565b82525050565b61149e816117d2565b82525050565b6114ad816117f6565b82525050565b60006114c0601e83611745565b91507f496e73756666696369656e7420617070726f7665642062616c616e63652e00006000830152602082019050919050565b6000611500601383611745565b91507f4e6f206f7264657220617661696c61626c652e000000000000000000000000006000830152602082019050919050565b6000611540601383611745565b91507f496e646578206f7574206f662072616e67652e000000000000000000000000006000830152602082019050919050565b6000611580601983611745565b91507f54726561737572654e4654206e6f7420617070726f7665642e000000000000006000830152602082019050919050565b6115bc816117c8565b82525050565b60006040820190506115d76000830185611486565b6115e46020830184611486565b9392505050565b60006060820190506116006000830186611486565b61160d6020830185611486565b61161a60408301846115b3565b949350505050565b60006040820190506116376000830185611486565b61164460208301846115b3565b9392505050565b60006020820190506116606000830184611495565b92915050565b600060208201905061167b60008301846114a4565b92915050565b6000602082019050818103600083015261169a816114b3565b9050919050565b600060208201905081810360008301526116ba816114f3565b9050919050565b600060208201905081810360008301526116da81611533565b9050919050565b600060208201905081810360008301526116fa81611573565b9050919050565b600060208201905061171660008301846115b3565b92915050565b600060408201905061173160008301856115b3565b61173e60208301846115b3565b9392505050565b600082825260208201905092915050565b6000611761826117c8565b915061176c836117c8565b92508282101561177f5761177e61181a565b5b828203905092915050565b6000611795826117a8565b9050919050565b60008115159050919050565b600073ffffffffffffffffffffffffffffffffffffffff82169050919050565b6000819050919050565b60006117dd826117e4565b9050919050565b60006117ef826117a8565b9050919050565b600061180182611808565b9050919050565b6000611813826117a8565b9050919050565b7f4e487b7100000000000000000000000000000000000000000000000000000000600052601160045260246000fd5b6118528161178a565b811461185d57600080fd5b50565b6118698161179c565b811461187457600080fd5b50565b611880816117c8565b811461188b57600080fd5b5056fea264697066735822122018ddec89b0f1b3720c9bde9a9951cdfdf1c279b0404ebe729da42667d45603cf64736f6c63430008000033",
  "linkReferences": {},
  "deployedLinkReferences": {}
}