{
  "_format": "hh-sol-artifact-1",
  "contractName": "Merchant",
  "sourceName": "contracts/Merchant.sol",
  "abi": [
    {
      "inputs": [
        {
          "internalType": "contract WispToken",
          "name": "_wispContract",
          "type": "address"
        },
        {
          "internalType": "contract TreasureNFT",
          "name": "_treasureContract",
          "type": "address"
        }
      ],
      "stateMutability": "nonpayable",
      "type": "constructor"
    },
    {
      "anonymous": false,
      "inputs": [
        {
          "indexed": false,
          "internalType": "address",
          "name": "by",
          "type": "address"
        },
        {
          "indexed": false,
          "internalType": "uint256",
          "name": "tokenId",
          "type": "uint256"
        }
      ],
      "name": "OrderCanceled",
      "type": "event"
    },
    {
      "anonymous": false,
      "inputs": [
        {
          "indexed": false,
          "internalType": "address",
          "name": "by",
          "type": "address"
        },
        {
          "indexed": false,
          "internalType": "uint256",
          "name": "tokenId",
          "type": "uint256"
        }
      ],
      "name": "OrderPlaced",
      "type": "event"
    },
    {
      "inputs": [
        {
          "internalType": "uint256",
          "name": "index",
          "type": "uint256"
        }
      ],
      "name": "cancelOrderByIndex",
      "outputs": [],
      "stateMutability": "nonpayable",
      "type": "function"
    },
    {
      "inputs": [
        {
          "internalType": "address",
          "name": "",
          "type": "address"
        },
        {
          "internalType": "uint256",
          "name": "",
          "type": "uint256"
        }
      ],
      "name": "orders",
      "outputs": [
        {
          "internalType": "uint256",
          "name": "tokenId",
          "type": "uint256"
        },
        {
          "internalType": "uint256",
          "name": "price",
          "type": "uint256"
        }
      ],
      "stateMutability": "view",
      "type": "function"
    },
    {
      "inputs": [
        {
          "internalType": "address",
          "name": "owner",
          "type": "address"
        }
      ],
      "name": "ordersOf",
      "outputs": [
        {
          "internalType": "uint256",
          "name": "numberOfOrders",
          "type": "uint256"
        }
      ],
      "stateMutability": "view",
      "type": "function"
    },
    {
      "inputs": [
        {
          "internalType": "uint256",
          "name": "tokenId",
          "type": "uint256"
        },
        {
          "internalType": "uint256",
          "name": "price",
          "type": "uint256"
        }
      ],
      "name": "placeOrder",
      "outputs": [],
      "stateMutability": "nonpayable",
      "type": "function"
    },
    {
      "inputs": [],
      "name": "treasureContract",
      "outputs": [
        {
          "internalType": "contract TreasureNFT",
          "name": "",
          "type": "address"
        }
      ],
      "stateMutability": "view",
      "type": "function"
    },
    {
      "inputs": [],
      "name": "wispContract",
      "outputs": [
        {
          "internalType": "contract WispToken",
          "name": "",
          "type": "address"
        }
      ],
      "stateMutability": "view",
      "type": "function"
    }
  ],
  "bytecode": "0x60806040523480156200001157600080fd5b5060405162000f9638038062000f968339818101604052810190620000379190620000ee565b816000806101000a81548173ffffffffffffffffffffffffffffffffffffffff021916908373ffffffffffffffffffffffffffffffffffffffff16021790555080600160006101000a81548173ffffffffffffffffffffffffffffffffffffffff021916908373ffffffffffffffffffffffffffffffffffffffff1602179055505050620001bf565b600081519050620000d1816200018b565b92915050565b600081519050620000e881620001a5565b92915050565b600080604083850312156200010257600080fd5b60006200011285828601620000d7565b92505060206200012585828601620000c0565b9150509250929050565b60006200013c826200016b565b9050919050565b600062000150826200012f565b9050919050565b600062000164826200012f565b9050919050565b600073ffffffffffffffffffffffffffffffffffffffff82169050919050565b620001968162000143565b8114620001a257600080fd5b50565b620001b08162000157565b8114620001bc57600080fd5b50565b610dc780620001cf6000396000f3fe608060405234801561001057600080fd5b50600436106100625760003560e01c8063081d384414610067578063793b8c6d14610083578063843f61e2146100b4578063aab7c0b1146100d0578063dbc5fd59146100ee578063faae3a6c1461010c575b600080fd5b610081600480360381019061007c91906109d0565b61013c565b005b61009d60048036038101906100989190610994565b6105b1565b6040516100ab929190610c42565b60405180910390f35b6100ce60048036038101906100c991906109f9565b6105f2565b005b6100d861086d565b6040516100e59190610bac565b60405180910390f35b6100f6610891565b6040516101039190610b91565b60405180910390f35b61012660048036038101906101219190610942565b6108b7565b6040516101339190610c27565b60405180910390f35b806000600260003373ffffffffffffffffffffffffffffffffffffffff1673ffffffffffffffffffffffffffffffffffffffff16815260200190815260200160002080549050116101c2576040517f08c379a00000000000000000000000000000000000000000000000000000000081526004016101b990610bc7565b60405180910390fd5b81600260003373ffffffffffffffffffffffffffffffffffffffff1673ffffffffffffffffffffffffffffffffffffffff168152602001908152602001600020805490508110610247576040517f08c379a000000000000000000000000000000000000000000000000000000000815260040161023e90610be7565b60405180910390fd5b6000600260003373ffffffffffffffffffffffffffffffffffffffff1673ffffffffffffffffffffffffffffffffffffffff16815260200190815260200160002084815481106102c0577f4e487b7100000000000000000000000000000000000000000000000000000000600052603260045260246000fd5b9060005260206000209060020201600001549050600160009054906101000a900473ffffffffffffffffffffffffffffffffffffffff1673ffffffffffffffffffffffffffffffffffffffff166323b872dd3033846040518463ffffffff1660e01b815260040161033393929190610b31565b600060405180830381600087803b15801561034d57600080fd5b505af1158015610361573d6000803e3d6000fd5b50505050600260003373ffffffffffffffffffffffffffffffffffffffff1673ffffffffffffffffffffffffffffffffffffffff1681526020019081526020016000206001600260003373ffffffffffffffffffffffffffffffffffffffff1673ffffffffffffffffffffffffffffffffffffffff168152602001908152602001600020805490506103f39190610c7c565b8154811061042a577f4e487b7100000000000000000000000000000000000000000000000000000000600052603260045260246000fd5b9060005260206000209060020201600260003373ffffffffffffffffffffffffffffffffffffffff1673ffffffffffffffffffffffffffffffffffffffff16815260200190815260200160002085815481106104af577f4e487b7100000000000000000000000000000000000000000000000000000000600052603260045260246000fd5b90600052602060002090600202016000820154816000015560018201548160010155905050600260003373ffffffffffffffffffffffffffffffffffffffff1673ffffffffffffffffffffffffffffffffffffffff168152602001908152602001600020805480610549577f4e487b7100000000000000000000000000000000000000000000000000000000600052603160045260246000fd5b60019003818190600052602060002090600202016000808201600090556001820160009055505090557fafe5d45b77c7cea746dab67e30e6ca60c00cec51787feb121441c48ec20e3e5733826040516105a3929190610b68565b60405180910390a150505050565b600260205281600052604060002081815481106105cd57600080fd5b9060005260206000209060020201600091509150508060000154908060010154905082565b813073ffffffffffffffffffffffffffffffffffffffff16600160009054906101000a900473ffffffffffffffffffffffffffffffffffffffff1673ffffffffffffffffffffffffffffffffffffffff1663081812fc836040518263ffffffff1660e01b81526004016106659190610c27565b60206040518083038186803b15801561067d57600080fd5b505afa158015610691573d6000803e3d6000fd5b505050506040513d601f19601f820116820180604052508101906106b5919061096b565b73ffffffffffffffffffffffffffffffffffffffff161461070b576040517f08c379a000000000000000000000000000000000000000000000000000000000815260040161070290610c07565b60405180910390fd5b600160009054906101000a900473ffffffffffffffffffffffffffffffffffffffff1673ffffffffffffffffffffffffffffffffffffffff166323b872dd3330866040518463ffffffff1660e01b815260040161076a93929190610b31565b600060405180830381600087803b15801561078457600080fd5b505af1158015610798573d6000803e3d6000fd5b50505050600260003373ffffffffffffffffffffffffffffffffffffffff1673ffffffffffffffffffffffffffffffffffffffff1681526020019081526020016000206040518060400160405280858152602001848152509080600181540180825580915050600190039060005260206000209060020201600090919091909150600082015181600001556020820151816001015550507ff6f21bda482268b6851cb7d134c9ef42acd2e610afc2ce82688cd2799adacca33384604051610860929190610b68565b60405180910390a1505050565b60008054906101000a900473ffffffffffffffffffffffffffffffffffffffff1681565b600160009054906101000a900473ffffffffffffffffffffffffffffffffffffffff1681565b6000600260008373ffffffffffffffffffffffffffffffffffffffff1673ffffffffffffffffffffffffffffffffffffffff168152602001908152602001600020805490509050919050565b60008135905061091281610d63565b92915050565b60008151905061092781610d63565b92915050565b60008135905061093c81610d7a565b92915050565b60006020828403121561095457600080fd5b600061096284828501610903565b91505092915050565b60006020828403121561097d57600080fd5b600061098b84828501610918565b91505092915050565b600080604083850312156109a757600080fd5b60006109b585828601610903565b92505060206109c68582860161092d565b9150509250929050565b6000602082840312156109e257600080fd5b60006109f08482850161092d565b91505092915050565b60008060408385031215610a0c57600080fd5b6000610a1a8582860161092d565b9250506020610a2b8582860161092d565b9150509250929050565b610a3e81610cb0565b82525050565b610a4d81610cec565b82525050565b610a5c81610d10565b82525050565b6000610a6f601383610c6b565b91507f4e6f206f7264657220617661696c61626c652e000000000000000000000000006000830152602082019050919050565b6000610aaf601383610c6b565b91507f496e646578206f7574206f662072616e67652e000000000000000000000000006000830152602082019050919050565b6000610aef601983610c6b565b91507f54726561737572654e4654206e6f7420617070726f7665642e000000000000006000830152602082019050919050565b610b2b81610ce2565b82525050565b6000606082019050610b466000830186610a35565b610b536020830185610a35565b610b606040830184610b22565b949350505050565b6000604082019050610b7d6000830185610a35565b610b8a6020830184610b22565b9392505050565b6000602082019050610ba66000830184610a44565b92915050565b6000602082019050610bc16000830184610a53565b92915050565b60006020820190508181036000830152610be081610a62565b9050919050565b60006020820190508181036000830152610c0081610aa2565b9050919050565b60006020820190508181036000830152610c2081610ae2565b9050919050565b6000602082019050610c3c6000830184610b22565b92915050565b6000604082019050610c576000830185610b22565b610c646020830184610b22565b9392505050565b600082825260208201905092915050565b6000610c8782610ce2565b9150610c9283610ce2565b925082821015610ca557610ca4610d34565b5b828203905092915050565b6000610cbb82610cc2565b9050919050565b600073ffffffffffffffffffffffffffffffffffffffff82169050919050565b6000819050919050565b6000610cf782610cfe565b9050919050565b6000610d0982610cc2565b9050919050565b6000610d1b82610d22565b9050919050565b6000610d2d82610cc2565b9050919050565b7f4e487b7100000000000000000000000000000000000000000000000000000000600052601160045260246000fd5b610d6c81610cb0565b8114610d7757600080fd5b50565b610d8381610ce2565b8114610d8e57600080fd5b5056fea264697066735822122011fb81cd2e4cd978ee3e72d56a551eee065146f2d8326969613a18a99374789564736f6c63430008000033",
  "linkReferences": {},
  "deployedLinkReferences": {}
}