{
  "_format": "hh-sol-artifact-1",
  "contractName": "Merchant",
  "sourceName": "contracts/Merchant.sol",
  "abi": [
    {
      "inputs": [
        {
          "internalType": "contract WispToken",
          "name": "_wispContract",
          "type": "address"
        },
        {
          "internalType": "contract TreasureNFT",
          "name": "_treasureContract",
          "type": "address"
        }
      ],
      "stateMutability": "nonpayable",
      "type": "constructor"
    },
    {
      "anonymous": false,
      "inputs": [
        {
          "indexed": false,
          "internalType": "address",
          "name": "by",
          "type": "address"
        },
        {
          "indexed": false,
          "internalType": "uint256",
          "name": "tokenId",
          "type": "uint256"
        }
      ],
      "name": "OrderCanceled",
      "type": "event"
    },
    {
      "anonymous": false,
      "inputs": [
        {
          "indexed": false,
          "internalType": "address",
          "name": "by",
          "type": "address"
        },
        {
          "indexed": false,
          "internalType": "uint256",
          "name": "tokenId",
          "type": "uint256"
        }
      ],
      "name": "OrderPlaced",
      "type": "event"
    },
    {
      "anonymous": false,
      "inputs": [
        {
          "indexed": false,
          "internalType": "address",
          "name": "to",
          "type": "address"
        },
        {
          "indexed": false,
          "internalType": "uint256",
          "name": "tokenId",
          "type": "uint256"
        }
      ],
      "name": "Sold",
      "type": "event"
    },
    {
      "inputs": [
        {
          "internalType": "address",
          "name": "seller",
          "type": "address"
        },
        {
          "internalType": "uint256",
          "name": "index",
          "type": "uint256"
        }
      ],
      "name": "buyTreasureOfOwnerByIndex",
      "outputs": [],
      "stateMutability": "nonpayable",
      "type": "function"
    },
    {
      "inputs": [
        {
          "internalType": "uint256",
          "name": "index",
          "type": "uint256"
        }
      ],
      "name": "cancelOrderByIndex",
      "outputs": [],
      "stateMutability": "nonpayable",
      "type": "function"
    },
    {
      "inputs": [
        {
          "internalType": "address",
          "name": "owner",
          "type": "address"
        },
        {
          "internalType": "uint256",
          "name": "index",
          "type": "uint256"
        }
      ],
      "name": "orderOfOwnerByIndex",
      "outputs": [
        {
          "internalType": "uint256",
          "name": "tokenId",
          "type": "uint256"
        },
        {
          "internalType": "uint256",
          "name": "price",
          "type": "uint256"
        }
      ],
      "stateMutability": "view",
      "type": "function"
    },
    {
      "inputs": [
        {
          "internalType": "address",
          "name": "",
          "type": "address"
        },
        {
          "internalType": "uint256",
          "name": "",
          "type": "uint256"
        }
      ],
      "name": "orders",
      "outputs": [
        {
          "internalType": "uint256",
          "name": "tokenId",
          "type": "uint256"
        },
        {
          "internalType": "uint256",
          "name": "price",
          "type": "uint256"
        }
      ],
      "stateMutability": "view",
      "type": "function"
    },
    {
      "inputs": [
        {
          "internalType": "address",
          "name": "owner",
          "type": "address"
        }
      ],
      "name": "ordersOf",
      "outputs": [
        {
          "internalType": "uint256",
          "name": "numberOfOrders",
          "type": "uint256"
        }
      ],
      "stateMutability": "view",
      "type": "function"
    },
    {
      "inputs": [
        {
          "internalType": "uint256",
          "name": "tokenId",
          "type": "uint256"
        },
        {
          "internalType": "uint256",
          "name": "price",
          "type": "uint256"
        }
      ],
      "name": "placeOrder",
      "outputs": [],
      "stateMutability": "nonpayable",
      "type": "function"
    },
    {
      "inputs": [],
      "name": "treasureContract",
      "outputs": [
        {
          "internalType": "contract TreasureNFT",
          "name": "",
          "type": "address"
        }
      ],
      "stateMutability": "view",
      "type": "function"
    },
    {
      "inputs": [],
      "name": "wispContract",
      "outputs": [
        {
          "internalType": "contract WispToken",
          "name": "",
          "type": "address"
        }
      ],
      "stateMutability": "view",
      "type": "function"
    }
  ],
  "bytecode": "0x60806040523480156200001157600080fd5b5060405162001a5638038062001a568339818101604052810190620000379190620000ee565b816000806101000a81548173ffffffffffffffffffffffffffffffffffffffff021916908373ffffffffffffffffffffffffffffffffffffffff16021790555080600160006101000a81548173ffffffffffffffffffffffffffffffffffffffff021916908373ffffffffffffffffffffffffffffffffffffffff1602179055505050620001bf565b600081519050620000d1816200018b565b92915050565b600081519050620000e881620001a5565b92915050565b600080604083850312156200010257600080fd5b60006200011285828601620000d7565b92505060206200012585828601620000c0565b9150509250929050565b60006200013c826200016b565b9050919050565b600062000150826200012f565b9050919050565b600062000164826200012f565b9050919050565b600073ffffffffffffffffffffffffffffffffffffffff82169050919050565b620001968162000143565b8114620001a257600080fd5b50565b620001b08162000157565b8114620001bc57600080fd5b50565b61188780620001cf6000396000f3fe608060405234801561001057600080fd5b50600436106100885760003560e01c8063a66d69981161005b578063a66d699814610112578063aab7c0b114610143578063dbc5fd5914610161578063faae3a6c1461017f57610088565b8063081d38441461008d5780630c66c44b146100a9578063793b8c6d146100c5578063843f61e2146100f6575b600080fd5b6100a760048036038101906100a29190611395565b6101af565b005b6100c360048036038101906100be9190611330565b610626565b005b6100df60048036038101906100da9190611330565b610d57565b6040516100ed9291906116df565b60405180910390f35b610110600480360381019061010b91906113e7565b610d98565b005b61012c60048036038101906101279190611330565b610fee565b60405161013a9291906116df565b60405180910390f35b61014b61121d565b6040516101589190611629565b60405180910390f35b610169611241565b604051610176919061160e565b60405180910390f35b61019960048036038101906101949190611307565b611267565b6040516101a691906116c4565b60405180910390f35b336000600260008373ffffffffffffffffffffffffffffffffffffffff1673ffffffffffffffffffffffffffffffffffffffff1681526020019081526020016000208054905011610235576040517f08c379a000000000000000000000000000000000000000000000000000000000815260040161022c90611644565b60405180910390fd5b3382600260008373ffffffffffffffffffffffffffffffffffffffff1673ffffffffffffffffffffffffffffffffffffffff1681526020019081526020016000208054905081106102bb576040517f08c379a00000000000000000000000000000000000000000000000000000000081526004016102b2906116a4565b60405180910390fd5b6000600260003373ffffffffffffffffffffffffffffffffffffffff1673ffffffffffffffffffffffffffffffffffffffff1681526020019081526020016000208581548110610334577f4e487b7100000000000000000000000000000000000000000000000000000000600052603260045260246000fd5b9060005260206000209060020201600001549050600260003373ffffffffffffffffffffffffffffffffffffffff1673ffffffffffffffffffffffffffffffffffffffff1681526020019081526020016000206001600260003373ffffffffffffffffffffffffffffffffffffffff1673ffffffffffffffffffffffffffffffffffffffff168152602001908152602001600020805490506103d69190611719565b8154811061040d577f4e487b7100000000000000000000000000000000000000000000000000000000600052603260045260246000fd5b9060005260206000209060020201600260003373ffffffffffffffffffffffffffffffffffffffff1673ffffffffffffffffffffffffffffffffffffffff1681526020019081526020016000208681548110610492577f4e487b7100000000000000000000000000000000000000000000000000000000600052603260045260246000fd5b90600052602060002090600202016000820154816000015560018201548160010155905050600260003373ffffffffffffffffffffffffffffffffffffffff1673ffffffffffffffffffffffffffffffffffffffff16815260200190815260200160002080548061052c577f4e487b7100000000000000000000000000000000000000000000000000000000600052603160045260246000fd5b6001900381819060005260206000209060020201600080820160009055600182016000905550509055600160009054906101000a900473ffffffffffffffffffffffffffffffffffffffff1673ffffffffffffffffffffffffffffffffffffffff166323b872dd3033846040518463ffffffff1660e01b81526004016105b4939291906115ae565b600060405180830381600087803b1580156105ce57600080fd5b505af11580156105e2573d6000803e3d6000fd5b505050507fafe5d45b77c7cea746dab67e30e6ca60c00cec51787feb121441c48ec20e3e5733826040516106179291906115e5565b60405180910390a15050505050565b816000600260008373ffffffffffffffffffffffffffffffffffffffff1673ffffffffffffffffffffffffffffffffffffffff16815260200190815260200160002080549050116106ac576040517f08c379a00000000000000000000000000000000000000000000000000000000081526004016106a390611644565b60405180910390fd5b8282600260008373ffffffffffffffffffffffffffffffffffffffff1673ffffffffffffffffffffffffffffffffffffffff168152602001908152602001600020805490508110610732576040517f08c379a0000000000000000000000000000000000000000000000000000000008152600401610729906116a4565b60405180910390fd5b338585600260008373ffffffffffffffffffffffffffffffffffffffff1673ffffffffffffffffffffffffffffffffffffffff16815260200190815260200160002081815481106107ac577f4e487b7100000000000000000000000000000000000000000000000000000000600052603260045260246000fd5b90600052602060002090600202016001015460008054906101000a900473ffffffffffffffffffffffffffffffffffffffff1673ffffffffffffffffffffffffffffffffffffffff1663dd62ed3e85306040518363ffffffff1660e01b8152600401610819929190611585565b60206040518083038186803b15801561083157600080fd5b505afa158015610845573d6000803e3d6000fd5b505050506040513d601f19601f8201168201806040525081019061086991906113be565b10156108aa576040517f08c379a00000000000000000000000000000000000000000000000000000000081526004016108a190611664565b60405180910390fd5b6000600260008a73ffffffffffffffffffffffffffffffffffffffff1673ffffffffffffffffffffffffffffffffffffffff1681526020019081526020016000208881548110610923577f4e487b7100000000000000000000000000000000000000000000000000000000600052603260045260246000fd5b90600052602060002090600202016001015490506000600260008b73ffffffffffffffffffffffffffffffffffffffff1673ffffffffffffffffffffffffffffffffffffffff16815260200190815260200160002089815481106109b0577f4e487b7100000000000000000000000000000000000000000000000000000000600052603260045260246000fd5b9060005260206000209060020201600001549050600260008b73ffffffffffffffffffffffffffffffffffffffff1673ffffffffffffffffffffffffffffffffffffffff1681526020019081526020016000206001600260008d73ffffffffffffffffffffffffffffffffffffffff1673ffffffffffffffffffffffffffffffffffffffff16815260200190815260200160002080549050610a529190611719565b81548110610a89577f4e487b7100000000000000000000000000000000000000000000000000000000600052603260045260246000fd5b9060005260206000209060020201600260008c73ffffffffffffffffffffffffffffffffffffffff1673ffffffffffffffffffffffffffffffffffffffff1681526020019081526020016000208a81548110610b0e577f4e487b7100000000000000000000000000000000000000000000000000000000600052603260045260246000fd5b90600052602060002090600202016000820154816000015560018201548160010155905050600260008b73ffffffffffffffffffffffffffffffffffffffff1673ffffffffffffffffffffffffffffffffffffffff168152602001908152602001600020805480610ba8577f4e487b7100000000000000000000000000000000000000000000000000000000600052603160045260246000fd5b600190038181906000526020600020906002020160008082016000905560018201600090555050905560008054906101000a900473ffffffffffffffffffffffffffffffffffffffff1673ffffffffffffffffffffffffffffffffffffffff166323b872dd338c856040518463ffffffff1660e01b8152600401610c2e939291906115ae565b602060405180830381600087803b158015610c4857600080fd5b505af1158015610c5c573d6000803e3d6000fd5b505050506040513d601f19601f82011682018060405250810190610c80919061136c565b50600160009054906101000a900473ffffffffffffffffffffffffffffffffffffffff1673ffffffffffffffffffffffffffffffffffffffff166323b872dd3033846040518463ffffffff1660e01b8152600401610ce0939291906115ae565b600060405180830381600087803b158015610cfa57600080fd5b505af1158015610d0e573d6000803e3d6000fd5b505050507fae92ab4b6f8f401ead768d3273e6bb937a13e39827d19c6376e8fd4512a05d9a3382604051610d439291906115e5565b60405180910390a150505050505050505050565b60026020528160005260406000208181548110610d7357600080fd5b9060005260206000209060020201600091509150508060000154908060010154905082565b3360011515600160009054906101000a900473ffffffffffffffffffffffffffffffffffffffff1673ffffffffffffffffffffffffffffffffffffffff1663e985e9c583306040518363ffffffff1660e01b8152600401610dfa929190611585565b60206040518083038186803b158015610e1257600080fd5b505afa158015610e26573d6000803e3d6000fd5b505050506040513d601f19601f82011682018060405250810190610e4a919061136c565b151514610e8c576040517f08c379a0000000000000000000000000000000000000000000000000000000008152600401610e8390611684565b60405180910390fd5b600160009054906101000a900473ffffffffffffffffffffffffffffffffffffffff1673ffffffffffffffffffffffffffffffffffffffff166323b872dd3330866040518463ffffffff1660e01b8152600401610eeb939291906115ae565b600060405180830381600087803b158015610f0557600080fd5b505af1158015610f19573d6000803e3d6000fd5b50505050600260003373ffffffffffffffffffffffffffffffffffffffff1673ffffffffffffffffffffffffffffffffffffffff1681526020019081526020016000206040518060400160405280858152602001848152509080600181540180825580915050600190039060005260206000209060020201600090919091909150600082015181600001556020820151816001015550507ff6f21bda482268b6851cb7d134c9ef42acd2e610afc2ce82688cd2799adacca33384604051610fe19291906115e5565b60405180910390a1505050565b600080836000600260008373ffffffffffffffffffffffffffffffffffffffff1673ffffffffffffffffffffffffffffffffffffffff1681526020019081526020016000208054905011611077576040517f08c379a000000000000000000000000000000000000000000000000000000000815260040161106e90611644565b60405180910390fd5b8484600260008373ffffffffffffffffffffffffffffffffffffffff1673ffffffffffffffffffffffffffffffffffffffff1681526020019081526020016000208054905081106110fd576040517f08c379a00000000000000000000000000000000000000000000000000000000081526004016110f4906116a4565b60405180910390fd5b600260008873ffffffffffffffffffffffffffffffffffffffff1673ffffffffffffffffffffffffffffffffffffffff1681526020019081526020016000208681548110611174577f4e487b7100000000000000000000000000000000000000000000000000000000600052603260045260246000fd5b9060005260206000209060020201600001549450600260008873ffffffffffffffffffffffffffffffffffffffff1673ffffffffffffffffffffffffffffffffffffffff16815260200190815260200160002086815481106111ff577f4e487b7100000000000000000000000000000000000000000000000000000000600052603260045260246000fd5b90600052602060002090600202016001015493505050509250929050565b60008054906101000a900473ffffffffffffffffffffffffffffffffffffffff1681565b600160009054906101000a900473ffffffffffffffffffffffffffffffffffffffff1681565b6000600260008373ffffffffffffffffffffffffffffffffffffffff1673ffffffffffffffffffffffffffffffffffffffff168152602001908152602001600020805490509050919050565b6000813590506112c28161180c565b92915050565b6000815190506112d781611823565b92915050565b6000813590506112ec8161183a565b92915050565b6000815190506113018161183a565b92915050565b60006020828403121561131957600080fd5b6000611327848285016112b3565b91505092915050565b6000806040838503121561134357600080fd5b6000611351858286016112b3565b9250506020611362858286016112dd565b9150509250929050565b60006020828403121561137e57600080fd5b600061138c848285016112c8565b91505092915050565b6000602082840312156113a757600080fd5b60006113b5848285016112dd565b91505092915050565b6000602082840312156113d057600080fd5b60006113de848285016112f2565b91505092915050565b600080604083850312156113fa57600080fd5b6000611408858286016112dd565b9250506020611419858286016112dd565b9150509250929050565b61142c8161174d565b82525050565b61143b81611795565b82525050565b61144a816117b9565b82525050565b600061145d601283611708565b91507f4e6f206f7264657220617661696c61626c6500000000000000000000000000006000830152602082019050919050565b600061149d602083611708565b91507f57697370546f6b656e3a20636f6e7472616374206e6f7420617070726f7665646000830152602082019050919050565b60006114dd602283611708565b91507f54726561737572654e46543a20636f6e7472616374206e6f7420617070726f7660008301527f65640000000000000000000000000000000000000000000000000000000000006020830152604082019050919050565b6000611543601283611708565b91507f496e646578206f7574206f662072616e676500000000000000000000000000006000830152602082019050919050565b61157f8161178b565b82525050565b600060408201905061159a6000830185611423565b6115a76020830184611423565b9392505050565b60006060820190506115c36000830186611423565b6115d06020830185611423565b6115dd6040830184611576565b949350505050565b60006040820190506115fa6000830185611423565b6116076020830184611576565b9392505050565b60006020820190506116236000830184611432565b92915050565b600060208201905061163e6000830184611441565b92915050565b6000602082019050818103600083015261165d81611450565b9050919050565b6000602082019050818103600083015261167d81611490565b9050919050565b6000602082019050818103600083015261169d816114d0565b9050919050565b600060208201905081810360008301526116bd81611536565b9050919050565b60006020820190506116d96000830184611576565b92915050565b60006040820190506116f46000830185611576565b6117016020830184611576565b9392505050565b600082825260208201905092915050565b60006117248261178b565b915061172f8361178b565b925082821015611742576117416117dd565b5b828203905092915050565b60006117588261176b565b9050919050565b60008115159050919050565b600073ffffffffffffffffffffffffffffffffffffffff82169050919050565b6000819050919050565b60006117a0826117a7565b9050919050565b60006117b28261176b565b9050919050565b60006117c4826117cb565b9050919050565b60006117d68261176b565b9050919050565b7f4e487b7100000000000000000000000000000000000000000000000000000000600052601160045260246000fd5b6118158161174d565b811461182057600080fd5b50565b61182c8161175f565b811461183757600080fd5b50565b6118438161178b565b811461184e57600080fd5b5056fea26469706673582212209aa1101c53aab8ae996580496402171048b1e0cc1ce8dc392519b207df6182a664736f6c63430008000033",
  "linkReferences": {},
  "deployedLinkReferences": {}
}