{
  "_format": "hh-sol-artifact-1",
  "contractName": "Merchant",
  "sourceName": "contracts/Merchant.sol",
  "abi": [
    {
      "inputs": [
        {
          "internalType": "contract WispToken",
          "name": "wispContract",
          "type": "address"
        },
        {
          "internalType": "contract TreasureNFT",
          "name": "trsContract",
          "type": "address"
        }
      ],
      "stateMutability": "nonpayable",
      "type": "constructor"
    },
    {
      "anonymous": false,
      "inputs": [
        {
          "indexed": false,
          "internalType": "address",
          "name": "from",
          "type": "address"
        },
        {
          "indexed": false,
          "internalType": "address",
          "name": "to",
          "type": "address"
        },
        {
          "indexed": false,
          "internalType": "uint256",
          "name": "tokenId",
          "type": "uint256"
        }
      ],
      "name": "ItemSold",
      "type": "event"
    },
    {
      "anonymous": false,
      "inputs": [
        {
          "indexed": false,
          "internalType": "address",
          "name": "from",
          "type": "address"
        },
        {
          "indexed": false,
          "internalType": "uint256",
          "name": "tokenId",
          "type": "uint256"
        }
      ],
      "name": "SaleCanceled",
      "type": "event"
    },
    {
      "anonymous": false,
      "inputs": [
        {
          "indexed": false,
          "internalType": "address",
          "name": "from",
          "type": "address"
        },
        {
          "indexed": false,
          "internalType": "uint256",
          "name": "tokenId",
          "type": "uint256"
        }
      ],
      "name": "SaleCreated",
      "type": "event"
    },
    {
      "inputs": [
        {
          "internalType": "address",
          "name": "owner",
          "type": "address"
        },
        {
          "internalType": "uint256",
          "name": "index",
          "type": "uint256"
        }
      ],
      "name": "buyItemOfOwnerByIndex",
      "outputs": [],
      "stateMutability": "nonpayable",
      "type": "function"
    },
    {
      "inputs": [
        {
          "internalType": "uint256",
          "name": "index",
          "type": "uint256"
        }
      ],
      "name": "cancelSaleByIndex",
      "outputs": [],
      "stateMutability": "nonpayable",
      "type": "function"
    },
    {
      "inputs": [
        {
          "internalType": "address",
          "name": "owner",
          "type": "address"
        },
        {
          "internalType": "uint256",
          "name": "index",
          "type": "uint256"
        }
      ],
      "name": "saleOfOwnerByIndex",
      "outputs": [
        {
          "internalType": "uint256",
          "name": "tokenId",
          "type": "uint256"
        },
        {
          "internalType": "uint256",
          "name": "price",
          "type": "uint256"
        }
      ],
      "stateMutability": "view",
      "type": "function"
    },
    {
      "inputs": [
        {
          "internalType": "address",
          "name": "owner",
          "type": "address"
        }
      ],
      "name": "salesOf",
      "outputs": [
        {
          "internalType": "uint256",
          "name": "salesNum",
          "type": "uint256"
        }
      ],
      "stateMutability": "view",
      "type": "function"
    },
    {
      "inputs": [
        {
          "internalType": "uint256",
          "name": "tokenId",
          "type": "uint256"
        },
        {
          "internalType": "uint256",
          "name": "price",
          "type": "uint256"
        }
      ],
      "name": "sellItem",
      "outputs": [],
      "stateMutability": "nonpayable",
      "type": "function"
    },
    {
      "inputs": [
        {
          "internalType": "uint256",
          "name": "index",
          "type": "uint256"
        }
      ],
      "name": "sellerByIndex",
      "outputs": [
        {
          "internalType": "address",
          "name": "seller",
          "type": "address"
        }
      ],
      "stateMutability": "view",
      "type": "function"
    },
    {
      "inputs": [],
      "name": "totalSellers",
      "outputs": [
        {
          "internalType": "uint256",
          "name": "sellersNum",
          "type": "uint256"
        }
      ],
      "stateMutability": "view",
      "type": "function"
    },
    {
      "inputs": [],
      "name": "trs",
      "outputs": [
        {
          "internalType": "contract TreasureNFT",
          "name": "",
          "type": "address"
        }
      ],
      "stateMutability": "view",
      "type": "function"
    },
    {
      "inputs": [],
      "name": "wisp",
      "outputs": [
        {
          "internalType": "contract WispToken",
          "name": "",
          "type": "address"
        }
      ],
      "stateMutability": "view",
      "type": "function"
    }
  ],
  "bytecode": "0x60806040523480156200001157600080fd5b5060405162001fcf38038062001fcf8339818101604052810190620000379190620000f2565b8082806000806101000a81548173ffffffffffffffffffffffffffffffffffffffff021916908373ffffffffffffffffffffffffffffffffffffffff1602179055505080600160006101000a81548173ffffffffffffffffffffffffffffffffffffffff021916908373ffffffffffffffffffffffffffffffffffffffff160217905550505050620001c3565b600081519050620000d5816200018f565b92915050565b600081519050620000ec81620001a9565b92915050565b600080604083850312156200010657600080fd5b60006200011685828601620000db565b92505060206200012985828601620000c4565b9150509250929050565b600062000140826200016f565b9050919050565b6000620001548262000133565b9050919050565b6000620001688262000133565b9050919050565b600073ffffffffffffffffffffffffffffffffffffffff82169050919050565b6200019a8162000147565b8114620001a657600080fd5b50565b620001b4816200015b565b8114620001c057600080fd5b50565b611dfc80620001d36000396000f3fe608060405234801561001057600080fd5b50600436106100925760003560e01c80636d3f4b7a116100665780636d3f4b7a1461010b578063c96559cd14610129578063d03f7fbf1461015a578063dd88060914610176578063f8dfb9b4146101a657610092565b8062ca15ae14610097578063045f04d6146100b55780631aa4801c146100d15780632d923561146100ef575b600080fd5b61009f6101d6565b6040516100ac9190611a7f565b60405180910390f35b6100cf60048036038101906100ca91906116e2565b6101fc565b005b6100d9610912565b6040516100e69190611a9a565b60405180910390f35b610109600480360381019061010491906117da565b610936565b005b610113610c5d565b6040516101209190611c10565b60405180910390f35b610143600480360381019061013e91906116e2565b610cee565b604051610151929190611c2b565b60405180910390f35b610174600480360381019061016f9190611788565b611053565b005b610190600480360381019061018b9190611690565b611415565b60405161019d9190611c10565b60405180910390f35b6101c060048036038101906101bb9190611788565b6114b0565b6040516101cd91906119db565b60405180910390f35b600160009054906101000a900473ffffffffffffffffffffffffffffffffffffffff1681565b816000600273__$3c975adaefc32b3bf85fa83c5e7ea0686b$__63732a2ccf9091846040518363ffffffff1660e01b815260040161023b929190611b50565b60006040518083038186803b15801561025357600080fd5b505af4158015610267573d6000803e3d6000fd5b505050506040513d6000823e3d601f19601f82011682018060405250810190610290919061171e565b51116102d1576040517f08c379a00000000000000000000000000000000000000000000000000000000081526004016102c890611b15565b60405180910390fd5b8282600273__$3c975adaefc32b3bf85fa83c5e7ea0686b$__63732a2ccf9091846040518363ffffffff1660e01b815260040161030f929190611b50565b60006040518083038186803b15801561032757600080fd5b505af415801561033b573d6000803e3d6000fd5b505050506040513d6000823e3d601f19601f82011682018060405250810190610364919061171e565b5181106103a6576040517f08c379a000000000000000000000000000000000000000000000000000000000815260040161039d90611af5565b60405180910390fd5b338585600273__$3c975adaefc32b3bf85fa83c5e7ea0686b$__63732a2ccf9091846040518363ffffffff1660e01b81526004016103e5929190611b50565b60006040518083038186803b1580156103fd57600080fd5b505af4158015610411573d6000803e3d6000fd5b505050506040513d6000823e3d601f19601f8201168201806040525081019061043a919061171e565b8181518110610472577f4e487b7100000000000000000000000000000000000000000000000000000000600052603260045260246000fd5b60200260200101516020015160008054906101000a900473ffffffffffffffffffffffffffffffffffffffff1673ffffffffffffffffffffffffffffffffffffffff1663dd62ed3e85306040518363ffffffff1660e01b81526004016104d99291906119f6565b60206040518083038186803b1580156104f157600080fd5b505afa158015610505573d6000803e3d6000fd5b505050506040513d601f19601f8201168201806040525081019061052991906117b1565b101561056a576040517f08c379a000000000000000000000000000000000000000000000000000000000815260040161056190611ab5565b60405180910390fd5b6000600273__$3c975adaefc32b3bf85fa83c5e7ea0686b$__63732a2ccf90918b6040518363ffffffff1660e01b81526004016105a8929190611b50565b60006040518083038186803b1580156105c057600080fd5b505af41580156105d4573d6000803e3d6000fd5b505050506040513d6000823e3d601f19601f820116820180604052508101906105fd919061171e565b8881518110610635577f4e487b7100000000000000000000000000000000000000000000000000000000600052603260045260246000fd5b60200260200101516020015190506000600273__$3c975adaefc32b3bf85fa83c5e7ea0686b$__63732a2ccf90918c6040518363ffffffff1660e01b8152600401610681929190611b50565b60006040518083038186803b15801561069957600080fd5b505af41580156106ad573d6000803e3d6000fd5b505050506040513d6000823e3d601f19601f820116820180604052508101906106d6919061171e565b898151811061070e577f4e487b7100000000000000000000000000000000000000000000000000000000600052603260045260246000fd5b6020026020010151600001519050600273__$3c975adaefc32b3bf85fa83c5e7ea0686b$__63d34c804a90918c8c6040518463ffffffff1660e01b815260040161075a93929190611bb0565b60006040518083038186803b15801561077257600080fd5b505af4158015610786573d6000803e3d6000fd5b5050505060008054906101000a900473ffffffffffffffffffffffffffffffffffffffff1673ffffffffffffffffffffffffffffffffffffffff166323b872dd338c856040518463ffffffff1660e01b81526004016107e793929190611a1f565b602060405180830381600087803b15801561080157600080fd5b505af1158015610815573d6000803e3d6000fd5b505050506040513d601f19601f82011682018060405250810190610839919061175f565b50600160009054906101000a900473ffffffffffffffffffffffffffffffffffffffff1673ffffffffffffffffffffffffffffffffffffffff166323b872dd3033846040518463ffffffff1660e01b815260040161089993929190611a1f565b600060405180830381600087803b1580156108b357600080fd5b505af11580156108c7573d6000803e3d6000fd5b505050507f46782f0e6d78441c8eb94ae065d50ff717ce627040111c23f781e52b94b79d838a33836040516108fe93929190611a1f565b60405180910390a150505050505050505050565b60008054906101000a900473ffffffffffffffffffffffffffffffffffffffff1681565b338260011515600160009054906101000a900473ffffffffffffffffffffffffffffffffffffffff1673ffffffffffffffffffffffffffffffffffffffff1663e985e9c584306040518363ffffffff1660e01b81526004016109999291906119f6565b60206040518083038186803b1580156109b157600080fd5b505afa1580156109c5573d6000803e3d6000fd5b505050506040513d601f19601f820116820180604052508101906109e9919061175f565b15151480610acc57503073ffffffffffffffffffffffffffffffffffffffff16600160009054906101000a900473ffffffffffffffffffffffffffffffffffffffff1673ffffffffffffffffffffffffffffffffffffffff1663081812fc836040518263ffffffff1660e01b8152600401610a649190611c10565b60206040518083038186803b158015610a7c57600080fd5b505afa158015610a90573d6000803e3d6000fd5b505050506040513d601f19601f82011682018060405250810190610ab491906116b9565b73ffffffffffffffffffffffffffffffffffffffff16145b610b0b576040517f08c379a0000000000000000000000000000000000000000000000000000000008152600401610b0290611ad5565b60405180910390fd5b600160009054906101000a900473ffffffffffffffffffffffffffffffffffffffff1673ffffffffffffffffffffffffffffffffffffffff166323b872dd3330876040518463ffffffff1660e01b8152600401610b6a93929190611a1f565b600060405180830381600087803b158015610b8457600080fd5b505af1158015610b98573d6000803e3d6000fd5b50505050600273__$3c975adaefc32b3bf85fa83c5e7ea0686b$__6385a49bd19091336040518060400160405280898152602001888152506040518463ffffffff1660e01b8152600401610bee93929190611b79565b60006040518083038186803b158015610c0657600080fd5b505af4158015610c1a573d6000803e3d6000fd5b505050507f371910e598072529180b28c60f34fc7445d99bd870936559016ce9e1282df5153385604051610c4f929190611a56565b60405180910390a150505050565b6000600273__$3c975adaefc32b3bf85fa83c5e7ea0686b$__63deb3d89690916040518263ffffffff1660e01b8152600401610c999190611b35565b60206040518083038186803b158015610cb157600080fd5b505af4158015610cc5573d6000803e3d6000fd5b505050506040513d601f19601f82011682018060405250810190610ce991906117b1565b905090565b600080836000600273__$3c975adaefc32b3bf85fa83c5e7ea0686b$__63732a2ccf9091846040518363ffffffff1660e01b8152600401610d30929190611b50565b60006040518083038186803b158015610d4857600080fd5b505af4158015610d5c573d6000803e3d6000fd5b505050506040513d6000823e3d601f19601f82011682018060405250810190610d85919061171e565b5111610dc6576040517f08c379a0000000000000000000000000000000000000000000000000000000008152600401610dbd90611b15565b60405180910390fd5b8484600273__$3c975adaefc32b3bf85fa83c5e7ea0686b$__63732a2ccf9091846040518363ffffffff1660e01b8152600401610e04929190611b50565b60006040518083038186803b158015610e1c57600080fd5b505af4158015610e30573d6000803e3d6000fd5b505050506040513d6000823e3d601f19601f82011682018060405250810190610e59919061171e565b518110610e9b576040517f08c379a0000000000000000000000000000000000000000000000000000000008152600401610e9290611af5565b60405180910390fd5b600273__$3c975adaefc32b3bf85fa83c5e7ea0686b$__63732a2ccf9091896040518363ffffffff1660e01b8152600401610ed7929190611b50565b60006040518083038186803b158015610eef57600080fd5b505af4158015610f03573d6000803e3d6000fd5b505050506040513d6000823e3d601f19601f82011682018060405250810190610f2c919061171e565b8681518110610f64577f4e487b7100000000000000000000000000000000000000000000000000000000600052603260045260246000fd5b6020026020010151600001519450600273__$3c975adaefc32b3bf85fa83c5e7ea0686b$__63732a2ccf9091896040518363ffffffff1660e01b8152600401610fae929190611b50565b60006040518083038186803b158015610fc657600080fd5b505af4158015610fda573d6000803e3d6000fd5b505050506040513d6000823e3d601f19601f82011682018060405250810190611003919061171e565b868151811061103b577f4e487b7100000000000000000000000000000000000000000000000000000000600052603260045260246000fd5b60200260200101516020015193505050509250929050565b336000600273__$3c975adaefc32b3bf85fa83c5e7ea0686b$__63732a2ccf9091846040518363ffffffff1660e01b8152600401611092929190611b50565b60006040518083038186803b1580156110aa57600080fd5b505af41580156110be573d6000803e3d6000fd5b505050506040513d6000823e3d601f19601f820116820180604052508101906110e7919061171e565b5111611128576040517f08c379a000000000000000000000000000000000000000000000000000000000815260040161111f90611b15565b60405180910390fd5b3382600273__$3c975adaefc32b3bf85fa83c5e7ea0686b$__63732a2ccf9091846040518363ffffffff1660e01b8152600401611166929190611b50565b60006040518083038186803b15801561117e57600080fd5b505af4158015611192573d6000803e3d6000fd5b505050506040513d6000823e3d601f19601f820116820180604052508101906111bb919061171e565b5181106111fd576040517f08c379a00000000000000000000000000000000000000000000000000000000081526004016111f490611af5565b60405180910390fd5b6000600273__$3c975adaefc32b3bf85fa83c5e7ea0686b$__63732a2ccf9091336040518363ffffffff1660e01b815260040161123b929190611b50565b60006040518083038186803b15801561125357600080fd5b505af4158015611267573d6000803e3d6000fd5b505050506040513d6000823e3d601f19601f82011682018060405250810190611290919061171e565b85815181106112c8577f4e487b7100000000000000000000000000000000000000000000000000000000600052603260045260246000fd5b6020026020010151600001519050600273__$3c975adaefc32b3bf85fa83c5e7ea0686b$__63d34c804a909133886040518463ffffffff1660e01b815260040161131493929190611bb0565b60006040518083038186803b15801561132c57600080fd5b505af4158015611340573d6000803e3d6000fd5b50505050600160009054906101000a900473ffffffffffffffffffffffffffffffffffffffff1673ffffffffffffffffffffffffffffffffffffffff166323b872dd3033846040518463ffffffff1660e01b81526004016113a393929190611a1f565b600060405180830381600087803b1580156113bd57600080fd5b505af11580156113d1573d6000803e3d6000fd5b505050507f9aab328f565aee990ccdda0fad461403cefd35ef76e04e7c1df569a5dd633caf3382604051611406929190611a56565b60405180910390a15050505050565b6000600273__$3c975adaefc32b3bf85fa83c5e7ea0686b$__63732a2ccf9091846040518363ffffffff1660e01b8152600401611453929190611b50565b60006040518083038186803b15801561146b57600080fd5b505af415801561147f573d6000803e3d6000fd5b505050506040513d6000823e3d601f19601f820116820180604052508101906114a8919061171e565b519050919050565b6000600273__$3c975adaefc32b3bf85fa83c5e7ea0686b$__63d1aa9e7e9091846040518363ffffffff1660e01b81526004016114ee929190611be7565b60206040518083038186803b15801561150657600080fd5b505af415801561151a573d6000803e3d6000fd5b505050506040513d601f19601f8201168201806040525081019061153e91906116b9565b9050919050565b600061155861155384611c85565b611c54565b9050808382526020820190508285604086028201111561157757600080fd5b60005b858110156115a7578161158d888261161a565b84526020840193506040830192505060018101905061157a565b5050509392505050565b6000813590506115c081611d81565b92915050565b6000815190506115d581611d81565b92915050565b600082601f8301126115ec57600080fd5b81516115fc848260208601611545565b91505092915050565b60008151905061161481611d98565b92915050565b60006040828403121561162c57600080fd5b6116366040611c54565b905060006116468482850161167b565b600083015250602061165a8482850161167b565b60208301525092915050565b60008135905061167581611daf565b92915050565b60008151905061168a81611daf565b92915050565b6000602082840312156116a257600080fd5b60006116b0848285016115b1565b91505092915050565b6000602082840312156116cb57600080fd5b60006116d9848285016115c6565b91505092915050565b600080604083850312156116f557600080fd5b6000611703858286016115b1565b925050602061171485828601611666565b9150509250929050565b60006020828403121561173057600080fd5b600082015167ffffffffffffffff81111561174a57600080fd5b611756848285016115db565b91505092915050565b60006020828403121561177157600080fd5b600061177f84828501611605565b91505092915050565b60006020828403121561179a57600080fd5b60006117a884828501611666565b91505092915050565b6000602082840312156117c357600080fd5b60006117d18482850161167b565b91505092915050565b600080604083850312156117ed57600080fd5b60006117fb85828601611666565b925050602061180c85828601611666565b9150509250929050565b61181f81611cc2565b82525050565b61182e81611cc2565b82525050565b61183d81611d0a565b82525050565b61184c81611d2e565b82525050565b600061185f602083611cb1565b91507f57697370546f6b656e3a20636f6e7472616374206e6f7420617070726f7665646000830152602082019050919050565b600061189f602283611cb1565b91507f54726561737572654e46543a20636f6e7472616374206e6f7420617070726f7660008301527f65640000000000000000000000000000000000000000000000000000000000006020830152604082019050919050565b6000611905601283611cb1565b91507f496e646578206f7574206f662072616e676500000000000000000000000000006000830152602082019050919050565b6000611945601283611cb1565b91507f4e6f2073616c657320617661696c61626c6500000000000000000000000000006000830152602082019050919050565b8082525050565b60408201600082015161199560008501826119cc565b5060208201516119a860208501826119cc565b50505050565b6119b781611d00565b82525050565b6119c681611d00565b82525050565b6119d581611d00565b82525050565b60006020820190506119f06000830184611816565b92915050565b6000604082019050611a0b6000830185611816565b611a186020830184611816565b9392505050565b6000606082019050611a346000830186611816565b611a416020830185611816565b611a4e60408301846119ae565b949350505050565b6000604082019050611a6b6000830185611816565b611a7860208301846119ae565b9392505050565b6000602082019050611a946000830184611834565b92915050565b6000602082019050611aaf6000830184611843565b92915050565b60006020820190508181036000830152611ace81611852565b9050919050565b60006020820190508181036000830152611aee81611892565b9050919050565b60006020820190508181036000830152611b0e816118f8565b9050919050565b60006020820190508181036000830152611b2e81611938565b9050919050565b6000602082019050611b4a6000830184611978565b92915050565b6000604082019050611b656000830185611978565b611b726020830184611825565b9392505050565b6000608082019050611b8e6000830186611978565b611b9b6020830185611825565b611ba8604083018461197f565b949350505050565b6000606082019050611bc56000830186611978565b611bd26020830185611825565b611bdf60408301846119bd565b949350505050565b6000604082019050611bfc6000830185611978565b611c0960208301846119bd565b9392505050565b6000602082019050611c2560008301846119ae565b92915050565b6000604082019050611c4060008301856119ae565b611c4d60208301846119ae565b9392505050565b6000604051905081810181811067ffffffffffffffff82111715611c7b57611c7a611d52565b5b8060405250919050565b600067ffffffffffffffff821115611ca057611c9f611d52565b5b602082029050602081019050919050565b600082825260208201905092915050565b6000611ccd82611ce0565b9050919050565b60008115159050919050565b600073ffffffffffffffffffffffffffffffffffffffff82169050919050565b6000819050919050565b6000611d1582611d1c565b9050919050565b6000611d2782611ce0565b9050919050565b6000611d3982611d40565b9050919050565b6000611d4b82611ce0565b9050919050565b7f4e487b7100000000000000000000000000000000000000000000000000000000600052604160045260246000fd5b611d8a81611cc2565b8114611d9557600080fd5b50565b611da181611cd4565b8114611dac57600080fd5b50565b611db881611d00565b8114611dc357600080fd5b5056fea2646970667358221220385087908425e569d1ce851867b7a3a629ae56605472aff49bb24ccc1b705f2664736f6c63430008000033",
  "linkReferences": {
    "contracts/Merchant.sol": {
      "IterableMapping": [
        {
          "length": 20,
          "start": 982
        },
        {
          "length": 20,
          "start": 1194
        },
        {
          "length": 20,
          "start": 1408
        },
        {
          "length": 20,
          "start": 1859
        },
        {
          "length": 20,
          "start": 2076
        },
        {
          "length": 20,
          "start": 2291
        },
        {
          "length": 20,
          "start": 3443
        },
        {
          "length": 20,
          "start": 3638
        },
        {
          "length": 20,
          "start": 3787
        },
        {
          "length": 20,
          "start": 3999
        },
        {
          "length": 20,
          "start": 4210
        },
        {
          "length": 20,
          "start": 4425
        },
        {
          "length": 20,
          "start": 4653
        },
        {
          "length": 20,
          "start": 4865
        },
        {
          "length": 20,
          "start": 5078
        },
        {
          "length": 20,
          "start": 5293
        },
        {
          "length": 20,
          "start": 5614
        },
        {
          "length": 20,
          "start": 5769
        }
      ]
    }
  },
  "deployedLinkReferences": {
    "contracts/Merchant.sol": {
      "IterableMapping": [
        {
          "length": 20,
          "start": 515
        },
        {
          "length": 20,
          "start": 727
        },
        {
          "length": 20,
          "start": 941
        },
        {
          "length": 20,
          "start": 1392
        },
        {
          "length": 20,
          "start": 1609
        },
        {
          "length": 20,
          "start": 1824
        },
        {
          "length": 20,
          "start": 2976
        },
        {
          "length": 20,
          "start": 3171
        },
        {
          "length": 20,
          "start": 3320
        },
        {
          "length": 20,
          "start": 3532
        },
        {
          "length": 20,
          "start": 3743
        },
        {
          "length": 20,
          "start": 3958
        },
        {
          "length": 20,
          "start": 4186
        },
        {
          "length": 20,
          "start": 4398
        },
        {
          "length": 20,
          "start": 4611
        },
        {
          "length": 20,
          "start": 4826
        },
        {
          "length": 20,
          "start": 5147
        },
        {
          "length": 20,
          "start": 5302
        }
      ]
    }
  }
}