{
  "_format": "hh-sol-artifact-1",
  "contractName": "SupportedNFTs",
  "sourceName": "contracts/Merchant.sol",
  "abi": [
    {
      "inputs": [
        {
          "internalType": "contract TreasureNFT",
          "name": "contractAddress",
          "type": "address"
        }
      ],
      "stateMutability": "nonpayable",
      "type": "constructor"
    },
    {
      "inputs": [],
      "name": "trs",
      "outputs": [
        {
          "internalType": "contract TreasureNFT",
          "name": "",
          "type": "address"
        }
      ],
      "stateMutability": "view",
      "type": "function"
    }
  ],
  "bytecode": "0x608060405234801561001057600080fd5b506040516102263803806102268339818101604052810190610032919061008d565b806000806101000a81548173ffffffffffffffffffffffffffffffffffffffff021916908373ffffffffffffffffffffffffffffffffffffffff16021790555050610111565b600081519050610087816100fa565b92915050565b60006020828403121561009f57600080fd5b60006100ad84828501610078565b91505092915050565b60006100c1826100da565b9050919050565b60006100d3826100b6565b9050919050565b600073ffffffffffffffffffffffffffffffffffffffff82169050919050565b610103816100c8565b811461010e57600080fd5b50565b610106806101206000396000f3fe6080604052348015600f57600080fd5b506004361060275760003560e01c8062ca15ae14602c575b600080fd5b60326046565b604051603d91906077565b60405180910390f35b60008054906101000a900473ffffffffffffffffffffffffffffffffffffffff1681565b60718160b0565b82525050565b6000602082019050608a6000830184606a565b92915050565b600073ffffffffffffffffffffffffffffffffffffffff82169050919050565b600060b98260c0565b9050919050565b600060c9826090565b905091905056fea264697066735822122050759058b9cd3d0802d47a428fc6623aece1c3b7d5e1f4709ce4804dcb25f68664736f6c63430008000033",
  "linkReferences": {},
  "deployedLinkReferences": {}
}