{
  "_format": "hh-sol-artifact-1",
  "contractName": "WelcomeChest",
  "sourceName": "contracts/WelcomeChest.sol",
  "abi": [
    {
      "inputs": [
        {
          "internalType": "contract WispToken",
          "name": "_wispContract",
          "type": "address"
        }
      ],
      "stateMutability": "nonpayable",
      "type": "constructor"
    },
    {
      "anonymous": false,
      "inputs": [
        {
          "indexed": false,
          "internalType": "address",
          "name": "to",
          "type": "address"
        },
        {
          "indexed": false,
          "internalType": "uint256",
          "name": "amount",
          "type": "uint256"
        }
      ],
      "name": "Sent",
      "type": "event"
    },
    {
      "inputs": [
        {
          "internalType": "address",
          "name": "beneficiary",
          "type": "address"
        }
      ],
      "name": "request",
      "outputs": [],
      "stateMutability": "nonpayable",
      "type": "function"
    }
  ],
  "bytecode": "0x608060405234801561001057600080fd5b506040516105a03803806105a08339818101604052810190610032919061008d565b806000806101000a81548173ffffffffffffffffffffffffffffffffffffffff021916908373ffffffffffffffffffffffffffffffffffffffff16021790555050610111565b600081519050610087816100fa565b92915050565b60006020828403121561009f57600080fd5b60006100ad84828501610078565b91505092915050565b60006100c1826100da565b9050919050565b60006100d3826100b6565b9050919050565b600073ffffffffffffffffffffffffffffffffffffffff82169050919050565b610103816100c8565b811461010e57600080fd5b50565b610480806101206000396000f3fe608060405234801561001057600080fd5b506004361061002b5760003560e01c806327c78c4214610030575b600080fd5b61004a6004803603810190610045919061026f565b61004c565b005b6000683635c9adc5dea0000090508060008054906101000a900473ffffffffffffffffffffffffffffffffffffffff1673ffffffffffffffffffffffffffffffffffffffff166370a08231306040518263ffffffff1660e01b81526004016100b49190610348565b60206040518083038186803b1580156100cc57600080fd5b505afa1580156100e0573d6000803e3d6000fd5b505050506040513d601f19601f8201168201806040525081019061010491906102c1565b1015610145576040517f08c379a000000000000000000000000000000000000000000000000000000000815260040161013c9061038c565b60405180910390fd5b60008054906101000a900473ffffffffffffffffffffffffffffffffffffffff1673ffffffffffffffffffffffffffffffffffffffff1663a9059cbb83836040518363ffffffff1660e01b81526004016101a0929190610363565b602060405180830381600087803b1580156101ba57600080fd5b505af11580156101ce573d6000803e3d6000fd5b505050506040513d601f19601f820116820180604052508101906101f29190610298565b507f510ffb4dcab972ae9d2007a58e13f1b0881776d23cd8f5cc32f8c5be2dbf70d28282604051610224929190610363565b60405180910390a15050565b60008135905061023f81610405565b92915050565b6000815190506102548161041c565b92915050565b60008151905061026981610433565b92915050565b60006020828403121561028157600080fd5b600061028f84828501610230565b91505092915050565b6000602082840312156102aa57600080fd5b60006102b884828501610245565b91505092915050565b6000602082840312156102d357600080fd5b60006102e18482850161025a565b91505092915050565b6102f3816103bd565b82525050565b60006103066012836103ac565b91507f496e73756666696369656e742066756e647300000000000000000000000000006000830152602082019050919050565b610342816103fb565b82525050565b600060208201905061035d60008301846102ea565b92915050565b600060408201905061037860008301856102ea565b6103856020830184610339565b9392505050565b600060208201905081810360008301526103a5816102f9565b9050919050565b600082825260208201905092915050565b60006103c8826103db565b9050919050565b60008115159050919050565b600073ffffffffffffffffffffffffffffffffffffffff82169050919050565b6000819050919050565b61040e816103bd565b811461041957600080fd5b50565b610425816103cf565b811461043057600080fd5b50565b61043c816103fb565b811461044757600080fd5b5056fea2646970667358221220f29471ce502200aee67a07fdff6414e6765870aed25c70bba90e168f1bfbeda364736f6c63430008000033",
  "linkReferences": {},
  "deployedLinkReferences": {}
}