{
  "_format": "hh-sol-artifact-1",
  "contractName": "WelcomeChest",
  "sourceName": "contracts/WelcomeChest.sol",
  "abi": [
    {
      "inputs": [
        {
          "internalType": "contract WispToken",
          "name": "wispContract",
          "type": "address"
        }
      ],
      "stateMutability": "nonpayable",
      "type": "constructor"
    },
    {
      "anonymous": false,
      "inputs": [
        {
          "indexed": false,
          "internalType": "address",
          "name": "to",
          "type": "address"
        },
        {
          "indexed": false,
          "internalType": "uint256",
          "name": "amount",
          "type": "uint256"
        }
      ],
      "name": "TokensSent",
      "type": "event"
    },
    {
      "inputs": [],
      "name": "amount",
      "outputs": [
        {
          "internalType": "uint256",
          "name": "",
          "type": "uint256"
        }
      ],
      "stateMutability": "view",
      "type": "function"
    },
    {
      "inputs": [
        {
          "internalType": "address",
          "name": "beneficiary",
          "type": "address"
        }
      ],
      "name": "requestTokens",
      "outputs": [],
      "stateMutability": "nonpayable",
      "type": "function"
    },
    {
      "inputs": [],
      "name": "wisp",
      "outputs": [
        {
          "internalType": "contract WispToken",
          "name": "",
          "type": "address"
        }
      ],
      "stateMutability": "view",
      "type": "function"
    }
  ],
  "bytecode": "0x6080604052683635c9adc5dea0000060015534801561001d57600080fd5b5060405161068d38038061068d833981810160405281019061003f919061009c565b80806000806101000a81548173ffffffffffffffffffffffffffffffffffffffff021916908373ffffffffffffffffffffffffffffffffffffffff1602179055505050610120565b60008151905061009681610109565b92915050565b6000602082840312156100ae57600080fd5b60006100bc84828501610087565b91505092915050565b60006100d0826100e9565b9050919050565b60006100e2826100c5565b9050919050565b600073ffffffffffffffffffffffffffffffffffffffff82169050919050565b610112816100d7565b811461011d57600080fd5b50565b61055e8061012f6000396000f3fe608060405234801561001057600080fd5b50600436106100415760003560e01c80631aa4801c14610046578063580f390414610064578063aa8c217c14610080575b600080fd5b61004e61009e565b60405161005b9190610410565b60405180910390f35b61007e600480360381019061007991906102e4565b6100c2565b005b61008861029f565b604051610095919061044b565b60405180910390f35b60008054906101000a900473ffffffffffffffffffffffffffffffffffffffff1681565b6001548060008054906101000a900473ffffffffffffffffffffffffffffffffffffffff1673ffffffffffffffffffffffffffffffffffffffff166370a08231306040518263ffffffff1660e01b815260040161011f91906103cc565b60206040518083038186803b15801561013757600080fd5b505afa15801561014b573d6000803e3d6000fd5b505050506040513d601f19601f8201168201806040525081019061016f9190610336565b10156101b0576040517f08c379a00000000000000000000000000000000000000000000000000000000081526004016101a79061042b565b60405180910390fd5b60008054906101000a900473ffffffffffffffffffffffffffffffffffffffff1673ffffffffffffffffffffffffffffffffffffffff1663a9059cbb836001546040518363ffffffff1660e01b815260040161020d9291906103e7565b602060405180830381600087803b15801561022757600080fd5b505af115801561023b573d6000803e3d6000fd5b505050506040513d601f19601f8201168201806040525081019061025f919061030d565b507ff18d5a93c62c1d0c761ed52107f11d20bc2071851206b79c4dd3283bd9f006f1826001546040516102939291906103e7565b60405180910390a15050565b60015481565b6000813590506102b4816104e3565b92915050565b6000815190506102c9816104fa565b92915050565b6000815190506102de81610511565b92915050565b6000602082840312156102f657600080fd5b6000610304848285016102a5565b91505092915050565b60006020828403121561031f57600080fd5b600061032d848285016102ba565b91505092915050565b60006020828403121561034857600080fd5b6000610356848285016102cf565b91505092915050565b61036881610477565b82525050565b610377816104bf565b82525050565b600061038a601283610466565b91507f496e73756666696369656e742066756e647300000000000000000000000000006000830152602082019050919050565b6103c6816104b5565b82525050565b60006020820190506103e1600083018461035f565b92915050565b60006040820190506103fc600083018561035f565b61040960208301846103bd565b9392505050565b6000602082019050610425600083018461036e565b92915050565b600060208201905081810360008301526104448161037d565b9050919050565b600060208201905061046060008301846103bd565b92915050565b600082825260208201905092915050565b600061048282610495565b9050919050565b60008115159050919050565b600073ffffffffffffffffffffffffffffffffffffffff82169050919050565b6000819050919050565b60006104ca826104d1565b9050919050565b60006104dc82610495565b9050919050565b6104ec81610477565b81146104f757600080fd5b50565b61050381610489565b811461050e57600080fd5b50565b61051a816104b5565b811461052557600080fd5b5056fea2646970667358221220e7e00e33188a10ec543570775bc2130aff69ae4b3b604789c2c8e6f3f1e600a264736f6c63430008000033",
  "linkReferences": {},
  "deployedLinkReferences": {}
}