{
  "_format": "hh-sol-artifact-1",
  "contractName": "WelcomeChest",
  "sourceName": "contracts/WelcomeChest.sol",
  "abi": [
    {
      "inputs": [
        {
          "internalType": "contract WispToken",
          "name": "_wispContract",
          "type": "address"
        }
      ],
      "stateMutability": "nonpayable",
      "type": "constructor"
    },
    {
      "anonymous": false,
      "inputs": [
        {
          "indexed": false,
          "internalType": "address",
          "name": "to",
          "type": "address"
        },
        {
          "indexed": false,
          "internalType": "uint256",
          "name": "amount",
          "type": "uint256"
        }
      ],
      "name": "Sent",
      "type": "event"
    },
    {
      "inputs": [
        {
          "internalType": "address",
          "name": "beneficiary",
          "type": "address"
        }
      ],
      "name": "request",
      "outputs": [],
      "stateMutability": "nonpayable",
      "type": "function"
    },
    {
      "inputs": [],
      "name": "wispContract",
      "outputs": [
        {
          "internalType": "contract WispToken",
          "name": "",
          "type": "address"
        }
      ],
      "stateMutability": "view",
      "type": "function"
    }
  ],
  "bytecode": "0x608060405234801561001057600080fd5b5060405161063b38038061063b8339818101604052810190610032919061008d565b806000806101000a81548173ffffffffffffffffffffffffffffffffffffffff021916908373ffffffffffffffffffffffffffffffffffffffff16021790555050610111565b600081519050610087816100fa565b92915050565b60006020828403121561009f57600080fd5b60006100ad84828501610078565b91505092915050565b60006100c1826100da565b9050919050565b60006100d3826100b6565b9050919050565b600073ffffffffffffffffffffffffffffffffffffffff82169050919050565b610103816100c8565b811461010e57600080fd5b50565b61051b806101206000396000f3fe608060405234801561001057600080fd5b50600436106100365760003560e01c806327c78c421461003b578063aab7c0b114610057575b600080fd5b610055600480360381019061005091906102bc565b610075565b005b61005f610259565b60405161006c91906103e8565b60405180910390f35b6000683635c9adc5dea0000090508060008054906101000a900473ffffffffffffffffffffffffffffffffffffffff1673ffffffffffffffffffffffffffffffffffffffff166370a08231306040518263ffffffff1660e01b81526004016100dd91906103a4565b60206040518083038186803b1580156100f557600080fd5b505afa158015610109573d6000803e3d6000fd5b505050506040513d601f19601f8201168201806040525081019061012d919061030e565b101561016e576040517f08c379a000000000000000000000000000000000000000000000000000000000815260040161016590610403565b60405180910390fd5b60008054906101000a900473ffffffffffffffffffffffffffffffffffffffff1673ffffffffffffffffffffffffffffffffffffffff1663a9059cbb83836040518363ffffffff1660e01b81526004016101c99291906103bf565b602060405180830381600087803b1580156101e357600080fd5b505af11580156101f7573d6000803e3d6000fd5b505050506040513d601f19601f8201168201806040525081019061021b91906102e5565b507f510ffb4dcab972ae9d2007a58e13f1b0881776d23cd8f5cc32f8c5be2dbf70d2828260405161024d9291906103bf565b60405180910390a15050565b60008054906101000a900473ffffffffffffffffffffffffffffffffffffffff1681565b60008135905061028c816104a0565b92915050565b6000815190506102a1816104b7565b92915050565b6000815190506102b6816104ce565b92915050565b6000602082840312156102ce57600080fd5b60006102dc8482850161027d565b91505092915050565b6000602082840312156102f757600080fd5b600061030584828501610292565b91505092915050565b60006020828403121561032057600080fd5b600061032e848285016102a7565b91505092915050565b61034081610434565b82525050565b61034f8161047c565b82525050565b6000610362601283610423565b91507f496e73756666696369656e742066756e647300000000000000000000000000006000830152602082019050919050565b61039e81610472565b82525050565b60006020820190506103b96000830184610337565b92915050565b60006040820190506103d46000830185610337565b6103e16020830184610395565b9392505050565b60006020820190506103fd6000830184610346565b92915050565b6000602082019050818103600083015261041c81610355565b9050919050565b600082825260208201905092915050565b600061043f82610452565b9050919050565b60008115159050919050565b600073ffffffffffffffffffffffffffffffffffffffff82169050919050565b6000819050919050565b60006104878261048e565b9050919050565b600061049982610452565b9050919050565b6104a981610434565b81146104b457600080fd5b50565b6104c081610446565b81146104cb57600080fd5b50565b6104d781610472565b81146104e257600080fd5b5056fea2646970667358221220391ec97232401ff45121e33210d6c0abe4f43bd457c9c43f8c8afd1a0e3efbf564736f6c63430008000033",
  "linkReferences": {},
  "deployedLinkReferences": {}
}